:100000000C94B8000C94D5000C94D5000C94D50039
:100010000C94D5000C94D5000C94D5000C94D5000C
:100020000C94D5000C94D5000C94D5000C945E1D56
:100030000C94D5000C94D5000C94D5000C94D500EC
:100040000C94D5000C94D5000C94D5000C94D500DC
:100050000C94D5000C94D5000C94D5000C94D500CC
:100060000C94D5000C94D5000C94D5000C94D500BC
:100070000C94D500FB1EC31E2C1EC31E2C1EA11EDD
:100080007A1E2C1E671E4A1E0930063003302B2DA7
:100090000030FD2F2B2D2B2D2B2D2B2D2B2D2B2DF4
:1000A0002B2D2B2D2B2D2B2DEC2FE12FD62FCB2FC6
:1000B000BA2F9D2F8C2F892F862F7C2F722F6F2F79
:1000C0006C2F462F202F1D2F132F2B2D2B2D2B2D3B
:1000D0002B2D102F0D2FFE2E2B2D2B2D2B2D2B2DC1
:1000E0002B2D2B2D2B2D2B2DF42ED02E2B2D2B2DE0
:1000F0002B2D2B2D2B2DB62E9C2E8D2E2B2D7D2E8C
:10010000612E2B2D2B2D2B2D3B2E152D2B2D2B2DFD
:10011000482E2B2D2B2D2B2D2B2D2B2D2B2D2B2D01
:100120002B2D2B2D2B2D2B2D0F2EF02DC92DAA2D48
:100130002B2D7B2D5F2D562D682D4C2D342D090236
:10014000200001010080640904000002000000009A
:10015000070502024000000705810240000012016D
:10016000000200000020C016DE05010000000001B2
:1001700011241FBEC0E0D2E0DEBFCDBF11E0A0E081
:10018000B1E0E8E3F2E602C005900D92A830B107B5
:10019000D9F721E0A8E0B1E001C01D92A935B2076E
:1001A000E1F70E9421200C941A310C94000000C049
:1001B00000C000C000C000C000C000000895279823
:1001C00026982F982E980895279AF1DF26D0089523
:1001D000269AEDDF2798EBDF2698E9DF279AE7DFFD
:1001E0001CD00895AA27BB27C8E8D3E1082E279A78
:1001F000DEDF802D12D0882339F007D0119682E0FF
:10020000CA17DB0709F0F3CF0895269A279ACFDFA4
:100210002698CDDF2798CBDF08950894881F01C06A
:10022000880F59F0269A18F40000279802C0279AE0
:1002300000C0BDDF2698BBDFF3CF269A2798B7DF33
:1002400026981E9BFECF88271F9981E0B0DF992753
:100250000895882701C081E071E0269A2798A7DFDA
:100260002698A5DF1E9BFECF88941F990894771FC0
:10027000A0F7269A813011F0279801C0279A97DFBE
:1002800026981E9BFECF93DF872F992708950F9303
:100290001F938C01222733270EBD0DB407FEFDCF1F
:1002A000072F182F292F33270EBD0DB407FEFDCFC2
:1002B0006EBD0DB407FEFDCF2C9A82E08A95F1F752
:1002C0002C981F910F910895FF920F931F93CF9336
:1002D000DF93E0911001F0911101099581E0809385
:1002E000E90001E412E1DFEF04C08091E80080FD45
:1002F00014C08091540190915501A0915601B09184
:100300005701892B8A2B8B2B81F710925001DF919B
:10031000CF911F910F91FF9008958091540190917A
:100320005501A0915601B091570181349105A10565
:10033000B10508F05AC040915401509155016091A7
:10034000560170915701F42E8091540190915501FE
:10035000A0915601B0915701841B9109A109B109DF
:100360008093540190935501A0935601B093570187
:100370004423A9F1C0E0609145017091460180914C
:10038000470190914801E0911C01F0911D010995F0
:100390008091450190914601A0914701B09148019B
:1003A0000196A11DB11D8093450190934601A09334
:1003B0004701B093480128980EBD0DB407FEFDCF4C
:1003C0001EBD0DB407FEFDCFDEBD0DB407FEFDCF93
:1003D0008EB58093F100289ACF5FCF1560F280919F
:1003E000E8008E778093E80084CF8091540190914B
:1003F0005501A0915601B091570180549109A1096E
:10040000B1098093540190935501A0935601B09384
:10041000570180E4F82EAECFBF92CF92DF92EF92D9
:10042000FF920F931F93CF93DF93C0904501D0901D
:100430004601E0904701F0904801F694E794D79484
:10044000C794E0911001F0911101099581E080932A
:10045000E90091E4B92E02E1DFEF04C08091E800E9
:1004600080FD18C08091540190915501A0915601D2
:10047000B0915701892B8A2B8B2B81F71092500159
:10048000DF91CF911F910F91FF90EF90DF90CF9070
:10049000BF9008958091540190915501A09156010B
:1004A000B091570181349105A105B10508F04DC007
:1004B000409154015091550160915601709157013E
:1004C000142F8091540190915501A0915601B09143
:1004D0005701841B9109A109B1098093540190939C
:1004E0005501A0935601B0935701442341F1C0E058
:1004F000E0911C01F0911D01C701B60109958FEF34
:10050000C81AD80AE80AF80A2898BEBC0DB407FE33
:10051000FDCF0EBD0DB407FEFDCFDEBD0DB407FE51
:10052000FDCF8EB58093F100DEBD0DB407FEFDCF8B
:100530008EB58093F100289ACE5FC117C8F28091E2
:10054000E8008E778093E8008DCF809154019091E0
:100550005501A0915601B091570180549109A1090C
:10056000B1098093540190935501A0935601B09323
:10057000570110E4BCCFCF93DF93EC0160914501AC
:10058000709146018091470190914801E0911C01D2
:10059000F0911D0109958091F100E0911601F09113
:1005A000170190E0099540914501509146016091F5
:1005B0004701709148014F5F5F4F6F4F7F4F4093EE
:1005C000450150934601609347017093480198811B
:1005D0009F5F9883DF91CF910895CF93DF93EA01D6
:1005E000E0911C01F0911D010995E0911601F09137
:1005F0001701CE01DF91CF91099480910001909174
:100600000101892B71F080E090E025E02A95F1F757
:10061000000001962091000130910101821793079B
:10062000A0F30895289890E49EBD0DB407FEFDCF79
:100630008EBD0DB407FEFDCF6EBD0DB407FEFDCF20
:10064000289A089510920E0160E080E00E94120343
:1006500060E081E00E9412032D9A089580910E01BE
:10066000811101C008950C942203CF93DF93EC0114
:100670008091450190914601A0914701B0914801B8
:10068000BC01CD019695879577956795E0911C0102
:10069000F0911D01099580910E01811134C02898B7
:1006A00080E48EBD0DB407FEFDCF82E18EBD0DB49A
:1006B00007FEFDCF8091F1008EBD0DB407FEFDCF8A
:1006C0008091F1008EBD0DB407FEFDCF289A2F98C2
:1006D0004091450150914601609147017091480158
:1006E0004E5F5F4F6F4F7F4F4093450150934601E0
:1006F000609347017093480198819E5F98832F9A79
:10070000DF91CF9108950E942203C9CFCF93DF9349
:10071000D42FC52F9695879577956795E0911C0105
:10072000F0911D0109952C9A2C9880910E01811150
:1007300019C0289880E48EBD0DB407FEFDCF82E17C
:100740008EBD0DB407FEFDCFDEBD0DB407FEFDCF9F
:10075000CEBD0DB407FEFDCF289A2F982F9ADF91BA
:10076000CF9108950E942203E4CFCF93DF9300D06E
:10077000CDB7DEB720910E0121111EC0289820E4CC
:100780002EBD0DB407FEFDCF22E12EBD0DB407FE38
:10079000FDCF8EBD0DB407FEFDCF9EBD0DB407FE8F
:1007A000FDCF289A2F9882E08A95F1F72F9A0F9023
:1007B0000F90DF91CF91089589839A830E9422033D
:1007C0009A818981DBCF81E080930E016FEF80E019
:1007D0000E9412036FEF81E00E9412032D9808958A
:1007E00080910E01811108950C94E30380910E0114
:1007F0008823F1F0289881E48EBD0DB407FEFDCF6B
:1008000082E18EBD0DB407FEFDCF8FEF8EBD0DB41E
:1008100007FEFDCF2EB58FEF8EBD0DB407FEFDCFC9
:100820008EB5289A90E0982F8827820F911D089501
:100830000E94E303DFCF10920E0160E080E00E948F
:1008400012032D9A089580910E01811101C008951F
:100850000C941B04CF93DF931F92CDB7DEB790911A
:100860000E01911119C0289890E49EBD0DB407FEA9
:10087000FDCF92E19EBD0DB407FEFDCF8EBD0DB440
:1008800007FEFDCF289A2F9882E08A95F1F72F9ADC
:100890000F90DF91CF91089589830E941B04898175
:1008A000E2CF81E080930E016FEF80E00E9412039F
:1008B0002D98089580910E01811108950C94510492
:1008C00080910E018823A1F0289881E48EBD0DB49B
:1008D00007FEFDCF82E18EBD0DB407FEFDCF8FEF89
:1008E0008EBD0DB407FEFDCF8EB5289A90E0089519
:1008F0000E945104E9CF289891E49EBD0DB407FEF3
:10090000FDCF8EBD0DB407FEFDCF8FEF8EBD0DB4B4
:1009100007FEFDCF8EB5289A0895CF9380930C01E2
:100920000E943E2085E00E947B04C82F85E10E9442
:100930007B0468E2C83A59F08AE00E9412038AE018
:100940000E947B04883249F081E0CF910895883A73
:1009500099F785E00E941203F2CF2C9810920D01B6
:1009600081E080930E0110923D011092450110929A
:100970004601109247011092480187E491E090935C
:100980001D0180931C018DEF92E0909329018093CB
:10099000280180910C01813091F0823009F44CC023
:1009A000833009F486C02F9AE0911C01F0911D015B
:1009B00060E070E0CB01099587E1CF9108956FEF7A
:1009C00080E00E94120360E082E10E94120360E076
:1009D00081E00E94120360E083E10E9412038AE238
:1009E00094E0909317018093160180E694E0909331
:1009F00019018093180184E691E090931F01809380
:100A00001E0183E294E090931B0180931A018AE512
:100A100094E090931101809310018BEB92E09093FE
:100A20002D0180932C018DEE92E090932101809313
:100A300020012E982D98B7CF60E082E10E9412032A
:100A40006FEF80E00E94120360E083E10E941203D6
:100A50006FEF81E00E94120385EB93E09093170102
:100A60008093160186EF93E090931901809318010B
:100A70008CE092E090931F0180931E018EE293E040
:100A800090931B0180931A0180EF93E090931101E2
:100A90008093100185E393E090932D0180932C01C6
:100AA00086E893E090932101809320012E9A2D985F
:100AB0007ACF87ED84B98BEF85B910920B0168EA84
:100AC0008AE00E94120360E089E00E9412036FEF47
:100AD00080E00E94120360E089E10E94120360E05E
:100AE00080E10E9412038AE08A95F1F700C02E9AF5
:100AF0008AEE9AE190931F0180931E0181E694E1B2
:100B0000909315018093140182EC98E190932B014E
:100B100080932A01C0910B016C2F6D7F89E10E94A7
:100B200012036C2F6C7F60930B0189E10E9412030A
:100B30003ACF0F931F938C01222733270EBD0DB49C
:100B400007FEFDCF072F182F292F33270EBD0DB419
:100B500007FEFDCF6EBD0DB407FEFDCF90FD09C0B1
:100B60002E982C9A82E08A95F1F72C981F910F917C
:100B700008952E9AF6CFCF92DF92EF92FF926B01FB
:100B80007C0160FF27C060E883E10E941203D70167
:100B9000C601B695A795979587956D01EE24FF241C
:100BA000CEBC0DB407FEFDCFC92EDA2EEB2EFF24EE
:100BB000CEBC0DB407FEFDCF8EBD0DB407FEFDCF3C
:100BC0002C9A82E08A95F1F72C98FF90EF90DF90B5
:100BD000CF90089560E083E10E941203D8CFCF92B6
:100BE000DF92EF92FF926B017C0180910D01E2FE9A
:100BF0001FC0882331F1C701AA27BB278EBD0DB4C2
:100C000007FEFDCFBB27AF2D9E2D8D2D8EBD0DB4C4
:100C100007FEFDCFCEBC0DB407FEFDCF2C9A82E0BF
:100C20008A95F1F72C98FF90EF90DF90CF90089580
:100C3000882309F360E083E10E94120310920D0102
:100C4000DACF61E083E10E94120381E080930D011D
:100C5000D2CFE0911C01F0911D0165E575E580E0C2
:100C600090E00995E0911601F09117018AEA90E071
:100C70000995E0911C01F0911D016AEA7AE280E099
:100C800090E00995E0911601F091170185E590E05B
:100C90000995E0911C01F0911D0165E575E580E085
:100CA00090E00995E0911601F091170180E890E03D
:100CB0000995E0911C01F0911D0165E575E580E065
:100CC00090E00995E0911601F09117018AEA90E011
:100CD0000995E0911C01F0911D016AEA7AE280E039
:100CE00090E00995E0911601F091170185E590E0FB
:100CF000099560914501709146018091470190915D
:100D00004801E0912001F091210140E350E0099475
:100D1000E0911C01F0911D016AEA7AE080E090E028
:100D20000995E0911601F09117018AEA90E0099582
:100D3000E0911C01F0911D0165E575E080E090E017
:100D40000995E0911601F091170185E590E009956C
:100D5000E0911C01F0911D016AEA7AE080E090E0E8
:100D60000995E0911601F091170180E890E009954E
:100D7000E0911C01F0911D016AEA7AE080E090E0C8
:100D80000995E0911601F09117018AEA90E0099522
:100D9000E0911C01F0911D0165E575E080E090E0B7
:100DA0000995E0911601F091170185E590E009950C
:100DB00060914501709146018091470190914801F1
:100DC000E0912001F091210140E350E00994E0918D
:100DD0001C01F0911D0165E575E080E090E009954A
:100DE000E0911601F09117018AEA90E00995E091EF
:100DF0001C01F0911D016AEA72E080E090E0099523
:100E0000E0911601F091170185E590E00995E091D8
:100E10001C01F0911D0165E575E080E090E0099509
:100E2000E0911601F091170180E890E00995E091BA
:100E30001C01F0911D0165E575E080E090E00995E9
:100E4000E0911601F09117018AEA90E00995E0918E
:100E50001C01F0911D016AEA72E080E090E00995C2
:100E6000E0911601F091170185E590E009956091F8
:100E70004501709146018091470190914801E091B0
:100E80002001F091210140E350E009946091450177
:100E9000709146018091470190914801E0912001B5
:100EA000F091210140E550E0099560914501709174
:100EB00046018091470190914801E0912001F09115
:100EC000210140E650E0099560914501709146018D
:100ED0008091470190914801E0912001F09121011A
:100EE00040ED50E00995E0912801F0912901099524
:100EF00060914501709146018091470190914801B0
:100F0000E0912001F091210140E250E009956091CB
:100F10004501709146018091470190914801E0910F
:100F20002001F091210140ED50E00995E091280168
:100F3000F09129010995E0911C01F0911D0160E0FB
:100F400070E0CB010995E0911601F09117018FEF48
:100F500090E00995E0911C01F0911D0160E070E0C6
:100F6000CB010995E0911601F091170180EF90E017
:100F70000994E0911C01F0911D0165E575E580E0A3
:100F800090E00995E0911601F09117018AEA90E04E
:100F90000995E0911C01F0911D016AEA7AE280E076
:100FA00090E00995E0911601F091170185E590E038
:100FB0000995E0911C01F0911D0165E575E580E062
:100FC00090E00995E0911601F091170180E890E01A
:100FD0000995E0911C01F0911D0165E575E580E042
:100FE00090E00995E0911601F09117018AEA90E0EE
:100FF0000995E0911C01F0911D016AEA7AE280E016
:1010000090E00995E0911601F091170185E590E0D7
:101010000995E0911C01F0911D0165E575E580E001
:1010200090E00995E0911601F091170180E190E0C0
:101030000994E0911C01F0911D016AEA7AE080E0D8
:1010400090E00995E0911601F09117018AEA90E08D
:101050000995E0911C01F0911D0165E575E080E0C6
:1010600090E00995E0911601F091170185E590E077
:101070000995E0911C01F0911D016AEA7AE080E097
:1010800090E00995E0911601F091170180E890E059
:101090000995E0911C01F0911D016AEA7AE080E077
:1010A00090E00995E0911601F09117018AEA90E02D
:1010B0000995E0911C01F0911D0165E575E080E066
:1010C00090E00995E0911601F091170185E590E017
:1010D0000995E0911C01F0911D016AEA7AE080E037
:1010E00090E00995E0911601F091170180E190E000
:1010F0000994E0911C01F0911D0165E575E080E027
:1011000090E00995E0911601F09117018AEA90E0CC
:101110000995E0911C01F0911D016AEA72E080E0FE
:1011200090E00995E0911601F091170185E590E0B6
:101130000995E0911C01F0911D0165E575E080E0E5
:1011400090E00995E0911601F091170180E890E098
:101150000995E0911C01F0911D0165E575E080E0C5
:1011600090E00995E0911601F09117018AEA90E06C
:101170000995E0911C01F0911D016AEA72E080E09E
:1011800090E00995E0911601F091170185E590E056
:101190000995E0911C01F0911D0165E575E080E085
:1011A00090E00995E0911601F091170180E190E03F
:1011B0000994E0911C01F0911D0160E070E0CB0109
:1011C0000995E0911601F091170180E390E00995EF
:1011D000E0911C01F0911D0160E070E0CB010995E8
:1011E000E0911601F091170180ED90E009941F93B2
:1011F000CF93DF931F92CDB7DEB782E08093E900F3
:1012000004C08091E80082FD13C080915401909148
:101210005501A0915601B0915701892B8A2B8B2B38
:1012200081F7109250010F90DF91CF911F91089597
:101230008091540190915501A0915601B0915701B0
:1012400081349105A105B10508F45BC0809154017A
:1012500090915501A0915601B09157018054910988
:10126000A109B1098093540190935501A0935601AF
:10127000B0935701198210E4E0911C01F0911D0117
:1012800065E575E580E090E00995E0911601F09143
:1012900017018AEA90E00995E0911C01F0911D0187
:1012A0006AEA7AE280E090E00995E0911601F09117
:1012B000170185E590E00995E0911C01F0911D0171
:1012C00065E575E580E090E00995E0911601F09103
:1012D000170180EA90E00995E0912C01F0912D0131
:1012E000CE0101960995E0912801F0912901099517
:1012F0008981811708F28091E8008B778093E8005C
:1013000084CF4091540150915501609156017091E4
:101310005701142F8091540190915501A0915601CD
:10132000B0915701841B9109A109B109809354011F
:1013300090935501A0935601B09357011982411122
:101340009BCFD9CF1F93CF93DF931F92CDB7DEB73B
:1013500082E08093E90004C08091E80082FD13C020
:101360008091540190915501A0915601B09157017F
:10137000892B8A2B8B2B81F7109250010F90DF91D4
:10138000CF911F9108958091540190915501A091A2
:101390005601B091570181349105A105B10508F4BA
:1013A0005BC08091540190915501A0915601B0917C
:1013B000570180549109A109B10980935401909378
:1013C0005501A0935601B0935701198210E4E091A2
:1013D0001C01F0911D016AEA7AE080E090E0099535
:1013E000E0911601F09117018AEA90E00995E091E9
:1013F0001C01F0911D0165E575E080E090E0099524
:10140000E0911601F091170185E590E00995E091D2
:101410001C01F0911D016AEA7AE080E090E00995F4
:10142000E0911601F091170180EA90E00995E091B2
:101430002C01F0912D01CE0101960995E091280132
:10144000F091290109958981811708F28091E800BE
:101450008B778093E80084CF4091540150915501DF
:101460006091560170915701142F80915401909111
:101470005501A0915601B0915701841B9109A10912
:10148000B1098093540190935501A0935601B093F4
:101490005701198241119BCFD9CF1F93CF93DF936F
:1014A0001F92CDB7DEB782E08093E90004C080913F
:1014B000E80082FD13C08091540190915501A091E4
:1014C0005601B0915701892B8A2B8B2B81F71092F3
:1014D00050010F90DF91CF911F9108958091540199
:1014E00090915501A0915601B09157018134910519
:1014F000A105B10508F45BC080915401909155019C
:10150000A0915601B091570180549109A109B109E8
:101510008093540190935501A0935601B0935701C5
:10152000198210E4E0911C01F0911D0165E575E060
:1015300080E090E00995E0911601F09117018AEAA8
:1015400090E00995E0911C01F0911D016AEA72E0BA
:1015500080E090E00995E0911601F091170185E592
:1015600090E00995E0911C01F0911D0165E575E0A1
:1015700080E090E00995E0911601F091170180EA72
:1015800090E00995E0912C01F0912D01CE0101969A
:101590000995E0912801F091290109958981811728
:1015A00008F28091E8008B778093E80084CF409127
:1015B0005401509155016091560170915701142FBB
:1015C0008091540190915501A0915601B09157011D
:1015D000841B9109A109B10980935401909355018D
:1015E000A0935601B0935701198241119BCFD9CFD7
:1015F0001F93CF93DF931F92CDB7DEB782E0809326
:10160000E90004C08091E80082FD31C0809154015E
:1016100090915501A0915601B0915701892B8A2BC9
:101620008B2B81F7E0911C01F0911D0160E070E0CF
:10163000CB010995E0911601F09117018FEF90E031
:101640000995E0911C01F0911D0160E070E0CB0173
:101650000995E0911601F091170180EF90E009954E
:10166000109250010F90DF91CF911F9108958091BA
:10167000540190915501A0915601B09157018134C8
:101680009105A105B105D0F18091540190915501CA
:10169000A0915601B091570180549109A109B10957
:1016A0008093540190935501A0935601B093570134
:1016B000198210E4609145017091460180914701C3
:1016C00090914801E0912001F091210140E450E027
:1016D0000995E0912C01F0912D01CE01019609951B
:1016E000E0912801F091290109958981811710F372
:1016F0008091E8008B778093E80088CF4091540177
:10170000509155016091560170915701142F8091AD
:10171000540190915501A0915601B0915701841B3D
:101720009109A109B1098093540190935501A093A7
:101730005601B093570119824111BCCFD9CF1F93E5
:10174000CF93DF931F92CDB7DEB782E08093E9009D
:10175000E0911C01F0911D0165E575E080E090E0ED
:101760000995E0911601F09117018AEA90E0099538
:10177000E0911C01F0911D016AEA72E080E090E0C6
:101780000995E0911601F091170185E590E0099522
:10179000E0911C01F0911D0165E575E080E090E0AD
:1017A0000995E0911601F091170180E290E009950A
:1017B00004C08091E80082FD31C080915401909175
:1017C0005501A0915601B0915701892B8A2B8B2B83
:1017D00081F7E0911C01F0911D0160E070E0CB0108
:1017E0000995E0911601F091170180E990E00995C3
:1017F000E0911C01F0911D0160E070E0CB010995C2
:10180000E0911601F091170180E090E009951092A7
:1018100050010F90DF91CF911F9108958091540155
:1018200090915501A0915601B091570181349105D5
:10183000A105B105D0F18091540190915501A0917D
:101840005601B091570180549109A109B1098093C3
:10185000540190935501A0935601B09357011982FA
:1018600010E4E0911C01F0911D0160E070E0CB01FB
:101870000995E0911601F091170180EA90E0099531
:10188000E0912C01F0912D01CE0101960995E09196
:101890002801F091290109958981811710F3809120
:1018A000E8008B778093E80088CF409154015091F5
:1018B00055016091560170915701142F8091540188
:1018C00090915501A0915601B0915701841B910947
:1018D000A109B1098093540190935501A093560139
:1018E000B093570119824111BCCFD9CFAF92BF92AB
:1018F000DF92EF92FF920F931F93CF93DF931F928C
:10190000CDB7DEB782E08093E900E0904301F0902C
:10191000440100E010E004C08091E80082FD19C09D
:101920008091540190915501A0915601B0915701B9
:10193000892B8A2B8B2B81F7109250010F90DF910E
:10194000CF911F910F91FF90EF90DF90BF90AF90DC
:1019500008958091540190915501A0915601B09144
:10196000570181349105A105B10508F440C080E418
:10197000A82EB12C40E450E060E070E090E4D92E55
:101980008091540190915501A0915601B091570159
:10199000841B950BA60BB70B8093540190935501B4
:1019A000A0935601B09357010115110589F11982D1
:1019B000DD2051F0E0912C01F0912D01CE01019636
:1019C000099589818D15B0F38091E8008B7780931C
:1019D000E8000A0D1B1D0E151F0509F0A1CFE091AF
:1019E0002801F0912901099500E010E099CF80913C
:1019F000540190915501A0915601B0915701D82EF4
:101A0000AC01BD01552766277727A82EB12CB8CF8A
:101A1000E0911C01F0911D0165E575E580E090E025
:101A20000995E0911601F09117018AEA90E0099575
:101A3000E0911C01F0911D016AEA7AE280E090E0F9
:101A40000995E0911601F091170185E590E009955F
:101A5000E0911C01F0911D0165E575E580E090E0E5
:101A60000995E0911601F091170180EA90E009953F
:101A70009ECFCF92DF92EF92FF921F93CF93DF938F
:101A80001F92CDB7DEB782E08093E90004C0809159
:101A9000E80082FD17C08091540190915501A091FA
:101AA0005601B0915701892B8A2B8B2B81F710920D
:101AB00050010F90DF91CF911F91FF90EF90DF9039
:101AC000CF90089580914301909144014091540139
:101AD000509155016091560170915701A0E0B0E01E
:101AE00084179507A607B70708F46EC080915401C4
:101AF00090915501A0915601B0915701182F8091F6
:101B0000540190915501A0915601B0915701811B4C
:101B10009109A109B1098093540190935501A093B3
:101B20005601B0935701C0904501D0904601E09016
:101B30004701F0904801E0912001F091210148EE29
:101B400050E0C701B6010995E0911601F091170127
:101B500080E790E009950E94600487FFECCF8091B8
:101B60000C01412F813009F0469550E04150510958
:101B7000E0912001F0912101C701B6010995198278
:101B8000112351F0E0912C01F0912D01CE0101962D
:101B9000099589818117B0F3E0912001F09121012D
:101BA00040ED50E0C701B60109958091F200811126
:101BB00005C08091E8008B778093E800E0912801D0
:101BC000F0912901099567CF8091430190914401DB
:101BD000182F95CF8F929F92AF92BF92CF92DF92A4
:101BE000EF92FF920F931F93CF93DF931F92CDB786
:101BF000DEB782E08093E900812C912C5401E12C26
:101C0000F12C8091540190915501A0915601B09111
:101C10005701892B8A2B8B2B09F424C18091540105
:101C200090915501A0915601B091570181349105D1
:101C3000A105B10508F014C100915401109155019E
:101C40002091560130915701E114F10409F05FC071
:101C500080910C01813009F4E1C0809143019091A1
:101C60004401409154015091550160915601709189
:101C70005701A0E0B0E084179507A607B70708F062
:101C8000BFC040914301509144016A01D694C7946A
:101C9000E0904301F090440180904501909046010E
:101CA000A0904701B0904801E0911C01F0911D0106
:101CB00065E575E080E090E00995E0911601F0910E
:101CC00017018AEA90E00995E0911C01F0911D014D
:101CD0006AEA72E080E090E00995E0911601F091E7
:101CE000170185E590E00995E0912001F09121012F
:101CF00045E250E0C501B4010995A60141505109E2
:101D0000E0912001F0912101C501B4010995802FD6
:101D100090E097018E159F0508F49C01122F021B7D
:101D20008091540190915501A0915601B0915701B5
:101D3000821B930BA109B109809354019093550123
:101D4000A0935601B0935701E21AF30A19828091C9
:101D5000E80082FFFCCF232B51F0E0912C01F091A1
:101D60002D01CE010196099589818117B0F30111EA
:101D700021C08091E8008B778093E8008091540126
:101D800090915501A0915601B0915701E114F104D1
:101D900069F5E0912001F091210149E250E0C5018F
:101DA000B4010995E0912801F09129010995E12CF0
:101DB000F12C27CF8091540190915501A0915601AB
:101DC000B0915701E114F104B1F4E0912001F091D8
:101DD000210149E250E0C501B4010995E0912801D3
:101DE000F09129010995E12CF12C2ECF892B8A2B1A
:101DF0008B2B79F206CF892B8A2B8B2B31F324CFB7
:101E000040915401509155016091560170915701D4
:101E100076956795579547956A013ACF809143012A
:101E200090914401409154015091550160915601A7
:101E300070915701A0E0B0E084179507A607B70797
:101E400050F04091540150915501609156017091AC
:101E500057016A011DCFC0904301D090440118CFB3
:101E600000E4F2CE109250010F90DF91CF911F91BC
:101E70000F91FF90EF90DF90CF90BF90AF909F9029
:101E80008F90089508958091000190910101892B10
:101E900081F080E090E0EFE9FFE03197F1F700C0DA
:101EA00000000196209100013091010182179307F3
:101EB00090F30895E0911C01F0911D0165E575E036
:101EC00080E090E00995E0911601F091170180E71C
:101ED00090E009950E94600487FFF5CF85E08A9520
:101EE000F1F7000008958FE99FE00197F1F700C036
:101EF0000000E0911C01F0911D0165E575E580E0B1
:101F000090E00995E0911601F09117018AEA90E0BE
:101F10000995E0911C01F0911D016AEA7AE280E0E6
:101F200090E00995E0911601F091170185E590E0A8
:101F30000995E0911C01F0911D0165E575E580E0D2
:101F400090E00995E0911601F091170180E790E08B
:101F500009950E94600487FFFCCF0895E0911C0161
:101F6000F0911D0165E575E580E090E00995E0914F
:101F70001601F09117018AEA90E00995E0911C01A1
:101F8000F0911D016AEA7AE280E090E00995E09123
:101F90001601F091170185E590E00995E0911C018B
:101FA000F0911D0165E575E580E090E00995E0910F
:101FB0001601F091170180EF90E00995E0911C0166
:101FC000F0911D0160E070E0CB010995E0911601F0
:101FD000F09117018FEF90E00994CF93DF93EC011C
:101FE0000E94AE0F8FE891E00197F1F700C000006A
:101FF000E0911C01F0911D0160E070E0CB010995BA
:102000000E9460048D83E0911C01F0911D0161E04C
:1020100070E080E090E009951C820E9460048B8350
:102020001A821982E0911C01F0911D0162E070E0BA
:1020300080E090E009950E94600488838FE99FE02A
:102040000197F1F700C00000E0911C01F0911D0123
:1020500065E575E580E090E00995E0911601F09165
:1020600017018AEA90E00995E0911C01F0911D01A9
:102070006AEA7AE280E090E00995E0911601F09139
:10208000170185E590E00995E0911C01F0911D0193
:1020900065E575E580E090E00995E0911601F09125
:1020A000170180E990E009958FE99FE00197F1F72A
:1020B00000C00000E0911C01F0911D0160E070E0A3
:1020C000CB0109950E9460048B87E0911C01F0917F
:1020D0001D0161E070E080E090E009951A860E94A1
:1020E0006004898718861F82E0911C01F0911D0110
:1020F00062E070E080E090E009950E9460048E83C9
:102100000E94AE0F8FE891E00197F1F700C0000048
:10211000DF91CF910895CF93DF93EC010E94AE0F32
:102120008FE891E00197F1F700C00000E0911C01F9
:10213000F0911D0160E070E0CB0109950E94F6036B
:102140008D83E0911C01F0911D0161E070E080E061
:1021500090E009950E94F6039C838B83E0911C011B
:10216000F0911D016EE070E080E090E009950E9422
:10217000F6038A83E0911C01F0911D016FE070E08D
:1021800080E090E009950E94F6038983E0911C01AC
:10219000F0911D0163E070E080E090E009950E94FD
:1021A000F60388838FE99FE00197F1F700C00000F4
:1021B000E0911C01F0911D0165E575E080E090E083
:1021C0000995E0911601F09117018AEA90E00995CE
:1021D000E0911C01F0911D016AEA72E080E090E05C
:1021E0000995E0911601F091170185E590E00995B8
:1021F000E0911C01F0911D0165E575E080E090E043
:102200000995E0911601F091170180E990E0099598
:102210008FE99FE00197F1F700C00000E0911C01F9
:10222000F0911D0160E070E0CB0109950E94F6037A
:102230008B87E0911C01F0911D0161E070E080E06E
:1022400090E009950E94F6039A878987E0911C0126
:10225000F0911D016EE070E080E090E009950E9431
:10226000F6038887E0911C01F0911D016FE070E09A
:1022700080E090E009950E94F6038F83E0911C01B5
:10228000F0911D0163E070E080E090E009950E940C
:10229000F6038E830E94AE0F8FE891E00197F1F76D
:1022A00000C00000DF91CF910895CF93DF93EC0140
:1022B0000E94AE0F8FE891E00197F1F700C0000097
:1022C000E0911C01F0911D0160E070E0CB010995E7
:1022D0000E9460048D83E0911C01F0911D0161E07A
:1022E00070E080E090E009951C820E9460048B837E
:1022F0001A821982E0911C01F0911D0163E070E0E7
:1023000080E090E009950E94600488838FE99FE057
:102310000197F1F700C00000E0911C01F0911D0150
:102320006AEA7AE080E090E00995E0911601F09188
:1023300017018AEA90E00995E0911C01F0911D01D6
:1023400065E575E080E090E00995E0911601F09177
:10235000170185E590E00995E0911C01F0911D01C0
:102360006AEA7AE080E090E00995E0911601F09148
:10237000170180E990E009958FE99FE00197F1F757
:1023800000C00000E0911C01F0911D0160E070E0D0
:10239000CB0109950E9460048B87E0911C01F091AC
:1023A0001D0161E070E080E090E009951A860E94CE
:1023B0006004898718861F82E0911C01F0911D013D
:1023C00063E070E080E090E009950E9460048E83F5
:1023D0000E94AE0F8FE891E00197F1F700C0000076
:1023E000DF91CF910895CF93C82F80910E0188235C
:1023F00031F010920E0160E080E00E9412036C2F19
:1024000089E0CF910C941203CF93C82F60910B01F8
:10241000616060930B0189E10E9412032F9885E0AF
:102420008A95F1F700008C2F0E94F31185E08A95C0
:10243000F1F700002F9A60910B016E7F60930B0102
:1024400089E1CF910C941203CF92DF92EF92FF9229
:102450006B017C0160910B01626060930B0189E16B
:102460000E9412032F9885E08A95F1F700008C2DC9
:102470000E94F31185E08A95F1F700002F9A89E018
:10248000F694E794D794C7948A95D1F72F9885E06E
:102490008A95F1F700008C2D0E94F31185E08A9552
:1024A000F1F700002F9A2F9885E08A95F1F7000048
:1024B0008D2D0E94F31185E08A95F1F700002F9A87
:1024C00080914B01843089F060910B016D7F6093A6
:1024D0000B0189E10E9412038AE18A95F1F700C09D
:1024E000FF90EF90DF90CF9008952F9885E08A9528
:1024F000F1F700008E2D0E94F31185E08A95F1F727
:1025000000002F9AE1CFCF92DF92EF92FF920F93CC
:102510001F93CF93DF936B017C0180910B01682F98
:10252000626060930B0189E10E94120340912401D3
:10253000509125016091260170912701C1E0D0E002
:10254000411551056105710511F4C0E0D0E0D19548
:10255000C195D109CE018C219D21E0E2F0E0E41B80
:10256000F50B0FEF1FEF980104C0369527951795CF
:102570000795EA95D2F7EC01C023D123042E04C0BD
:10258000F694E794D794C7940A94D2F780913D01CA
:10259000813009F44DC02F9885E08A95F1F700004D
:1025A0008C2F0E94F31185E08A95F1F700002F9A95
:1025B0002F9885E08A95F1F700008D2F0E94F31186
:1025C00085E08A95F1F700002F9A2F9885E08A958B
:1025D000F1F700008C2D0E94F31185E08A95F1F748
:1025E00000002F9A2F9885E08A95F1F700008D2D35
:1025F0000E94F31185E08A95F1F700002F9A8091EF
:102600004B018530F9F060910B016D7F60930B01F8
:1026100089E10E9412038AE18A95F1F700C0DF91F7
:10262000CF911F910F91FF90EF90DF90CF90089581
:1026300081E090E002C0880F991F4A95E2F7C82B0D
:10264000D92BA9CF2F9885E08A95F1F700008E2D20
:102650000E94F31185E08A95F1F700002F9AD3CFFD
:10266000CF92DF92EF92FF92CF93C0904501D0902E
:102670004601E0904701F09048010090240104C019
:10268000F694E794D794C7940A94D2F760910B011B
:10269000616060930B0189E10E9412032F9885E02D
:1026A0008A95F1F7000080E60E94F31185E08A9593
:1026B000F1F700002F9AC0910B01CE7F6C2F89E1BA
:1026C0000E9412036C2F626060930B0189E10E94EB
:1026D00012032F9885E08A95F1F700008C2D807CFD
:1026E0000E94F31185E08A95F1F700002F9A2F9848
:1026F00085E08A95F1F700008D2D0E94F31185E0A9
:102700008A95F1F700002F9A80914B01853041F1B5
:10271000C0910B01CD7F6C2F89E10E9412036C2FB9
:10272000616060930B0189E10E9412032F9885E09C
:102730008A95F1F7000080ED0E94F31185E08A95FB
:10274000F1F700002F9A60910B016E7F60930B01EF
:1027500089E1CF91FF90EF90DF90CF900C9412031E
:102760002F9885E08A95F1F700008E2D0E94F311D5
:1027700085E08A95F1F700002F9ACACFCF93609138
:102780000B01616060930B0189E10E9412032F9895
:1027900025E02A95F1F7000080E60E94F31185E01C
:1027A0008A95F1F700002F9AC0910B01CE7F6C2F14
:1027B00089E10E9412036C2F626060930B0189E132
:1027C0000E9412038091450190914601A09147011A
:1027D000B09148012F9825E02A95F1F7000039E0E3
:1027E000B695A795979587953A95D1F70E94F311DD
:1027F00085E08A95F1F700002F9A8091450190912C
:102800004601A0914701B09148012F9825E02A95F3
:10281000F1F7000041E1B695A795979587954A9500
:10282000D1F70E94F31185E08A95F1F700002F9A05
:1028300080914B01843049F1C0910B01CD7F6C2F09
:1028400089E10E9412036C2F616060930B0189E1A2
:102850000E9412032F9825E02A95F1F7000080EDE1
:102860000E94F31185E08A95F1F700002F9A60919C
:102870000B016E7F60930B0189E10E94120325E337
:102880002A95F1F70000CF9108958091450190912C
:102890004601A0914701B09148012F9825E02A9563
:1028A000F1F7000029E1B695A795979587952A95A8
:1028B000D1F70E94F31185E08A95F1F700002F9A75
:1028C000BBCFBF92CF92DF92EF92FF920F931F93F5
:1028D000CF93DF9382E08093E90010920A01109277
:1028E000090180910801813009F44CC3C0910B01AA
:1028F0006C2F616060930B0189E10E9412032F9895
:1029000085E08A95F1F7000080E80E94F31185E0E8
:102910008A95F1F700002F9A60910B016E7F60930A
:102920000B0189E10E9412036091450170914601FB
:102930008091470190914801E0911C01F0911D01A7
:10294000099585E38A95F1F700001D9BFECF85E090
:102950008A95F1F70000289880E48EBD0DB407FE3B
:10296000FDCF89E08EBD0DB407FEFDCF80913B0108
:1029700090913C01892B09F09EC180915101909169
:10298000520190930A0180930901209143013091F3
:1029900044018091450190914601A0914701B09179
:1029A0004801820F931FA11DB11D80934501909393
:1029B0004601A0934701B093480185E38A95F1F75A
:1029C000000000E439E0B32EC1E004C08091E800CB
:1029D00082FD19C08091540190915501A09156013A
:1029E000B0915701892B8A2B8B2B81F7289A109253
:1029F0005001DF91CF911F910F91FF90EF90DF90E9
:102A0000CF90BF9008958091090190910A0100979D
:102A100009F484C1409154015091550160915601CF
:102A200070915701413451056105710508F03CC1B1
:102A3000C0905401D0905501E0905601F09057019C
:102A4000DC2DDD24EE24FF242D2F30E0281739075C
:102A500088F5821B930B90930A0180930901DD2373
:102A600079F080E09091F1009EBD0DB407FEFDCF9E
:102A70002F989C2F9A95F1F72F9A8F5F8D13F2CF95
:102A80008091540190915501A0915601B091570148
:102A90008C199D09AE09BF0980935401909355018B
:102AA000A0935601B09357018091E8008B778093F3
:102AB000E80090CFD81B892BB1F080E09091F10015
:102AC0009EBD0DB407FEFDCF2F989C2F9A95F1F770
:102AD0002F9A8F5F482F50E02091090130910A0111
:102AE0004217530758F38091540190915501A091DA
:102AF0005601B0915701892B8A2B8B2B41F4DD2392
:102B000009F4BECF8091090190910A019DCF289AC6
:102B100060910B01616060930B0189E10E941203D7
:102B20002F9885E08A95F1F7000080E10E94F3116B
:102B300085E08A95F1F700002F9A60910B016E7F76
:102B400060930B0189E10E94120385E38A95F1F7F6
:102B5000000085E38A95F1F700001D9BFECF85E01C
:102B60008A95F1F7000080910801813009F475C160
:102B700010910B01612F616060930B0189E10E944C
:102B800012032F9885E08A95F1F7000080E80E94F3
:102B9000F31185E08A95F1F700002F9A60910B01FF
:102BA0006E7F60930B0189E10E94120360914501E1
:102BB000709146018091470190914801E0911C017C
:102BC000F0911D01099585E38A95F1F700001D9BA1
:102BD000FECF85E08A95F1F7000028980EBD0DB470
:102BE00007FEFDCFBEBC0DB407FEFDCF80913B01BB
:102BF00090913C01892B29F58091510190915201CE
:102C000090930A018093090120914301309144017E
:102C10008091450190914601A0914701B0914801F2
:102C2000820F931FA11DB11D809345019093460112
:102C3000A0934701B093480185E38A95F1F700001E
:102C40005ECF809151019091520120913B013091D2
:102C50003C01821B930B90930A01809309018091A0
:102C6000450190914601A0914701B0914801209102
:102C70003B0130913C014091430150914401840F4C
:102C8000951FA11DB11D821B930BA109B109809352
:102C9000450190934601A0934701B09348011092DB
:102CA0003C0110923B01C8CF20E4C22ED12CE12C74
:102CB000F12CD0E4C9CE8091510190915201209124
:102CC0003B0130913C01821B930B90930A0180934E
:102CD00009018091450190914601A0914701B09171
:102CE000480120913B0130913C01409143015091BA
:102CF0004401840F951FA11DB11D821B930BA109D7
:102D0000B1098093450190934601A0934701B09388
:102D1000480110923C0110923B014FCE289A6091DD
:102D20000B01616060930B0189E10E9412032F98EF
:102D300085E08A95F1F7000080E10E94F31185E0BB
:102D40008A95F1F700002F9A60910B016E7F6093D6
:102D50000B0189E10E94120385E38A95F1F70000D7
:102D600085E38A95F1F700001D9BFECF85E08A95EB
:102D7000F1F7000080910801813009F464C1D0911D
:102D80000B016D2F616060930B0189E10E941203BA
:102D90002F9885E08A95F1F7000080E80E94F311F2
:102DA00085E08A95F1F700002F9A60910B016E7F04
:102DB00060930B0189E10E941203609145017091BB
:102DC00046018091470190914801E0911C01F091EA
:102DD0001D01099585E38A95F1F700001D9BFECF43
:102DE00085E08A95F1F7000028980EBD0DB407FE26
:102DF000FDCFBEBC0DB407FEFDCF80913B0190918D
:102E00003C01892B09F08BC08091510190915201B6
:102E100090930A018093090120914301309144016C
:102E20008091450190914601A0914701B0914801E0
:102E3000820F931FA11DB11D809345019093460100
:102E4000A0934701B093480185E38A95F1F700000C
:102E50008091090190910A01DDCD60910B016160C3
:102E600060930B0189E10E9412032F9885E08A95F7
:102E7000F1F700008FEF0E94F31185E08A95F1F7DA
:102E800000002F9A60910B016E7F60930B0189E126
:102E90000E94120385E38A95F1F700001D9BFECF87
:102EA00085E08A95F1F7000080913D018111BCC059
:102EB0008091450190914601A0914701B091480150
:102EC00090FD1EC060910B01616060930B0189E170
:102ED0000E9412032F9885E08A95F1F7000080E0A8
:102EE0000E94F31185E08A95F1F700002F9A9091E6
:102EF0000B01192F1E7F612F89E10E9412033ACE28
:102F000060910B01616060930B0189E10E941203E3
:102F10002F9885E08A95F1F7000081E0E1CF80915C
:102F200051019091520120913B0130913C01821B53
:102F3000930B90930A018093090180914501909130
:102F40004601A0914701B091480120913B01309189
:102F50003C014091430150914401840F951FA11DF4
:102F6000B11D821B930BA109B10980934501909378
:102F70004601A0934701B093480110923C01109282
:102F80003B0162CF60910B01616060930B0189E1AD
:102F90000E9412032F9885E08A95F1F700008FEFC9
:102FA0000E94F31185E08A95F1F700002F9A609155
:102FB0000B016E7F60930B0189E10E94120385E390
:102FC0008A95F1F700001D9BFECF85E08A95F1F709
:102FD000000080913D01811197C080914501909141
:102FE0004601A0914701B091480190FF7EC06091D9
:102FF0000B01616060930B0189E10E9412032F981D
:1030000085E08A95F1F7000081E00E94F31185E0E8
:103010008A95F1F700002F9AC0910B01CE7F6C2F9B
:1030200089E10E94120364CC60910B01616060939E
:103030000B0189E10E9412032F9885E08A95F1F730
:10304000000080E54DCF60910B01616060930B0142
:1030500089E10E9412032F9885E08A95F1F700001C
:103060008FEF0E94F31185E08A95F1F700002F9A07
:1030700060910B016E7F60930B0189E10E94120346
:1030800085E38A95F1F700001D9BFECF85E08A95C8
:10309000F1F7000080913D01811154C080914501FC
:1030A00090914601A0914701B091480190FF3BC02B
:1030B00060910B01616060930B0189E10E94120332
:1030C0002F9885E08A95F1F7000081E00E94F311C6
:1030D00085E08A95F1F700002F9AD0910B01DE7FF1
:1030E0006D2F89E10E9412034CCE60910B0161604B
:1030F00060930B0189E10E9412032F9885E08A9565
:10310000F1F7000080E081CF60910B016160609376
:103110000B0189E10E9412032F9885E08A95F1F74F
:10312000000080E572CF60910B01616060930B013C
:1031300089E10E9412032F9885E08A95F1F700003B
:1031400080E0C4CF60910B01616060930B0189E165
:103150000E9412032F9885E08A95F1F7000080E520
:10316000B5CF80910E01811107C081E080930E01DF
:103170006FEF80E00E9412032E9889E00E947B048A
:103180002E9A08950F931F93CF938C0160910B019A
:10319000616060930B0189E10E9412032F9885E022
:1031A0008A95F1F7000080E00E94F31195E09A956E
:1031B000F1F700002F9AC0910B01CE7F6C2F89E1AF
:1031C0000E9412036C2F626060930B0189E10E94E0
:1031D00012032F98E5E0EA95F1F7000080E00E94E5
:1031E000F311F5E0FA95F1F700002F9A2F9885E09A
:1031F0008A95F1F7000080E00E94F31195E09A951E
:10320000F1F700002F9A2F98E5E0EA95F1F700001A
:1032100080E00E94F311F5E0FA95F1F700002F9A93
:103220002F9885E08A95F1F7000080E00E94F31165
:1032300095E09A95F1F700002F9AC0910B01CD7F90
:103240006C2F89E10E9412036C2F616060930B0167
:1032500089E10E9412032F98E5E0EA95F1F700005A
:1032600080E30E94F311F5E0FA95F1F700002F9A40
:1032700060910B016E7F60930B0189E10E94120344
:1032800085E38A95F1F700001D9BFECF95E09A95A6
:10329000F1F700000E94B11860910B01616060932A
:1032A0000B0189E10E9412032F98E5E0EA95F1F7FE
:1032B000000080E90E94F311F5E0FA95F1F70000B3
:1032C0002F9AC0910B01CE7F6C2F89E10E941203CF
:1032D0006C2F626060930B0189E10E9412032F98AA
:1032E00085E08A95F1F7000080E00E94F31195E0F7
:1032F0009A95F1F700002F9A60910B016D7F609312
:103300000B0189E10E941203E7ECF0E03197F1F73D
:1033100000C000000E94B118F801838712860E9445
:10332000B118F80181870E94B118F80180870E94C6
:10333000B118F80187830E94B118F8018683CF91F4
:103340001F910F91089585E38A95F1F700001D9B69
:10335000FECF85E08A95F1F700000895289A8091C4
:10336000080160910B01616060930B01813009F4E9
:10337000B8C089E10E9412032F9885E08A95F1F781
:10338000000080E00E94F31185E08A95F1F70000CB
:103390002F9A60910B016E7F60930B0189E10E946F
:1033A000120360914501709146018091470190910F
:1033B0004801E0911C01F0911D01099560910B01FC
:1033C000616060930B0189E10E9412032F9885E0F0
:1033D0008A95F1F7000080E30E94F31185E08A9559
:1033E000F1F700002F9A60910B016E7F60930B0143
:1033F00089E10E94120381E080930E016FEF80E06B
:103400000E941203289881E48EBD0DB407FEFDCF03
:1034100089E08EBD0DB407FEFDCF80913B019091F8
:103420003C01892BE9F18091510190915201209149
:103430003B0130913C01821B930B90930A018093D6
:1034400009018091450190914601A0914701B091F9
:10345000480120913B0130913C0140914301509142
:103460004401840F951FA11DB11D821B930BA1095F
:10347000B1098093450190934601A0934701B09311
:10348000480110923C0110923B0185E38A95F1F7C7
:1034900000001D9BFECF85E08A95F1F7000008959E
:1034A000809151019091520190930A0180930901FA
:1034B0002091430130914401809145019091460152
:1034C000A0914701B0914801820F931FA11DB11D2A
:1034D0008093450190934601A0934701B093480122
:1034E000D4CF89E10E9412032F9885E08A95F1F7E5
:1034F00000008FEF0E94F31185E08A95F1F700003C
:103500002F9A60910B016E7F60930B0189E10E94FD
:10351000120385E38A95F1F700001D9BFECF85E03D
:103520008A95F1F7000080913D01811135C08091AD
:10353000450190914601A0914701B091480190FF4B
:103540003AC060910B01616060930B0189E10E94B8
:1035500012032F9885E08A95F1F7000081E00E9420
:10356000F31185E08A95F1F700002F9A60910B0125
:103570006E7F60930B0189E10E9412036091450107
:10358000709146018091470190914801E0911C01A2
:10359000F0911D0109952FCF60910B01616060933F
:1035A0000B0189E10E9412032F9885E08A95F1F7BB
:1035B000000080E5D4CF60910B01616060930B0146
:1035C00089E10E9412032F9885E08A95F1F70000A7
:1035D00080E0C5CFCF92DF92EF92FF92CF93DF933F
:1035E00010920A011092090181E08093E900CFEF67
:1035F00004C08091E80080FD16C080915401909134
:103600005501A0915601B0915701892B8A2B8B2B24
:1036100081F7289A10925001DF91CF91FF90EF909F
:10362000DF90CF9008958091090190910A01009751
:1036300009F495C040915401509155016091560193
:1036400070915701413451056105710508F080C042
:10365000C0905401D0905501E0905601F090570170
:10366000DC2DDD24EE24FF242D2F30E02817390730
:10367000C0F5821B930B90930A0180930901DD230F
:1036800089F080E02E9890910801913029F1CEBD0B
:103690000DB407FEFDCF9EB52E9A9093F1008F5F7B
:1036A0008D13F0CF8091540190915501A091560156
:1036B000B09157018C199D09AE09BF09809354013F
:1036C00090935501A0935601B09357018091E80063
:1036D0008E778093E80091CF95E09A95F1F70000FE
:1036E000D6CFD81B892BC1F080E02E98909108018D
:1036F000913031F1CEBD0DB407FEFDCF9EB52E9AAF
:103700009093F1008F5F482F50E020910901309194
:103710000A014217530748F38091540190915501D3
:10372000A0915601B0915701892B8A2B8B2B69F4FC
:10373000DD2309F4B7CF8091090190910A0194CF5C
:1037400095E09A95F1F70000D5CF0E94AE19F0CF21
:1037500020E4C22ED12CE12CF12CD0E485CF0E94A4
:10376000AE198091090190910A0164CF209139012D
:1037700030913A012617370750F06115710579F538
:103780002091E8002E772093E80020E030E0FC0153
:1037900040E00EC0853029F18091E80083FD23C010
:1037A0008091E80082FD15C08091E80080FD1DC079
:1037B0002115310511F4442361F08091320181110A
:1037C000E9CF82E00895809132018823D1F38530DA
:1037D00041F08091E80082FFF6CF80E008959B01E0
:1037E000D6CF83E0089581E008958091F20090E0C3
:1037F0002115310519F08032910568F041E080977C
:1038000009F040E08091E8008E778093E800D0CF07
:103810008032910599F341914093F1002150310993
:10382000019621153105A1F7E9CF6115710529F43C
:103830002091E8002B772093E800FC0161157105C9
:1038400059F416C0853051F18091E80083FD28C0FD
:103850008091E80082FD12C0809132018111F2CF87
:1038600082E00895809132018823D1F38530B1F050
:103870008091E80080FFF6CF80E008958091F2000B
:10388000882331F08091F100819361507109B1F783
:103890008091E8008B778093E800D0CF83E0089593
:1038A00081E008952091390130913A0126173707B8
:1038B00050F06115710579F52091E8002E7720937D
:1038C000E80020E030E0FC0140E00EC0853029F146
:1038D0008091E80083FD23C08091E80082FD15C03F
:1038E0008091E80080FD1DC02115310511F44423AD
:1038F00061F0809132018111E9CF82E008958091D9
:1039000032018823D1F3853041F08091E80082FFB5
:10391000F6CF80E008959B01D6CF83E0089581E043
:1039200008958091F20090E02115310519F0803260
:10393000910568F041E0809709F040E08091E8004F
:103940008E778093E800D0CF8032910599F344912F
:103950004093F1003196215031090196211531052E
:1039600099F7E8CF853098F58093E900982F242FB8
:10397000762F50E021FF19C03091EB003E7F30934D
:10398000EB003091ED003D7F3093ED003091EB0086
:1039900031603093EB007093EC002093ED00509376
:1039A000F0002091EE0027FF1AC09F5F953079F05C
:1039B0009093E900891779F07091EC002091ED0067
:1039C0005091F00021FDD8CF9F5F953089F780930B
:1039D000E90081E00895242F762F50E0CBCF80E0DE
:1039E00008958091330187FF05C012C08091320194
:1039F000882349F08091E80080FFF8CF8091E800AB
:103A00008E778093E8000895809132018823D9F35E
:103A10008091E80082FFF8CF8091E8008B77809357
:103A2000E80008950E94581D0E945B1D8091D800F7
:103A30008F778093D8008091D80080688093D800D9
:103A40008091D8008F7D8093D80084E089BD86E086
:103A500089BD09B400FEFDCF1092320110922E01F3
:103A60001092300110922F0142E260E080E00E944B
:103A7000B21C8091E1008E7F8093E1008091E20092
:103A800081608093E2008091E20088608093E20090
:103A90008091E0008E7F8093E0000895E3E6F0E0FF
:103AA00080818E7F808381E0809331010C94121D90
:103AB0001092E20008951092E10008951F920F9273
:103AC0000FB60F9211242F933F934F935F936F93F1
:103AD0007F938F939F93AF93BF93EF93FF938091C7
:103AE000E10082FF04C08091E20082FD83C08091EA
:103AF000E10080FF04C08091E20080FD66C08091FB
:103B0000E10084FF29C08091E20084FF25C084E0A9
:103B100089BD86E089BD09B400FEFDCF8091D80043
:103B20008F7D8093D8008091E1008F7E8093E100AB
:103B30008091E2008F7E8093E2008091E2008160BC
:103B40008093E20080912E01882309F45BC084E019
:103B5000809332010E94701F8091E10083FF24C096
:103B60008091E20083FF20C08091E100877F8093F5
:103B7000E10082E08093320110922E018091E100F9
:103B80008E7F8093E1008091E2008E7F8093E2003F
:103B90008091E20080618093E20042E260E080E098
:103BA0000E94B21C0E94701FFF91EF91BF91AF91D4
:103BB0009F918F917F916F915F914F913F912F9145
:103BC0000F900FBE0F901F9018958091E2008E7F8E
:103BD0008093E2008091E20080618093E200809116
:103BE000D80080628093D80019BC109232010E94E4
:103BF000701F85CF8091E1008B7F8093E1000E9450
:103C0000CD1F75CF8091E30087FDA1CF81E0A0CFCC
:103C10000F931F93CF93DF93CDB7DEB7AA970FB65D
:103C2000F894DEBF0FBECDBFE3E3F1E08091F10079
:103C3000819321E0EB33F207C9F70E94FD2C8091BC
:103C4000E80083FF09C02091330130913401832FB4
:103C500090E08A309105C8F08091E80083FF0AC0A7
:103C60008091EB0080628093EB008091E800877F79
:103C70008093E800AA960FB6F894DEBF0FBECDBFC2
:103C8000DF91CF911F910F910895FC01E65CFF4FEA
:103C90000C9414312111E0CF809135018230E0F68F
:103CA0009091E800977F9093E80080932E010E9406
:103CB000F11C80912E0181110BC18091E30087FDE1
:103CC00007C181E0809332010E94B51FC5CF203823
:103CD00019F68091E800877F8093E80080912E019B
:103CE0008093F1008091E8008E778093E8000E9435
:103CF000F11CB2CF2058223008F0AECF80913501B0
:103D0000909136018C3D53E0950709F4ACC0AE01AB
:103D10004F5F5F4F609137010E94F430BC01892BE7
:103D200009F49ACF9091E800977F9093E8008981F9
:103D30009A810E94521C8091E8008B778093E80062
:103D40008BCF211189CF109135011F770FB7F894D0
:103D50008091E800877F8093E8000E94F11C8091A9
:103D6000E80080FFFCCF8091E3008078812B809376
:103D7000E30080688093E300111173C082E08093B8
:103D800032010FBF69CF222309F457C0223009F056
:103D900063CF80913501811124C0809137018770F4
:103DA00009F45ACF8093E9009091EB0090FF19C07D
:103DB000333009F48FC09091EB0090619093EB0049
:103DC00021E030E0A90102C0440F551F8A95E2F7B7
:103DD0004093EA001092EA008091EB0088608093A3
:103DE000EB001092E9008091E800877F8093E80063
:103DF0000E94F11C31CF203861F1223809F02CCF1C
:103E00008091370187708093E9008091EB0085FBFA
:103E1000882780F91092E9009091E800977F9093AD
:103E2000E8008093F1001092F1008091E8008E7715
:103E30008093E8000E94F11C0FCF80913501813002
:103E400009F00ACF81E0333009F080E0809330013F
:103E5000C8CF80912F01909130019923E9F28260BF
:103E6000DBCF83E08CCF83E08A838AE289835FB7EC
:103E7000F894DE01139620E03EE041E207C090E0B6
:103E8000C7968D939D932F5F243181F0E32FF0E04F
:103E900040935700849120FF03C082958F703F5F4D
:103EA0008F708A3060F790E0C096EBCF5FBF809153
:103EB000E800877F8093E8006AE270E0CE01019617
:103EC0000E94B61B8091E8008B778093E800C4CEF7
:103ED00084E0F8CE8091EB0080628093EB0081CF8C
:103EE0000895CF9380913201882359F0C091E90061
:103EF000C7701092E9008091E80083FD04C0C09370
:103F0000E900CF9108950E94081EF9CF84B7877FFA
:103F100084BF0FB6F894A895809160008861809363
:103F20006000109260000FBE90E880E00FB6F89439
:103F300090936100809361000FBE52985A9A8AB1A3
:103F400088618AB98BB188618BB990934C010E94CA
:103F500029202FEF80E792E0215080409040E1F748
:103F600000C000005C980C944E1D42E360E882E0C3
:103F70000E94B21C42E361E881E00E94B21CE2EEC2
:103F8000F0E080818460808310925401109255018A
:103F90001092560110925701089580914201882392
:103FA00071F080910F0191E0980F90930F01883C80
:103FB00030F010920F019BB188E089278BB90895EA
:103FC00080913201843009F0089580915001813050
:103FD00039F180915001823029F180915001833074
:103FE00019F180915001843009F1809150018530A0
:103FF000F9F0809150018A30E9F0809150018B30C6
:1040000051F0809150018730D1F08091500188307B
:10401000D9F60C94AA28E0911401F09115010994A5
:104020000C9416220C9480220C94ED230C946C2496
:104030000C94F124E0911E01F0911F0109940C945D
:104040005A270E94861F78940E94E01F0E94711FC9
:10405000FBCF87EF84B98BEF85B980914C019DB57B
:1040600087FD06C09E7F9DBD8F7780658CBD0895BE
:1040700091609DBD8F7780658CBD089587EF84B971
:104080008BEF85B90895CF93DF9300D000D01F92B6
:10409000CDB7DEB719821A821B821C82809149013A
:1040A0008823D9F02898809149018EBD0DB407FE70
:1040B000FDCF3AE13A95F1F700C09FEF9EBD0DB4F8
:1040C00007FEFDCF8EB58D838D81881F8827881FC1
:1040D0008D838D81882391F3289A289880914A01B5
:1040E0008EBD0DB407FEFDCF2FEF85E08A95F1F769
:1040F000000089819A81AB81BC810196A11DB11D0F
:1041000089839A83AB83BC8389819A81AB81BC818B
:1041100080319742A105B10549F02EBD0DB407FECF
:10412000FDCF8EB58D838D8180FDDFCF289A0F90D6
:104130000F900F900F900F90DF91CF910895809185
:1041400041018EBD0DB407FEFDCF80914B0184303F
:1041500041F180914B01833009F45FC080914B01A4
:10416000823009F486C080914B01813009F49EC0F1
:104170002091430130914401809145019091460185
:10418000A0914701B0914801820F931FA11DB11D5D
:104190008093450190934601A0934701B093480155
:1041A00008958091450190914601A0914701B091F9
:1041B00048018B2F9927AA27BB278EBD0DB407FE78
:1041C000FDCF8091450190914601A0914701B091AA
:1041D0004801CD01AA27BB278EBD0DB407FEFDCF38
:1041E0008091450190914601A0914701B09148010D
:1041F000892F9A2FAB2FBB278EBD0DB407FEFDCFA5
:104200008091450190914601A0914701B0914801EC
:104210008EBD0DB407FEFDCFABCF809145019091CF
:104220004601A0914701B0914801CD01AA27BB27C3
:104230008EBD0DB407FEFDCF8091450190914601E2
:10424000A0914701B0914801892F9A2FAB2FBB272E
:104250008EBD0DB407FEFDCF8091450190914601C2
:10426000A0914701B09148018EBD0DB407FEFDCF6E
:104270007FCF8091450190914601A0914701B09177
:104280004801892F9A2FAB2FBB278EBD0DB407FE97
:10429000FDCF8091450190914601A0914701B091D9
:1042A00048018EBD0DB407FEFDCF62CF8091450160
:1042B00090914601A0914701B09148018EBD0DB487
:1042C00007FEFDCF55CF80914B01843081F0809166
:1042D0004B01833009F447C080914B01823009F4CF
:1042E0006EC080914B01813009F486C008958091A1
:1042F000450190914601A0914701B09148018B2F53
:104300009927AA27BB278EBD0DB407FEFDCF80914C
:10431000450190914601A0914701B0914801CD011E
:10432000AA27BB278EBD0DB407FEFDCF80914501A6
:1043300090914601A0914701B0914801892F9A2F91
:10434000AB2FBB278EBD0DB407FEFDCF809145017D
:1043500090914601A0914701B09148018EBD0DB4E6
:1043600007FEFDCF08958091450190914601A091EF
:104370004701B0914801CD01AA27BB278EBD0DB4DE
:1043800007FEFDCF8091450190914601A091470124
:10439000B0914801892F9A2FAB2FBB278EBD0DB44A
:1043A00007FEFDCF8091450190914601A091470104
:1043B000B09148018EBD0DB407FEFDCF08958091E8
:1043C000450190914601A0914701B0914801892F84
:1043D0009A2FAB2FBB278EBD0DB407FEFDCF80916A
:1043E000450190914601A0914701B09148018EBDD1
:1043F0000DB407FEFDCF08958091450190914601CF
:10440000A0914701B09148018EBD0DB407FEFDCFCC
:1044100008952898809158018EBD0DB407FEFDCFF8
:10442000289A089528980895289A0895CF93DF939D
:104430001F92CDB7DEB781E08093E90004C0809180
:10444000E80080FD13C08091540190915501A09126
:104450005601B0915701892B8A2B8B2B81F7109233
:104460005001289A0F90DF91CF9108951EBC809142
:10447000540190915501A0915601B091570181349A
:104480009105A105B10598F180E489832981809186
:10449000540190915501A0915601B0915701821B92
:1044A0009109A109B1098093540190935501A093FA
:1044B0005601B09357018981823068F0898181501B
:1044C00089830DB407FEFDCF8EB58EBD8093F100BC
:1044D0008981823098F70DB407FEFDCF8EB58093A9
:1044E000F1008091E8008E778093E800ACCF809156
:1044F000540190915501A0915601B0915701C5CF3B
:10450000CF92DF92EF92FF920F931F9382E08093FE
:10451000E90000E010E0980104C08091E80082FD0D
:1045200017C08091540190915501A0915601B0910E
:104530005701892B8A2B8B2B81F710925001289AD7
:104540001F910F91FF90EF90DF90CF900C9443203C
:104550008091F200882309F467C09091F1000DB4B6
:1045600007FEFDCF9EBD482F50E060E070E0C09098
:104570005401D0905501E0905601F0905701C416B7
:10458000D506E606F70660F44091540150915501B6
:104590006091560170915701842F55276627772720
:1045A000C0905401D0905501E0905601F090570111
:1045B000C41AD50AE60AF70AC0925401D0925501EE
:1045C000E0925601F0925701040F151F261F371F66
:1045D000813049F09091F10081500DB407FEFDCF7C
:1045E0009EBD8130B9F78091E8008B778093E80019
:1045F0008091430190914401A0E0B0E080179107C1
:10460000A207B30709F08DCF809154019091550115
:10461000A0915601B0915701892B8A2B8B2B51F415
:1046200000E010E098017DCF8091E8008B778093C7
:10463000E80077CF289A0E9443202898809158015B
:104640008EBD0DB407FEFDCF289A289880914101B8
:104650008EBD0DB407FEFDCF80914B01843059F122
:1046600080914B01833009F48CC080914B018230E2
:1046700009F46AC080914B01813009F458C020913F
:104680004301309144018091450190914601A091F0
:104690004701B0914801820F931FA11DB11D809366
:1046A000450190934601A0934701B093480100E073
:1046B00010E0980136CF8091450190914601A0917C
:1046C0004701B09148018B2F9927AA27BB278EBDA0
:1046D0000DB407FEFDCF8091450190914601A09158
:1046E0004701B0914801CD01AA27BB278EBD0DB46B
:1046F00007FEFDCF8091450190914601A0914701B1
:10470000B0914801892F9A2FAB2FBB278EBD0DB4D6
:1047100007FEFDCF8091450190914601A091470190
:10472000B09148018EBD0DB407FEFDCFA8CF80919A
:10473000450190914601A0914701B09148018EBD7D
:104740000DB407FEFDCF9BCF8091450190914601AE
:10475000A0914701B0914801892F9A2FAB2FBB2719
:104760008EBD0DB407FEFDCF8091450190914601AD
:10477000A0914701B09148018EBD0DB407FEFDCF59
:104780007ECF8091450190914601A0914701B09163
:104790004801CD01AA27BB278EBD0DB407FEFDCF72
:1047A0008091450190914601A0914701B091480147
:1047B000892F9A2FAB2FBB278EBD0DB407FEFDCFDF
:1047C0008091450190914601A0914701B091480127
:1047D0008EBD0DB407FEFDCF52CF82E08093E9007D
:1047E00004C08091E80085FD0EC080915401909135
:1047F0005501A0915601B0915701892B8A2B8B2B23
:1048000081F7289A08958091E80082FFEECF809189
:10481000540190915501A0915601B09157018134F6
:104820009105A105B10508F04DC04091540150918A
:1048300055016091560170915701242F442309F4CA
:1048400047C055276627772780E028989091410137
:104850009EBD0DB407FEFDCF9091F1009EBD0DB43D
:1048600007FEFDCF289A95E39A95F1F700008F5F38
:10487000821758F38091540190915501A0915601EF
:10488000B0915701841B950BA60BB70B8093540175
:1048900090935501A0935601B09357018091540114
:1048A00090915501A0915601B0915701892B8A2B07
:1048B0008B2B11F4109250018091E8008B7780933C
:1048C000E80093CF40E450E060E070E020E4BCCF2B
:1048D00040E050E0BA01CECF82E08093E90004C00E
:1048E0008091E80085FD0EC08091540190915501A2
:1048F000A0915601B0915701892B8A2B8B2B81F700
:10490000289A08958091E80082FFEECF80915401AB
:1049100090915501A0915601B091570181349105B4
:10492000A105B10508F053C04091540150915501C3
:104930006091560170915701242F442309F44DC012
:1049400055276627772780E02898909141019EBDE2
:104950000DB407FEFDCF9091F1009EBD0DB407FE92
:10496000FDCF9091F1009EBD0DB407FEFDCF289ABA
:1049700095E39A95F1F700008E5F821728F38091F6
:10498000540190915501A0915601B0915701841B9B
:10499000950BA60BB70B8093540190935501A093F0
:1049A0005601B09357018091540190915501A09107
:1049B0005601B0915701892B8A2B8B2B11F4109241
:1049C00050018091E8008B778093E8008DCF40E420
:1049D00050E060E070E020E4B6CF40E050E0BA0183
:1049E000CECF82E08093E90004C08091E80085FD8D
:1049F0000DC08091540190915501A0915601B09144
:104A00005701892B8A2B8B2B81F708958091E80021
:104A100082FFEFCF8091540190915501A0915601F2
:104A2000B091570181349105A105B10508F041C04D
:104A30004091540150915501609156017091570178
:104A4000242F4423E1F155276627772780E09091B2
:104A5000F1009EBD0DB407FEFDCF8F5F8217B8F346
:104A60008091540190915501A0915601B091570148
:104A7000841B950BA60BB70B8093540190935501A3
:104A8000A0935601B0935701809154019091550124
:104A9000A0915601B0915701892B8A2B8B2B19F4C9
:104AA00010925001289A8091E8008B778093E8005B
:104AB000A0CF40E450E060E070E020E4C7CF40E0E9
:104AC00050E0BA01CDCF1CBC8FEF84B981E085B92D
:104AD00029980895299A2998089522982398279823
:104AE00026980895229A239A279A269A089598E05C
:104AF00080E0880F1B998F5F299A29989150C9F7F8
:104B000008951B9B18C080E81A998064299A2998F7
:104B10001B9980621A998061299A29981B9988604B
:104B20001A998460299A29981B9982601A99816040
:104B3000299A2998089580E0E7CF1E9B0AC088E053
:104B40001F990AC01B9982601A998160299A299835
:104B5000089580E01F9BF6CF8460F4CFCF930E942E
:104B60009D25C82FC295C07F0E949D258C2BCF917B
:104B7000089598E006C02A98880F299A299891509C
:104B800041F087FFF8CF2A9A880F299A29989150E7
:104B9000C1F7089587FD3BC02B9886FF1CC02A9A59
:104BA000299A299885FF1CC02B9A84FF1CC02A9A39
:104BB000299A299883FF1CC02B9A82FF1CC02A9A2D
:104BC000299A299881FF1CC02B9A80FD1CC02A9825
:104BD000299A299808952A98299A299885FDE4CF39
:104BE0002B9884FDE4CF2A98299A299883FDE4CF55
:104BF0002B9882FDE4CF2A98299A299881FDE4CF49
:104C00002B9880FFE4CF2A9A299A299808952B9A05
:104C1000C4CF87FD33C02E9886FF18C02F9A85FF1A
:104C200018C02B9A84FF18C02A9A299A299883FFC2
:104C300018C02E9A82FF18C02F9A81FF18C02B9A95
:104C400080FD18C02A98299A299808952F9885FDE3
:104C5000E8CF2B9884FDE8CF2A98299A299883FDDC
:104C6000E8CF2E9882FDE8CF2F9881FDE8CF2B98D2
:104C700080FFE8CF2A9A299A299808952E9ACCCFB6
:104C8000AF92BF92CF92DF92EF92FF920F931F935A
:104C9000CF93DF93CDB7DEB7C054D1090FB6F894E8
:104CA000DEBF0FBECDBF8091E800877F8093E80014
:104CB00080913501E0903901F0903A0122982398D3
:104CC00027982698813031F18230E1F1843009F45F
:104CD00051C0CE0101966C010E941422B7017727C2
:104CE000C6010E94B61B8091E8008B778093E80094
:104CF000C05CDF4F0FB6F894DEBF0FBECDBFDF91B3
:104D0000CF911F910F91FF90EF90DF90CF90BF90C8
:104D1000AF900895EE20E9F2FE0131966F018F0108
:104D2000AA24AA94AE0CB12CFFEFAF1ABF0AAC0CA8
:104D3000BD1C0E947725F80181938F01EA15FB05C0
:104D4000C1F7CACFEE2029F2FE0131966F018F0123
:104D5000AA24AA94AE0CB12CFFEFAF1ABF0AAC0C78
:104D6000BD1C0E948125F80181938F01EA15FB0586
:104D7000C1F7B2CFEE20B1F0CE0101966C018C01EB
:104D8000AA24AA94AE0CB12C9FEFA91AB90AAC0CB4
:104D9000BD1C0E94AE25F80181938F01EA15FB0529
:104DA000C1F79ACFFE0131966F0196CFCF92DF9275
:104DB000EF92FF920F931F93CF93DF93CDB7DEB7A0
:104DC000C054D1090FB6F894DEBF0FBECDBF80919D
:104DD000E800877F8093E800229A239A279A269AF0
:104DE0000E94122210913501E0903901F0903A01B1
:104DF000B7017727CE0101960E94151C1130D1F022
:104E0000123069F1143009F43FC08091E8008E77C8
:104E10008093E800C05CDF4F0FB6F894DEBF0FBE92
:104E2000CDBFDF91CF911F910F91FF90EF90DF9059
:104E3000CF900895EE2049F38E010F5F1F4FEA9443
:104E4000F12C8FEFE81AF80AE00EF11EF8018191BB
:104E50008F010E94B9250E151F05C1F7D6CFEE2090
:104E6000A1F2CE0101966C01EA940E2D10E00F5FC5
:104E70001F4F080F191FF60181916F010E94CA256B
:104E8000C016D106C1F7C1CFEE2009F4BECFCE01C6
:104E900001966C01EA940E2D10E00F5F1F4F080F72
:104EA000191FF60181916F010E940926C016D106D3
:104EB000C1F7ABCFCF93DF9381E08093E90004C0CB
:104EC0008091E80080FD12C08091540190915501BD
:104ED000A0915601B0915701892B8A2B8B2B81F71A
:104EE00010925001DF91CF910C94142280915401C3
:104EF00090915501A0915601B091570181349105CF
:104F0000A105B10520F18091540190915501A09126
:104F10005601B091570180549109A109B1098093BC
:104F2000540190935501A0935601B093570180917D
:104F30004F01843009F446C080914F01823009F45A
:104F400043C08091E8008E778093E800BDCF409108
:104F50005401509155016091560170915701D42F21
:104F60008091540190915501A0915601B091570143
:104F7000841B9109A109B1098093540190935501B3
:104F8000A0935601B093570180914F01843079F07E
:104F900080914F018230A9F6442399F2C0E00E942B
:104FA00081258093F100CF5FCD13F9CFCACF442381
:104FB00041F2C0E00E94AE258093F100CF5FCD1793
:104FC000C8F3BFCFD0E4F5CFD0E4E8CF9091530140
:104FD000913029F090915301923039F008959091D9
:104FE0004F01943021F00C94CA250C94B9250C94EF
:104FF000092680915301813031F080915301823034
:1050000041F080E0089580914F01843021F00C94AC
:1050100081250C9477250C94AE250E941222229AA9
:10502000239A279A269A80914901811112C0809172
:105030004A010E94E62722982398279826988AE119
:105040008A95F1F700C00E94F92780FDFCCF0C94EF
:105050001422809149010E94E627229823982798DC
:1050600026988AE18A95F1F700C00E94F92787FF08
:10507000FCCF0E9414220E941222229A239A279A7D
:10508000269AD5CF229A239A279A269A0E941222EC
:10509000809158010E94E6270C94142280914B01C4
:1050A000843029F080914B01833061F00895809124
:1050B000450190914601A0914701B09148018B2F85
:1050C0000E94E62760914501709146018091470159
:1050D000909148010E94E6278091450190914601F8
:1050E000A0914701B0914801892F0E94E627809145
:1050F000450190914601A0914701B09148010C945F
:10510000E627229A239A279A269A87EC90E001971D
:10511000F1F700C00000809141010E94E6270E9443
:105120004E28209143013091440180914501909196
:105130004601A0914701B0914801820F931FA11D24
:10514000B11D8093450190934601A0934701B09310
:10515000480108958F929F92AF92BF92CF92DF92B3
:10516000EF92FF92CF93DF9382E08093E900812C4E
:10517000912C540104C08091E80082FD1CC08091F4
:10518000540190915501A0915601B0915701892B7E
:105190008A2B8B2B81F7109250010E941422DF91F1
:1051A000CF91FF90EF90DF90CF90BF90AF909F9006
:1051B0008F900C940D28C091F200CC2389F1CC2E55
:1051C000D12CE12CF12C8091540190915501A091AA
:1051D0005601B09157018C159D05AE05BF0530F500
:1051E000C0905401D0905501E0905601F0905701C5
:1051F000CC2D80914F01843009F45AC0DD24EE2477
:10520000FF2480914F018230D1F4CC23C1F0D0E053
:105210008091F1000E94CA25DF5FDC13F9CF0FC037
:105220008091E8008B778093E800A9CF80914F01AF
:10523000843009F442C080914F01823041F38C0CDC
:105240009D1CAE1CBF1C8091540190915501A091F2
:105250005601B09157018C199D09AE09BF09809381
:10526000540190935501A0935601B093570180913A
:10527000E8008B778093E80080914301909144018E
:10528000A0E0B0E088159905AA05BB0509F077CF25
:105290008091540190915501A0915601B091570110
:1052A000892B8A2B8B2B91F4812C912C540167CF65
:1052B000CC20D1F0DD24EE24FF24D0E08091F10059
:1052C0000E940926DF5FDC17C8F3B9CF0E941422C1
:1052D0000E940D280E9442280E9412220E948128CA
:1052E000812C912C54014BCFC12CD12C7601A7CF0E
:1052F000E3E3F1E082819381A0E0B0E0DC01992753
:10530000882724813581820F931FA11DB11D8093B1
:10531000540190935501A0935601B093570185E035
:10532000809350010E941222E8EEF0E08081877F96
:1053300080830C94F11C6F927F928F929F92AF9218
:10534000BF92CF92DF92EF92FF920F931F93CF9372
:10535000DF93CDB7DEB7ADB6BEB68091E800877FEC
:105360008093E800F0903501E0903601C09039015B
:10537000D0903A0100913701109138018DB79EB756
:105380008C199D090FB6F8949EBF0FBE8DBFEDB767
:10539000FEB731964F01809102010E94F2008230E7
:1053A00009F455C00230110509F446C00130110559
:1053B00009F449C0809102018F5F0E94E800C11486
:1053C000D104B1F07401612C712C06C00E942B0134
:1053D000F70181937F01380183010F5F1F4F0C1587
:1053E0001D05A1F70E942901F401E60DF71D808338
:1053F0000E940501B601C4010E94B61B8091E8001D
:105400008B778093E8000FB6F894BEBE0FBEADBE9A
:105410000FB6F894BEBE0FBEADBEDF91CF911F9107
:105420000F91FF90EF90DF90CF90BF90AF909F9043
:105430008F907F906F9008958E2D0E940D018F2D7B
:105440000E940D01B7CF8F2D0E940D01B3CF60E0F8
:1054500070E0D1CF8F929F92AF92BF92CF92DF92A6
:10546000EF92FF920F931F93CF93DF93CDB7DEB7E9
:10547000CDB6DEB68091E800877F8093E8009090FB
:10548000350180903601E0903901F0903A01A0900A
:105490003701B09038018DB79EB78E199F090FB6AE
:1054A000F8949EBF0FBE8DBF0DB71EB70F5F1F4F85
:1054B000B701C8010E94151C809102010E94F200F0
:1054C00092E0A916B10449F1AA94AB2849F1E1147C
:1054D000F10451F0E00EF11EF80181918F010E945C
:1054E0000D010E151F05C1F70E9405018091E8000E
:1054F0008E778093E8000FB6F894DEBE0FBECDBE67
:10550000DF91CF911F910F91FF90EF90DF90CF909F
:10551000BF90AF909F908F900895882D0E940D01AD
:10552000892D0E940D01D3CF0F931F93CF93DF934B
:10553000CDB7DEB7C054D1090FB6F894DEBF0FBEA9
:10554000CDBF8091E800877F8093E8000E941222FF
:105550000091390110913A01B801CE0101960E94E3
:10556000151C0115110569F0FE0131969F01200FF0
:10557000311F81918EBD0DB407FEFDCFE217F307F9
:10558000C1F78091E8008E778093E800C05CDF4F20
:105590000FB6F894DEBF0FBECDBFDF91CF911F9144
:1055A0000F910895EF92FF920F931F93CF93DF9384
:1055B000CDB7DEB7C054D1090FB6F894DEBF0FBE29
:1055C000CDBF8091E800877F8093E800E0903901AB
:1055D000F0903A018E010F5F1F4FE114F10471F05A
:1055E000F801A8014E0D5F1D2FEF2EBD0DB407FE73
:1055F000FDCF9EB59193E417F507B9F70E941422E9
:10560000B701C8010E94B61B8091E8008B77809398
:10561000E800C05CDF4F0FB6F894DEBF0FBECDBF11
:10562000DF91CF911F910F91FF90EF900895FC01B2
:105630008081809341018181809358018281809390
:105640004A01838180934901848180934B01858144
:1056500090E0982F88272681822B90934401809395
:1056600043012781808590E0A0E0B0E0DC0199272C
:105670008827B22B2285822B2185922B809345018E
:1056800090934601A0934701B093480123858485F8
:1056900090E0A0E0B0E0BA2FA92F982F8827A22B86
:1056A0002585822B8093540190935501A093560138
:1056B000B0935701868580935301878580934F016E
:1056C00008950F931F93CF93DF93CDB7DEB7609705
:1056D0000FB6F894DEBF0FBECDBF60913901709157
:1056E0003A0108EE10E0F8018081877F8083CE01C7
:1056F00001960E94151CCE0101960E94172B0E9454
:1057000042280E9412220E948128F80180818E770F
:10571000808388E08093500160960FB6F894DEBFD6
:105720000FBECDBFDF91CF911F910F9108950F93C1
:105730001F93CF93DF93CDB7DEB760970FB6F89482
:10574000DEBF0FBECDBF6091390170913A0108EE06
:1057500010E0F8018081877F8083CE0101960E944E
:10576000151CCE0101960E94172B0E9409220E944F
:1057700012220E949F20F80180818E77808382E030
:105780008093500160960FB6F894DEBF0FBECDBF78
:10579000DF91CF911F910F910895FC01808180933B
:1057A0004001818180934B012281838190E0A0E0C0
:1057B000B0E0DC0199278827B22B2581822B248138
:1057C000922B8093450190934601A0934701B0939B
:1057D00048012681878190E0A0E0B0E0BA2FA92F90
:1057E000982F8827A22B2085822B80935401909399
:1057F0005501A0935601B0935701818590E0909395
:105800004E0180934D01828580935301838580935F
:105810004F0108950F931F93CF93DF93CDB7DEB75A
:105820002C970FB6F894DEBF0FBECDBF8091E80075
:10583000877F8093E8006091390170913A01CE0131
:1058400001960E94151CCE0101960E94CD2B0E944C
:1058500012220E94722585E08A95F1F7000080915E
:1058600040010E94E6270E944E280E946D2585E097
:105870008A95F1F7000080914D0190914E01892B9E
:1058800069F000E010E00E946A250F5F1F4F8091D1
:105890004D0190914E0108171907A8F38091E80077
:1058A0008E778093E80087E0809350012C960FB6A6
:1058B000F894DEBF0FBECDBFDF91CF911F910F9146
:1058C0000895CF93DF93CDB7DEB72C970FB6F8943A
:1058D000DEBF0FBECDBF8091E800877F8093E800D8
:1058E0006091390170913A01CE0101960E94151C18
:1058F000CE0101960E94CD2B0E9412228091400180
:105900008EBD0DB407FEFDCF0E94632180914D0135
:1059100090914E01892B81F080E090E04FEF4EBDD9
:105920000DB407FEFDCF2EB5089620914D013091A4
:105930004E018217930798F38091E8008E77809349
:10594000E80081E0809350012C960FB6F894DEBFFA
:105950000FBECDBFDF91CF910895FC0123818281DD
:1059600090E0A0E0B0E0DC0199278827B22B2081ED
:10597000822B2181922B8093450190934601A09325
:105980004701B09348012781868190E0A0E0B0E014
:10599000DC0199278827B22B2481822B2581922B29
:1059A0008093540190935501A0935601B0935701F1
:1059B000818590E0982F88272085822B9093520133
:1059C00080935101838590E0982F88272285822B30
:1059D0009093440180934301848580933D018585A4
:1059E00080934B01878590E0982F88272685822B0E
:1059F00090933C0180933B010895CF93DF93CDB703
:105A0000DEB760970FB6F894DEBF0FBECDBFE09152
:105A100034018E2F90E0FC01E057F109EB35F105E0
:105A2000D0F4EC5BFF4F0C9414318091E800877F39
:105A30008093E80080E70E9404120E94B1188983D5
:105A400061E070E0CE0101960E94B61B8091E800F3
:105A50008B778093E80060960FB6F894DEBF0FBE98
:105A6000CDBFDF91CF9108958091E800877F80932B
:105A7000E8008091370190913801009709F0D1C278
:105A800082E49FE090932901809328018091E800AF
:105A90008E778093E800DFCF0E94AE0F8091E80000
:105AA000877F8093E8000E94F11CD5CF2E988091CB
:105AB000E800877F8093E8000E94F11CCCCF2E9AEB
:105AC0008091E800877F8093E8000E94F11CC3CF9B
:105AD0008091E800877F8093E80080913701909162
