:100000000C94E4000C9401010C9401010C94010186
:100010000C9401010C9401010C9401010C94010158
:100020000C9401010C9401010C9401010C942C23FB
:100030000C9401010C9401010C9401010C94010138
:100040000C9401010C9401010C9401010C94010128
:100050000C9401010C9401010C9401010C94010118
:100060000C9401010C9401010C9401010C94010108
:100070000C940101FB23242418252424182565242D
:1000800089241825E324F424B22FD730D730D73071
:10009000D730D730D730D730D730D730D730D73028
:1000A000D730D730D730D730D730D730D730D73018
:1000B000D730D730D730D730D730D730D730D73008
:1000C000D730D730D730D730D730D730C12FBE2F29
:1000D000C42FDA2FD52FD02FEC2FE72FE22FF12FBF
:1000E000DF2FD730D7301F3032305F30A130B430FF
:1000F000D730D730D730D730D730D730D730D730C8
:10010000D730D730D730D730D730D730D730D730B7
:10011000D730D730D730D730D730D730D730D730A7
:10012000D730D730D730D730D730F42FFA2FD73059
:10013000D7300030043008300F30D730D730D730C8
:10014000D730D730D730B52FB82FBB2FD730D730D7
:10015000D730D730D730D730D730D730D730D73067
:10016000D730D730D730AF2FA62FA92FAC2FD7300D
:10017000D730CD2FD730D730D730D730D730D73052
:10018000D730D730D730C72FCA2FD730D730D73056
:10019000163019301C30090220000101008064096A
:1001A00004000002000000000705020240000007F2
:1001B0000581024000001201000200000020C0166C
:1001C000DD0501000000000111241FBEC0E0D2E0E7
:1001D000DEBFCDBF11E0A0E0B1E0E6E0F2E602C094
:1001E00005900D92AA30B107D9F722E0AAE0B1E05C
:1001F00001C01D92A238B207E1F70E9441270C947A
:1002000001310C9400000E949D0330E242E080E046
:1002100058E866E070E090E0A0E0B0E00E941101D4
:10022000089521E0769567955795479508F42260E3
:10023000B695A7959795879508F4286025B9D3B802
:100240003A9579F708950E94240402C00E94F703AA
:10025000A0FBA1F8A5B8D3B8A1FBA1F8A5B8D3B865
:10026000A2FBA1F8A5B8D3B8A3FBA1F8A5B8D3B851
:10027000A4FBA1F8A5B8D3B8A5FBA1F8A5B8D3B83D
:10028000A6FBA1F8A5B8D3B8A7FBA1F8A5B8D3B829
:10029000B0FBA1F8A5B8D3B8B1FBA1F8A5B8D3B805
:1002A000B2FBA1F8A5B8D3B8B3FBA1F8A5B8D3B8F1
:1002B000B4FBA1F8A5B8D3B8B5FBA1F8A5B8D3B8DD
:1002C000B6FBA1F8A5B8D3B8B7FBA1F8A5B8D3B8C9
:1002D000C0FBA1F8A5B8D3B8C1FBA1F8A5B8D3B8A5
:1002E000C2FBA1F8A5B8D3B8C3FBA1F8A5B8D3B891
:1002F000C4FBA1F8A5B8D3B8C5FBA1F8A5B8D3B87D
:10030000C6FBA1F8A5B8D3B8C7FBA1F8A5B8D3B868
:10031000D0FBA1F8A5B8D3B8D1FBA1F8A5B8D3B844
:10032000D2FBA1F8A5B8D3B8D3FBA1F8A5B8D3B830
:10033000D4FBA1F8A5B8D3B8D5FBA1F8A5B8D3B81C
:10034000D6FBA1F8A5B8D3B8D7FBB1F8B5B8D3B8E8
:1003500035B8D3B835B8D3B861FF08950E94CA0341
:1003600025B8D3B845B8D3B825B8D3B825B8D3B8CD
:1003700060FBA1F8A5B8D3B825B8D3B825B8D3B8D1
:1003800025B8D3B845B8D3B825B8D3B825B8D3B8AD
:1003900045B8D3B825B8D3B825B8D3B825B8D3B89D
:1003A00045B8D3B825B8D3B845B8D3B845B8D3B84D
:1003B00025B8D3B825B8D3B825B8D3B825B8D3B89D
:1003C00025B8D3B825B8D3B825B8D3B825B8D3B88D
:1003D00025B8D3B825B8D3B825B8D3B825B8D3B87D
:1003E00035B8D3B835B8D3B835B8D3B808950E9466
:1003F000F70325B8D3B825B8D3B825B8D3B825B8EE
:10040000D3B825B8D3B825B8D3B845B8D3B825B82C
:10041000D3B825B8D3B825B8D3B825B8D3B825B83C
:10042000D3B825B8D3B825B8D3B825B8D3B825B82C
:10043000D3B825B8D3B825B8D3B825B8D3B825B81C
:10044000D3B825B8D3B825B8D3B845B8D3B825B8EC
:10045000D3B825B8D3B825B8D3B825B8D3B825B8FC
:10046000D3B825B8D3B825B8D3B825B8D3B835B8DC
:10047000D3B835B8D3B835B8D3B846C00E94F7035F
:1004800025B8D3B825B8D3B825B8D3B825B8D3B8CC
:1004900025B8D3B845B8D3B825B8D3B845B8D3B87C
:1004A00025B8D3B825B8D3B825B8D3B825B8D3B8AC
:1004B00025B8D3B825B8D3B825B8D3B825B8D3B89C
:1004C00025B8D3B825B8D3B825B8D3B825B8D3B88C
:1004D00025B8D3B845B8D3B825B8D3B845B8D3B83C
:1004E00025B8D3B825B8D3B825B8D3B825B8D3B86C
:1004F00025B8D3B825B8D3B825B8D3B835B8D3B84C
:1005000035B8D3B835B8D3B80E94CA0325B8D3B824
:1005100045B8D3B825B8D3B825B8D3B845B8D3B8FB
:1005200025B8D3B825B8D3B845B8D3B825B8D3B80B
:1005300025B8D3B825B8D3B845B8D3B825B8D3B8FB
:1005400025B8D3B825B8D3B845B8D3B825B8D3B8EB
:1005500045B8D3B845B8D3B825B8D3B825B8D3B8BB
:1005600025B8D3B825B8D3B825B8D3B825B8D3B8EB
:1005700025B8D3B825B8D3B825B8D3B825B8D3B8DB
:1005800025B8D3B825B8D3B835B8D3B835B8D3B8AB
:1005900035B8D3B80E94F7037A2D62FF21C07B2DB6
:1005A00025B8D3B825B8D3B825B8D3B825B8D3B8AB
:1005B00025B8D3B825B8D3B825B8D3B825B8D3B89B
:1005C00025B8D3B825B8D3B825B8D3B825B8D3B88B
:1005D00025B8D3B825B8D3B825B8D3B825B8D3B87B
:1005E00020FBA1F8A5B8D3B821FBA1F8A5B8D3B8D2
:1005F00022FBA1F8A5B8D3B823FBA1F8A5B8D3B8BE
:1006000024FBA1F8A5B8D3B825FBA1F8A5B8D3B8A9
:1006100026FBA1F8A5B8D3B827FBA1F8A5B8D3B895
:1006200030FBA1F8A5B8D3B831FBA1F8A5B8D3B871
:1006300032FBA1F8A5B8D3B833FBA1F8A5B8D3B85D
:1006400034FBA1F8A5B8D3B835FBA1F8A5B8D3B849
:1006500036FBA1F8A5B8D3B837FB71F975B9D3B893
:1006600062FD20C025B8D3B825B8D3B825B8D3B813
:1006700025B8D3B825B8D3B825B8D3B825B8D3B8DA
:1006800025B8D3B825B8D3B825B8D3B825B8D3B8CA
:1006900025B8D3B825B8D3B825B8D3B825B8D3B8BA
:1006A00035B8D3B835B8D3B835B8D3B80E94CA0373
:1006B00025B8D3B845B8D3B825B8D3B825B8D3B87A
:1006C00025B8D3B825B8D3B825B8D3B845B8D3B86A
:1006D00025B8D3B825B8D3B825B8D3B845B8D3B85A
:1006E00025B8D3B825B8D3B825B8D3B845B8D3B84A
:1006F00025B8D3B845B8D3B845B8D3B825B8D3B81A
:1007000025B8D3B825B8D3B825B8D3B825B8D3B849
:1007100025B8D3B825B8D3B825B8D3B825B8D3B839
:1007200025B8D3B825B8D3B825B8D3B835B8D3B819
:1007300035B8D3B835B8D3B808950091200135B88D
:10074000D3B825B8D3B825B8D3B8045091F045B87C
:10075000D3B845B8D3B825B8D3B845B8D3B80A95F7
:1007600021F025B8D3B80C94AF0335B8D3B80C94A6
:10077000C10345B8D3B845B8D3B825B8D3B855B830
:10078000D3B835B8D3B835B8D3B825B8D3B825B8A9
:10079000D3B808950091200135B8D3B825B8D3B89F
:1007A00025B8D3B8045091F025B8D3B845B8D3B81C
:1007B00025B8D3B845B8D3B80A9521F025B8D3B831
:1007C0000C94DC0335B8D3B80C94EE0325B8D3B839
:1007D00045B8D3B825B8D3B855B8D3B835B8D3B819
:1007E00035B8D3B825B8D3B825B8D3B80895009193
:1007F000200135B8D3B825B8D3B825B8D3B804503C
:1008000091F045B8D3B825B8D3B825B8D3B845B812
:10081000D3B80A9521F025B8D3B80C94090435B89B
:10082000D3B80C941B0445B8D3B825B8D3B825B8B1
:10083000D3B855B8D3B835B8D3B835B8D3B825B8C8
:10084000D3B825B8D3B808950091200135B8D3B8EE
:1008500025B8D3B825B8D3B8045091F025B8D3B88B
:1008600025B8D3B825B8D3B845B8D3B80A9521F080
:1008700025B8D3B80C94360435B8D3B80C944804D2
:1008800025B8D3B825B8D3B825B8D3B855B8D3B898
:1008900035B8D3B835B8D3B825B8D3B825B8D3B898
:1008A00008952F923F924F925F926F92AF92BF92B4
:1008B000CF92DF92CF93DF93EF93FF9371E0272ED8
:1008C00079E0372E73E0472E7BE0572E70E1D72E6C
:1008D00071E0A72E79E0B72EFC01A0912E01B09116
:1008E0002F01C0913001D0913101562F452F4695EF
:1008F00046951497C109D109411511F40C94670567
:1009000066270E94230166270E9423011496C11DB9
:10091000D11D0E94CA0325B8D3B845B8D3B825B8AD
:10092000D3B825B8D3B845B8D3B825B8D3B825B807
:10093000D3B825B8D3B845B8D3B845B8D3B825B8D7
:10094000D3B845B8D3B825B8D3B825B8D3B825B8E7
:10095000D3B845B8D3B825B8D3B845B8D3B845B897
:10096000D3B825B8D3B825B8D3B825B8D3B825B8E7
:10097000D3B825B8D3B825B8D3B825B8D3B825B8D7
:10098000D3B825B8D3B825B8D3B825B8D3B825B8C7
:10099000D3B835B8D3B835B8D3B835B8D3B8709163
:1009A0007A027A95F1F70E94F703A5B82227D3B807
:1009B000A5B81A992160D3B8A5B81A992260D3B8FE
:1009C000A5B81A992460D3B8A5B81A992860D3B8E5
:1009D000A5B81A992061D3B8A5B81A992062D3B8DE
:1009E000A5B81A992064D3B8A5B81A99206821939C
:1009F0002227D3B8A5B81A992160D3B8A5B81A99F7
:100A00002260D3B8A5B81A992460D3B8A5B81A99AA
:100A10002860D3B8A5B81A992061D3B8A5B81A9997
:100A20002062D3B8A5B81A992064D3B8A5B81A998A
:100A3000206821932227D3B8A5B81A992160D3B88A
:100A4000A5B81A992260D3B8A5B81A992460D3B86A
:100A5000A5B81A992860D3B8A5B81A992061D3B857
:100A6000A5B81A992062D3B8A5B81A992064D3B84A
:100A7000A5B81A99206821932227D3B8A5B81A9946
:100A80002160D3B8A5B81A992260D3B8A5B81A992D
:100A90002460D3B8A5B81A992860D3B8A5B81A9914
:100AA0002061D3B8A5B81A992062D3B8A5B81A990D
:100AB0002064D3B8B5B81A992068D3B8219335B853
:100AC000D3B835B8D3B84A9511F00C948304FC011F
:100AD000452F71E07093E9007091E80075FFFCCF3D
:100AE000411529F021912093F1004A95D9F7709191
:100AF000E8007F777093E800FF91EF91DF91CF914D
:100B0000DF90CF90BF90AF906F905F904F903F90ED
:100B10002F9008952F923F924F925F92AF92BF9283
:100B2000CF92DF92CF93DF93EF93FF9371E0272E65
:100B300079E0372E73E0472E7BE0572E70E1D72EF9
:100B400071E0A72E79E0B72EA0912E01B0912F0170
:100B5000C0913001D0913101562F452F1497C10912
:100B6000D10966270E94230163E072E07093E900D7
:100B70007091E80072FFFCCF7091E80075FFFCCF28
:100B8000FC012091F10021934A95D9F77091E8007A
:100B90007B7F7093E8007091E8007F777093E800A6
:100BA000452F46954695FC01A191B191C191D191F6
:100BB0000E9426014A95C1F7FF91EF91DF91CF91F5
:100BC000DF90CF90BF90AF905F904F903F902F906D
:100BD00008952F923F924F925F92AF92BF92CF9221
:100BE000DF92CF93DF93EF93FF9371E0272E79E0AD
:100BF000372E73E0472E7BE0572E70E1D72E71E041
:100C0000A72E79E0B72EA0912E01B0912F01C091AF
:100C10003001D09131011497C109D109562F452FC8
:100C200072E07093E9007091E80072FFFCCF709160
:100C3000E80075FFFCCFFC012091F10021934A955B
:100C4000D9F7452FFC0166270E942301219131919C
:100C5000329664E00E94F701709176017A95F1F77F
:100C6000445011F00C942606452FFC011296C11D2C
:100C7000D11D66270E94230132962191319160E0B7
:100C80000E94F701709176017A95F1F7445011F0C6
:100C90000C943C067091E8007B7F7093E8007091A3
:100CA000E8007F777093E800FF91EF91DF91CF919B
:100CB000DF90CF90BF90AF905F904F903F902F907C
:100CC00008952F923F924F925F92AF92BF92CF9230
:100CD000DF92CF93DF93EF93FF9371E0272E79E0BC
:100CE000372E73E0472E7BE0572E70E1D72E71E050
:100CF000A72E79E0B72EA0912E01B0912F01C091BF
:100D00003001D09131011497C109D109562F452FD7
:100D100072E07093E9007091E80072FFFCCF70916F
:100D2000E80075FFFCCFFC012091F10021934A956A
:100D3000D9F7452FFC0166270E94230121913191AB
:100D4000329664E00E943E02709180027A95F1F73B
:100D5000445011F00C949E06452FFC011296C11DC3
:100D6000D11D66270E94230132962191319160E0C6
:100D70000E943E02709180027A95F1F7445011F082
:100D80000C94B4067091E8007B7F7093E80070913A
:100D9000E8007F777093E800FF91EF91DF91CF91AA
:100DA000DF90CF90BF90AF905F904F903F902F908B
:100DB00008952F923F924F925F92AF92BF92CF923F
:100DC000DF92CF93DF93EF93FF9371E0272E79E0CB
:100DD000372E73E0472E7BE0572E70E1D72E71E05F
:100DE000A72E79E0B72EA0912E01B0912F01C091CE
:100DF0003001D0913101562F452F72E07093E900F8
:100E00007091E80072FFFCCF7091E80075FFFCCF95
:100E1000FC012091F10021934A95D9F7452F469581
:100E20004695FC010E94860881919191BC010E9427
:100E30003F071296C11DD11D0E94860861917191D4
:100E4000CB010E943F071296C11DD11D4A9551F753
:100E50007091E8007B7F7093E8007091E8007F77E5
:100E60007093E800FF91EF91DF91CF91DF90CF90E9
:100E7000BF90AF905F904F903F902F9008950E9449
:100E80009D0325B8D3B845B8D3B825B8D3B825B88D
:100E9000D3B825B8D3B825B8D3B825B8D3B845B892
:100EA000D3B825B8D3B825B8D3B825B8D3B845B882
:100EB000D3B825B8D3B825B8D3B825B8D3B845B872
:100EC000D3B825B8D3B845B8D3B845B8D3B825B842
:100ED000D3B825B8D3B825B8D3B825B8D3B825B872
:100EE000D3B825B8D3B825B8D3B825B8D3B825B862
:100EF000D3B825B8D3B825B8D3B825B8D3B825B852
:100F0000D3B860FBA1F8A5B8D3B861FBA1F8A5B828
:100F1000D3B862FBA1F8A5B8D3B863FBA1F8A5B814
:100F2000D3B864FBA1F8A5B8D3B865FBA1F8A5B800
:100F3000D3B866FBA1F8A5B8D3B867FBA1F8A5B8EC
:100F4000D3B870FBA1F8A5B8D3B871FBA1F8A5B8C8
:100F5000D3B872FBA1F8A5B8D3B873FBA1F8A5B8B4
:100F6000D3B874FBA1F8A5B8D3B875FBA1F8A5B8A0
:100F7000D3B876FBA1F8A5B8D3B877FBA1F8A5B88C
:100F8000D3B880FBA1F8A5B8D3B881FBA1F8A5B868
:100F9000D3B882FBA1F8A5B8D3B883FBA1F8A5B854
:100FA000D3B884FBA1F8A5B8D3B885FBA1F8A5B840
:100FB000D3B886FBA1F8A5B8D3B887FBA1F8A5B82C
:100FC000D3B890FBA1F8A5B8D3B891FBA1F8A5B808
:100FD000D3B892FBA1F8A5B8D3B893FBA1F8A5B8F4
:100FE000D3B894FBA1F8A5B8D3B895FBA1F8A5B8E0
:100FF000D3B896FBA1F8A5B8D3B897FBA1F8A5B8CC
:10100000D3B8A0FBA1F8A5B8D3B8A1FBA1F8A5B8A7
:10101000D3B8A2FBA1F8A5B8D3B8A3FBA1F8A5B893
:10102000D3B8A4FBA1F8A5B8D3B8A5FBA1F8A5B87F
:10103000D3B8A6FBA1F8A5B8D3B8A7FBA1F8A5B86B
:10104000D3B8B0FBA1F8A5B8D3B8B1FBA1F8A5B847
:10105000D3B8B2FBA1F8A5B8D3B8B3FBA1F8A5B833
:10106000D3B8B4FBA1F8A5B8D3B8B5FBA1F8A5B81F
:10107000D3B8B6FBA1F8A5B8D3B8B7FBA1F8A5B80B
:10108000D3B8C0FBA1F8A5B8D3B8C1FBA1F8A5B8E7
:10109000D3B8C2FBA1F8A5B8D3B8C3FBA1F8A5B8D3
:1010A000D3B8C4FBA1F8A5B8D3B8C5FBA1F8A5B8BF
:1010B000D3B8C6FBA1F8A5B8D3B8C7FBA1F8A5B8AB
:1010C000D3B8D0FBA1F8A5B8D3B8D1FBA1F8A5B887
:1010D000D3B8D2FBA1F8A5B8D3B8D3FBA1F8A5B873
:1010E000D3B8D4FBA1F8A5B8D3B8D5FBA1F8A5B85F
:1010F000D3B8D6FBA1F8A5B8D3B8D7FBB1F8B5B82B
:10110000D3B835B8D3B835B8D3B8089500910B012A
:10111000023021F00E9491080C9490080E9413095B
:101120000895AF93BF934F930E94030130E24AEAC0
:1011300080E05AEA6AEA7AEA90E0A0E0B0E00E9431
:10114000110130E24AEA5AEA60E070E000900101E1
:10115000400D00900201501D00900301601D0090A1
:101160000401701D80E090E0A0E0B0E80E94110151
:1011700032E040E083E00E9411010E94030130E26E
:1011800045E580E055E565E575E590E0A0E0B0E077
:101190000E94110130E244E555E560E070E0009006
:1011A0000101400D00900201501D00900301601DDF
:1011B00000900401701D80E090E0A0E0B0E80E9483
:1011C000110132E040E083E00E9411010E9403011E
:1011D00030E240EA80E050EA60EA70EA90E0A0E0A5
:1011E000B0E00E94110130E24AEA5AEA60E070E0A1
:1011F00000900101400D00900201501D009003017C
:10120000601D00900401701D80E090E0A0E0B0E857
:101210000E94110132E040E083E00E9411014F91F1
:10122000BF91AF910895AF93BF934F930E94030175
:1012300030E24AEA80E05AEA6AEA7AEA90E0A0E01C
:10124000B0E00E94110130E24AEA5AE060E070E04A
:1012500000900101400D00900201501D009003011B
:10126000601D00900401701D80E090E0A0E0B0E8F7
:101270000E94110132E040E083E00E9411010E94CF
:10128000030130E245E580E055E565E575E590E070
:10129000A0E0B0E00E94110130E245E555E060E0D9
:1012A00070E000900101400D00900201501D00907F
:1012B0000301601D00900401701D80E090E0A0E03B
:1012C000B0E80E94110132E040E083E00E94110189
:1012D0000E94030130E240EA80E050EA60EA70EAEE
:1012E00090E0A0E0B0E00E94110130E24AEA5AE04A
:1012F00060E070E000900101400D00900201501D7F
:1013000000900301601D00900401701D80E090E0DA
:10131000A0E0B0E80E94110132E040E083E00E94CA
:1013200011014F91BF91AF9108950E942F0C30E2AF
:1013300042E080E058E866E070E090E0A0E0B0E0D5
:101340000E94A309089521E07695679557954795E2
:1013500008F42260B695A7959795879508F42860BC
:1013600025B9D3B83A9579F708950E94B60C02C012
:101370000E94890CA0FBA1F8A5B8D3B8A1FBA1F8E5
:10138000A5B8D3B8A2FBA1F8A5B8D3B8A3FBA1F820
:10139000A5B8D3B8A4FBA1F8A5B8D3B8A5FBA1F80C
:1013A000A5B8D3B8A6FBA1F8A5B8D3B8A7FBA1F8F8
:1013B000A5B8D3B8B0FBA1F8A5B8D3B8B1FBA1F8D4
:1013C000A5B8D3B8B2FBA1F8A5B8D3B8B3FBA1F8C0
:1013D000A5B8D3B8B4FBA1F8A5B8D3B8B5FBA1F8AC
:1013E000A5B8D3B8B6FBA1F8A5B8D3B8B7FBA1F898
:1013F000A5B8D3B8C0FBA1F8A5B8D3B8C1FBA1F874
:10140000A5B8D3B8C2FBA1F8A5B8D3B8C3FBA1F85F
:10141000A5B8D3B8C4FBA1F8A5B8D3B8C5FBA1F84B
:10142000A5B8D3B8C6FBA1F8A5B8D3B8C7FBA1F837
:10143000A5B8D3B8D0FBA1F8A5B8D3B8D1FBA1F813
:10144000A5B8D3B8D2FBA1F8A5B8D3B8D3FBA1F8FF
:10145000A5B8D3B8D4FBA1F8A5B8D3B8D5FBA1F8EB
:10146000A5B8D3B8D6FBA1F8A5B8D3B8D7FBB1F8C7
:10147000B5B8D3B835B8D3B835B8D3B861FF089587
:101480000E945C0C25B8D3B845B8D3B825B8D3B8FA
:1014900025B8D3B860FBA1F8A5B8D3B825B8D3B8A0
:1014A00025B8D3B825B8D3B845B8D3B825B8D3B87C
:1014B00025B8D3B845B8D3B825B8D3B825B8D3B86C
:1014C00025B8D3B845B8D3B825B8D3B845B8D3B83C
:1014D00045B8D3B825B8D3B825B8D3B825B8D3B84C
:1014E00025B8D3B825B8D3B825B8D3B825B8D3B85C
:1014F00025B8D3B825B8D3B825B8D3B825B8D3B84C
:1015000025B8D3B835B8D3B835B8D3B835B8D3B80B
:1015100008950E94890C25B8D3B825B8D3B825B84A
:10152000D3B825B8D3B825B8D3B825B8D3B845B8FB
:10153000D3B825B8D3B825B8D3B825B8D3B825B80B
:10154000D3B825B8D3B825B8D3B825B8D3B825B8FB
:10155000D3B825B8D3B825B8D3B825B8D3B825B8EB
:10156000D3B825B8D3B825B8D3B825B8D3B845B8BB
:10157000D3B825B8D3B825B8D3B825B8D3B825B8CB
:10158000D3B825B8D3B825B8D3B825B8D3B825B8BB
:10159000D3B835B8D3B835B8D3B835B8D3B846C052
:1015A0000E94890C25B8D3B825B8D3B825B8D3B8CC
:1015B00025B8D3B825B8D3B845B8D3B825B8D3B86B
:1015C00045B8D3B825B8D3B825B8D3B825B8D3B85B
:1015D00025B8D3B825B8D3B825B8D3B825B8D3B86B
:1015E00025B8D3B825B8D3B825B8D3B825B8D3B85B
:1015F00025B8D3B825B8D3B845B8D3B825B8D3B82B
:1016000045B8D3B825B8D3B825B8D3B825B8D3B81A
:1016100025B8D3B825B8D3B825B8D3B825B8D3B82A
:1016200035B8D3B835B8D3B835B8D3B80E945C0C48
:1016300025B8D3B845B8D3B825B8D3B825B8D3B8EA
:1016400045B8D3B825B8D3B825B8D3B845B8D3B8BA
:1016500025B8D3B825B8D3B825B8D3B845B8D3B8CA
:1016600025B8D3B825B8D3B825B8D3B845B8D3B8BA
:1016700025B8D3B845B8D3B845B8D3B825B8D3B88A
:1016800025B8D3B825B8D3B825B8D3B825B8D3B8BA
:1016900025B8D3B825B8D3B825B8D3B825B8D3B8AA
:1016A00025B8D3B825B8D3B825B8D3B835B8D3B88A
:1016B00035B8D3B835B8D3B80E94890C7A2D62FFFB
:1016C00021C07B2D25B8D3B825B8D3B825B8D3B859
:1016D00025B8D3B825B8D3B825B8D3B825B8D3B86A
:1016E00025B8D3B825B8D3B825B8D3B825B8D3B85A
:1016F00025B8D3B825B8D3B825B8D3B825B8D3B84A
:1017000025B8D3B820FBA1F8A5B8D3B821FBA1F820
:10171000A5B8D3B822FBA1F8A5B8D3B823FBA1F88C
:10172000A5B8D3B824FBA1F8A5B8D3B825FBA1F878
:10173000A5B8D3B826FBA1F8A5B8D3B827FBA1F864
:10174000A5B8D3B830FBA1F8A5B8D3B831FBA1F840
:10175000A5B8D3B832FBA1F8A5B8D3B833FBA1F82C
:10176000A5B8D3B834FBA1F8A5B8D3B835FBA1F818
:10177000A5B8D3B836FBA1F8A5B8D3B837FB71F933
:1017800075B9D3B862FD20C025B8D3B825B8D3B891
:1017900025B8D3B825B8D3B825B8D3B825B8D3B8A9
:1017A00025B8D3B825B8D3B825B8D3B825B8D3B899
:1017B00025B8D3B825B8D3B825B8D3B825B8D3B889
:1017C00025B8D3B835B8D3B835B8D3B835B8D3B849
:1017D0000E945C0C25B8D3B845B8D3B825B8D3B8A7
:1017E00025B8D3B825B8D3B825B8D3B825B8D3B859
:1017F00045B8D3B825B8D3B825B8D3B825B8D3B829
:1018000045B8D3B825B8D3B825B8D3B825B8D3B818
:1018100045B8D3B825B8D3B845B8D3B845B8D3B8C8
:1018200025B8D3B825B8D3B825B8D3B825B8D3B818
:1018300025B8D3B825B8D3B825B8D3B825B8D3B808
:1018400025B8D3B825B8D3B825B8D3B825B8D3B8F8
:1018500035B8D3B835B8D3B835B8D3B808950091F2
:10186000200135B8D3B825B8D3B825B8D3B80450BB
:1018700091F045B8D3B845B8D3B825B8D3B845B872
:10188000D3B80A9521F025B8D3B80C94410C35B8DB
:10189000D3B80C94530C45B8D3B845B8D3B825B8D1
:1018A000D3B855B8D3B835B8D3B835B8D3B825B848
:1018B000D3B825B8D3B808950091200135B8D3B86E
:1018C00025B8D3B825B8D3B8045091F025B8D3B80B
:1018D00045B8D3B825B8D3B845B8D3B80A9521F0E0
:1018E00025B8D3B80C946E0C35B8D3B80C94800CD2
:1018F00025B8D3B845B8D3B825B8D3B855B8D3B8F8
:1019000035B8D3B835B8D3B825B8D3B825B8D3B817
:1019100008950091200135B8D3B825B8D3B825B8BB
:10192000D3B8045091F045B8D3B825B8D3B825B88A
:10193000D3B845B8D3B80A9521F025B8D3B80C94DC
:101940009B0C35B8D3B80C94AD0C45B8D3B825B8BA
:10195000D3B825B8D3B855B8D3B835B8D3B835B897
:10196000D3B825B8D3B825B8D3B8089500912001CD
:1019700035B8D3B825B8D3B825B8D3B8045091F04A
:1019800025B8D3B825B8D3B825B8D3B845B8D3B897
:101990000A9521F025B8D3B80C94C80C35B8D3B843
:1019A0000C94DA0C25B8D3B825B8D3B825B8D3B879
:1019B00055B8D3B835B8D3B835B8D3B825B8D3B837
:1019C00025B8D3B808952F923F924F925F92AF926D
:1019D000BF92CF92DF921F93CF93DF93EF93FF934A
:1019E00071E0272E79E0372E73E0472E7BE0572EEB
:1019F00070E1D72E71E0A72E79E0B72EA0912E01CD
:101A0000B0912F01C0913001D0913101562F452F57
:101A100072E07093E9007091E80072FFFCCF709162
:101A2000E80075FFFCCFFC012091F10021934A955D
:101A3000D9F7452F46954695FC0100910A010230E1
:101A400021F00E942F110C94270D0E94440D149632
:101A5000C11DD11D4A9589F77091E8007B7F709375
:101A6000E8007091E8007F777093E800FF91EF91B4
:101A7000DF91CF911F91DF90CF90BF90AF905F909B
:101A80004F903F902F9008950F934F9326E0332768
:101A90000E941C150E942F0C25B8D3B845B8D3B8A6
:101AA00025B8D3B825B8D3B825B8D3B825B8D3B896
:101AB00025B8D3B825B8D3B845B8D3B825B8D3B866
:101AC00025B8D3B845B8D3B825B8D3B825B8D3B856
:101AD00025B8D3B845B8D3B825B8D3B845B8D3B826
:101AE00045B8D3B825B8D3B825B8D3B825B8D3B836
:101AF00025B8D3B825B8D3B825B8D3B825B8D3B846
:101B000025B8D3B825B8D3B825B8D3B825B8D3B835
:101B100025B8D3B825B8D3B89191819171916191CD
:101B200060FBA1F8A5B8D3B861FBA1F8A5B8D3B8FC
:101B300062FBA1F8A5B8D3B863FBA1F8A5B8D3B8E8
:101B400064FBA1F8A5B8D3B865FBA1F8A5B8D3B8D4
:101B500066FBA1F8A5B8D3B867FBA1F8A5B8D3B8C0
:101B600070FBA1F8A5B8D3B871FBA1F8A5B8D3B89C
:101B700072FBA1F8A5B8D3B873FBA1F8A5B8D3B888
:101B800074FBA1F8A5B8D3B875FBA1F8A5B8D3B874
:101B900076FBA1F8A5B8D3B877FBA1F8A5B8D3B860
:101BA00080FBA1F8A5B8D3B881FBA1F8A5B8D3B83C
:101BB00082FBA1F8A5B8D3B883FBA1F8A5B8D3B828
:101BC00084FBA1F8A5B8D3B885FBA1F8A5B8D3B814
:101BD00086FBA1F8A5B8D3B887FBA1F8A5B8D3B800
:101BE00090FBA1F8A5B8D3B891FBA1F8A5B8D3B8DC
:101BF00092FBA1F8A5B8D3B893FBA1F8A5B8D3B8C8
:101C000094FBA1F8A5B8D3B895FBA1F8A5B8D3B8B3
:101C100096FBA1F8A5B8D3B897FBA1F8A5B8D3B89F
:101C200068E070E080E391E160FBA1F8A5B8D3B86B
:101C300061FBA1F8A5B8D3B862FBA1F8A5B8D3B8E9
:101C400063FBA1F8A5B8D3B864FBA1F8A5B8D3B8D5
:101C500065FBA1F8A5B8D3B866FBA1F8A5B8D3B8C1
:101C600067FBA1F8A5B8D3B870FBA1F8A5B8D3B8A5
:101C700071FBA1F8A5B8D3B872FBA1F8A5B8D3B889
:101C800073FBA1F8A5B8D3B874FBA1F8A5B8D3B875
:101C900075FBA1F8A5B8D3B876FBA1F8A5B8D3B861
:101CA00077FBA1F8A5B8D3B880FBA1F8A5B8D3B845
:101CB00081FBA1F8A5B8D3B882FBA1F8A5B8D3B829
:101CC00083FBA1F8A5B8D3B884FBA1F8A5B8D3B815
:101CD00085FBA1F8A5B8D3B886FBA1F8A5B8D3B801
:101CE00087FBA1F8A5B8D3B890FBA1F8A5B8D3B8E5
:101CF00091FBA1F8A5B8D3B892FBA1F8A5B8D3B8C9
:101D000093FBA1F8A5B8D3B894FBA1F8A5B8D3B8B4
:101D100095FBA1F8A5B8D3B896FBA1F8A5B8D3B8A0
:101D200097FBB1F8B5B8D3B835B8D3B835B8D3B890
:101D30000E942F0C25B8D3B845B8D3B825B8D3B86E
:101D400025B8D3B825B8D3B825B8D3B825B8D3B8F3
:101D500025B8D3B845B8D3B825B8D3B825B8D3B8C3
:101D600045B8D3B825B8D3B825B8D3B825B8D3B8B3
:101D700045B8D3B825B8D3B845B8D3B845B8D3B863
:101D800025B8D3B825B8D3B825B8D3B825B8D3B8B3
:101D900025B8D3B825B8D3B825B8D3B825B8D3B8A3
:101DA00025B8D3B825B8D3B825B8D3B825B8D3B893
:101DB00025B8D3B8A0FBA1F8A5B8D3B8A1FBA1F86A
:101DC000A5B8D3B8A2FBA1F8A5B8D3B8A3FBA1F8D6
:101DD000A5B8D3B8A4FBA1F8A5B8D3B8A5FBA1F8C2
:101DE000A5B8D3B8A6FBA1F8A5B8D3B8A7FBA1F8AE
:101DF000A5B8D3B8B0FBA1F8A5B8D3B8B1FBA1F88A
:101E0000A5B8D3B8B2FBA1F8A5B8D3B8B3FBA1F875
:101E1000A5B8D3B8B4FBA1F8A5B8D3B8B5FBA1F861
:101E2000A5B8D3B8B6FBA1F8A5B8D3B8B7FBA1F84D
:101E3000A5B8D3B8C0FBA1F8A5B8D3B8C1FBA1F829
:101E4000A5B8D3B8C2FBA1F8A5B8D3B8C3FBA1F815
:101E5000A5B8D3B8C4FBA1F8A5B8D3B8C5FBA1F801
:101E6000A5B8D3B8C6FBA1F8A5B8D3B8C7FBA1F8ED
:101E7000A5B8D3B8D0FBA1F8A5B8D3B8D1FBA1F8C9
:101E8000A5B8D3B8D2FBA1F8A5B8D3B8D3FBA1F8B5
:101E9000A5B8D3B8D4FBA1F8A5B8D3B8D5FBA1F8A1
:101EA000A5B8D3B8D6FBA1F8A5B8D3B8D7FBA1F88D
:101EB000A5B8D3B864E060FBA1F8A5B8D3B861FBBE
:101EC000A1F8A5B8D3B862FBA1F8A5B8D3B863FB55
:101ED000A1F8A5B8D3B864FBA1F8A5B8D3B865FB41
:101EE000A1F8A5B8D3B866FBA1F8A5B8D3B867FB2D
:101EF000A1F8A5B8D3B870FBA1F8A5B8D3B871FB09
:101F0000A1F8A5B8D3B872FBA1F8A5B8D3B873FBF4
:101F1000A1F8A5B8D3B874FBA1F8A5B8D3B875FBE0
:101F2000A1F8A5B8D3B876FBA1F8A5B8D3B877FBCC
:101F3000A1F8A5B8D3B880FBA1F8A5B8D3B881FBA8
:101F4000A1F8A5B8D3B882FBA1F8A5B8D3B883FB94
:101F5000A1F8A5B8D3B884FBA1F8A5B8D3B885FB80
:101F6000A1F8A5B8D3B886FBA1F8A5B8D3B887FB6C
:101F7000A1F8A5B8D3B890FBA1F8A5B8D3B891FB48
:101F8000A1F8A5B8D3B892FBA1F8A5B8D3B893FB34
:101F9000A1F8A5B8D3B894FBA1F8A5B8D3B895FB20
:101FA000A1F8A5B8D3B896FBA1F8A5B8D3B897FB0C
:101FB000B1F8B5B8D3B835B8D3B835B8D3B80E94EE
:101FC0002F0C25B8D3B845B8D3B825B8D3B825B8A1
:101FD000D3B825B8D3B825B8D3B825B8D3B825B861
:101FE000D3B845B8D3B825B8D3B825B8D3B845B811
:101FF000D3B825B8D3B825B8D3B825B8D3B845B821
:10200000D3B825B8D3B845B8D3B845B8D3B825B8F0
:10201000D3B825B8D3B825B8D3B825B8D3B825B820
:10202000D3B825B8D3B825B8D3B825B8D3B825B810
:10203000D3B825B8D3B825B8D3B825B8D3B825B800
:10204000D3B828E031E040E351E120FBA1F8A5B886
:10205000D3B821FBA1F8A5B8D3B822FBA1F8A5B845
:10206000D3B823FBA1F8A5B8D3B824FBA1F8A5B831
:10207000D3B825FBA1F8A5B8D3B826FBA1F8A5B81D
:10208000D3B827FBA1F8A5B8D3B830FBA1F8A5B801
:10209000D3B831FBA1F8A5B8D3B832FBA1F8A5B8E5
:1020A000D3B833FBA1F8A5B8D3B834FBA1F8A5B8D1
:1020B000D3B835FBA1F8A5B8D3B836FBA1F8A5B8BD
:1020C000D3B837FBA1F8A5B8D3B840FBA1F8A5B8A1
:1020D000D3B841FBA1F8A5B8D3B842FBA1F8A5B885
:1020E000D3B843FBA1F8A5B8D3B844FBA1F8A5B871
:1020F000D3B845FBA1F8A5B8D3B846FBA1F8A5B85D
:10210000D3B847FBA1F8A5B8D3B850FBA1F8A5B840
:10211000D3B851FBA1F8A5B8D3B852FBA1F8A5B824
:10212000D3B853FBA1F8A5B8D3B854FBA1F8A5B810
:10213000D3B855FBA1F8A5B8D3B856FBA1F8A5B8FC
:10214000D3B857FBA1F8A5B8D3B860E060FBA1F8FD
:10215000A5B8D3B861FBA1F8A5B8D3B862FBA1F8C4
:10216000A5B8D3B863FBA1F8A5B8D3B864FBA1F8B0
:10217000A5B8D3B865FBA1F8A5B8D3B866FBA1F89C
:10218000A5B8D3B867FBA1F8A5B8D3B870FBA1F880
:10219000A5B8D3B871FBA1F8A5B8D3B872FBA1F864
:1021A000A5B8D3B873FBA1F8A5B8D3B874FBA1F850
:1021B000A5B8D3B875FBA1F8A5B8D3B876FBA1F83C
:1021C000A5B8D3B877FBA1F8A5B8D3B880FBA1F820
:1021D000A5B8D3B881FBA1F8A5B8D3B882FBA1F804
:1021E000A5B8D3B883FBA1F8A5B8D3B884FBA1F8F0
:1021F000A5B8D3B885FBA1F8A5B8D3B886FBA1F8DC
:10220000A5B8D3B887FBA1F8A5B8D3B890FBA1F8BF
:10221000A5B8D3B891FBA1F8A5B8D3B892FBA1F8A3
:10222000A5B8D3B893FBA1F8A5B8D3B894FBA1F88F
:10223000A5B8D3B895FBA1F8A5B8D3B896FBA1F87B
:10224000A5B8D3B897FBB1F8B5B8D3B835B8D3B8FB
:1022500035B8D3B80E94C0194F910F9108950F93CC
:102260004F9326E030E040E050E80E946E170E9455
:102270002F0C25B8D3B845B8D3B825B8D3B825B8EE
:10228000D3B825B8D3B825B8D3B825B8D3B825B8AE
:10229000D3B845B8D3B825B8D3B825B8D3B845B85E
:1022A000D3B825B8D3B825B8D3B825B8D3B845B86E
:1022B000D3B825B8D3B845B8D3B845B8D3B825B83E
:1022C000D3B825B8D3B825B8D3B825B8D3B825B86E
:1022D000D3B825B8D3B825B8D3B825B8D3B825B85E
:1022E000D3B825B8D3B825B8D3B825B8D3B825B84E
:1022F000D3B8919181917191619160FBA1F8A5B8DA
:10230000D3B861FBA1F8A5B8D3B862FBA1F8A5B812
:10231000D3B863FBA1F8A5B8D3B864FBA1F8A5B8FE
:10232000D3B865FBA1F8A5B8D3B866FBA1F8A5B8EA
:10233000D3B867FBA1F8A5B8D3B870FBA1F8A5B8CE
:10234000D3B871FBA1F8A5B8D3B872FBA1F8A5B8B2
:10235000D3B873FBA1F8A5B8D3B874FBA1F8A5B89E
:10236000D3B875FBA1F8A5B8D3B876FBA1F8A5B88A
:10237000D3B877FBA1F8A5B8D3B880FBA1F8A5B86E
:10238000D3B881FBA1F8A5B8D3B882FBA1F8A5B852
:10239000D3B883FBA1F8A5B8D3B884FBA1F8A5B83E
:1023A000D3B885FBA1F8A5B8D3B886FBA1F8A5B82A
:1023B000D3B887FBA1F8A5B8D3B890FBA1F8A5B80E
:1023C000D3B891FBA1F8A5B8D3B892FBA1F8A5B8F2
:1023D000D3B893FBA1F8A5B8D3B894FBA1F8A5B8DE
:1023E000D3B895FBA1F8A5B8D3B896FBA1F8A5B8CA
:1023F000D3B897FBA1F8A5B8D3B868E470E080E043
:1024000098E160FBA1F8A5B8D3B861FBA1F8A5B825
:10241000D3B862FBA1F8A5B8D3B863FBA1F8A5B8FF
:10242000D3B864FBA1F8A5B8D3B865FBA1F8A5B8EB
:10243000D3B866FBA1F8A5B8D3B867FBA1F8A5B8D7
:10244000D3B870FBA1F8A5B8D3B871FBA1F8A5B8B3
:10245000D3B872FBA1F8A5B8D3B873FBA1F8A5B89F
:10246000D3B874FBA1F8A5B8D3B875FBA1F8A5B88B
:10247000D3B876FBA1F8A5B8D3B877FBA1F8A5B877
:10248000D3B880FBA1F8A5B8D3B881FBA1F8A5B853
:10249000D3B882FBA1F8A5B8D3B883FBA1F8A5B83F
:1024A000D3B884FBA1F8A5B8D3B885FBA1F8A5B82B
:1024B000D3B886FBA1F8A5B8D3B887FBA1F8A5B817
:1024C000D3B890FBA1F8A5B8D3B891FBA1F8A5B8F3
:1024D000D3B892FBA1F8A5B8D3B893FBA1F8A5B8DF
:1024E000D3B894FBA1F8A5B8D3B895FBA1F8A5B8CB
:1024F000D3B896FBA1F8A5B8D3B897FBB1F8B5B897
:10250000D3B835B8D3B835B8D3B80E942F0C25B896
:10251000D3B845B8D3B825B8D3B825B8D3B825B8FB
:10252000D3B825B8D3B825B8D3B825B8D3B845B8EB
:10253000D3B825B8D3B825B8D3B845B8D3B825B8DB
:10254000D3B825B8D3B825B8D3B845B8D3B825B8CB
:10255000D3B845B8D3B845B8D3B825B8D3B825B89B
:10256000D3B825B8D3B825B8D3B825B8D3B825B8CB
:10257000D3B825B8D3B825B8D3B825B8D3B825B8BB
:10258000D3B825B8D3B825B8D3B825B8D3B8A0FBED
:10259000A1F8A5B8D3B8A1FBA1F8A5B8D3B8A2FB00
:1025A000A1F8A5B8D3B8A3FBA1F8A5B8D3B8A4FBEC
:1025B000A1F8A5B8D3B8A5FBA1F8A5B8D3B8A6FBD8
:1025C000A1F8A5B8D3B8A7FBA1F8A5B8D3B8B0FBBC
:1025D000A1F8A5B8D3B8B1FBA1F8A5B8D3B8B2FBA0
:1025E000A1F8A5B8D3B8B3FBA1F8A5B8D3B8B4FB8C
:1025F000A1F8A5B8D3B8B5FBA1F8A5B8D3B8B6FB78
:10260000A1F8A5B8D3B8B7FBA1F8A5B8D3B8C0FB5B
:10261000A1F8A5B8D3B8C1FBA1F8A5B8D3B8C2FB3F
:10262000A1F8A5B8D3B8C3FBA1F8A5B8D3B8C4FB2B
:10263000A1F8A5B8D3B8C5FBA1F8A5B8D3B8C6FB17
:10264000A1F8A5B8D3B8C7FBA1F8A5B8D3B8D0FBFB
:10265000A1F8A5B8D3B8D1FBA1F8A5B8D3B8D2FBDF
:10266000A1F8A5B8D3B8D3FBA1F8A5B8D3B8D4FBCB
:10267000A1F8A5B8D3B8D5FBA1F8A5B8D3B8D6FBB7
:10268000A1F8A5B8D3B8D7FBA1F8A5B8D3B864E42E
:1026900060FBA1F8A5B8D3B861FBA1F8A5B8D3B881
:1026A00062FBA1F8A5B8D3B863FBA1F8A5B8D3B86D
:1026B00064FBA1F8A5B8D3B865FBA1F8A5B8D3B859
:1026C00066FBA1F8A5B8D3B867FBA1F8A5B8D3B845
:1026D00070FBA1F8A5B8D3B871FBA1F8A5B8D3B821
:1026E00072FBA1F8A5B8D3B873FBA1F8A5B8D3B80D
:1026F00074FBA1F8A5B8D3B875FBA1F8A5B8D3B8F9
:1027000076FBA1F8A5B8D3B877FBA1F8A5B8D3B8E4
:1027100080FBA1F8A5B8D3B881FBA1F8A5B8D3B8C0
:1027200082FBA1F8A5B8D3B883FBA1F8A5B8D3B8AC
:1027300084FBA1F8A5B8D3B885FBA1F8A5B8D3B898
:1027400086FBA1F8A5B8D3B887FBA1F8A5B8D3B884
:1027500090FBA1F8A5B8D3B891FBA1F8A5B8D3B860
:1027600092FBA1F8A5B8D3B893FBA1F8A5B8D3B84C
:1027700094FBA1F8A5B8D3B895FBA1F8A5B8D3B838
:1027800096FBA1F8A5B8D3B897FBB1F8B5B8D3B804
:1027900035B8D3B835B8D3B80E942F0C25B8D3B804
:1027A00045B8D3B825B8D3B825B8D3B825B8D3B869
:1027B00025B8D3B825B8D3B825B8D3B845B8D3B859
:1027C00025B8D3B825B8D3B845B8D3B825B8D3B849
:1027D00025B8D3B825B8D3B845B8D3B825B8D3B839
:1027E00045B8D3B845B8D3B825B8D3B825B8D3B809
:1027F00025B8D3B825B8D3B825B8D3B825B8D3B839
:1028000025B8D3B825B8D3B825B8D3B825B8D3B828
:1028100025B8D3B825B8D3B825B8D3B822E034E06A
:1028200040E050E820FBA1F8A5B8D3B821FBA1F8FF
:10283000A5B8D3B822FBA1F8A5B8D3B823FBA1F85B
:10284000A5B8D3B824FBA1F8A5B8D3B825FBA1F847
:10285000A5B8D3B826FBA1F8A5B8D3B827FBA1F833
:10286000A5B8D3B830FBA1F8A5B8D3B831FBA1F80F
:10287000A5B8D3B832FBA1F8A5B8D3B833FBA1F8FB
:10288000A5B8D3B834FBA1F8A5B8D3B835FBA1F8E7
:10289000A5B8D3B836FBA1F8A5B8D3B837FBA1F8D3
:1028A000A5B8D3B840FBA1F8A5B8D3B841FBA1F8AF
:1028B000A5B8D3B842FBA1F8A5B8D3B843FBA1F89B
:1028C000A5B8D3B844FBA1F8A5B8D3B845FBA1F887
:1028D000A5B8D3B846FBA1F8A5B8D3B847FBA1F873
:1028E000A5B8D3B850FBA1F8A5B8D3B851FBA1F84F
:1028F000A5B8D3B852FBA1F8A5B8D3B853FBA1F83B
:10290000A5B8D3B854FBA1F8A5B8D3B855FBA1F826
:10291000A5B8D3B856FBA1F8A5B8D3B857FBA1F812
:10292000A5B8D3B860E460FBA1F8A5B8D3B861FB43
:10293000A1F8A5B8D3B862FBA1F8A5B8D3B863FBDA
:10294000A1F8A5B8D3B864FBA1F8A5B8D3B865FBC6
:10295000A1F8A5B8D3B866FBA1F8A5B8D3B867FBB2
:10296000A1F8A5B8D3B870FBA1F8A5B8D3B871FB8E
:10297000A1F8A5B8D3B872FBA1F8A5B8D3B873FB7A
:10298000A1F8A5B8D3B874FBA1F8A5B8D3B875FB66
:10299000A1F8A5B8D3B876FBA1F8A5B8D3B877FB52
:1029A000A1F8A5B8D3B880FBA1F8A5B8D3B881FB2E
:1029B000A1F8A5B8D3B882FBA1F8A5B8D3B883FB1A
:1029C000A1F8A5B8D3B884FBA1F8A5B8D3B885FB06
:1029D000A1F8A5B8D3B886FBA1F8A5B8D3B887FBF2
:1029E000A1F8A5B8D3B890FBA1F8A5B8D3B891FBCE
:1029F000A1F8A5B8D3B892FBA1F8A5B8D3B893FBBA
:102A0000A1F8A5B8D3B894FBA1F8A5B8D3B895FBA5
:102A1000A1F8A5B8D3B896FBA1F8A5B8D3B897FB91
:102A2000B1F8B5B8D3B835B8D3B835B8D3B80E9473
:102A3000C0194F910F9108950E942F0C25B8D3B85B
:102A400045B8D3B825B8D3B825B8D3B825B8D3B8C6
:102A500025B8D3B825B8D3B825B8D3B845B8D3B8B6
:102A600025B8D3B825B8D3B845B8D3B825B8D3B8A6
:102A700025B8D3B825B8D3B845B8D3B825B8D3B896
:102A800045B8D3B845B8D3B825B8D3B825B8D3B866
:102A900025B8D3B825B8D3B825B8D3B825B8D3B896
:102AA00025B8D3B825B8D3B825B8D3B825B8D3B886
:102AB00025B8D3B825B8D3B825B8D3B820FBA1F82A
:102AC000A5B8D3B821FBA1F8A5B8D3B822FBA1F8CB
:102AD000A5B8D3B823FBA1F8A5B8D3B824FBA1F8B7
:102AE000A5B8D3B825FBA1F8A5B8D3B826FBA1F8A3
:102AF000A5B8D3B827FBA1F8A5B8D3B830FBA1F887
:102B0000A5B8D3B831FBA1F8A5B8D3B832FBA1F86A
:102B1000A5B8D3B833FBA1F8A5B8D3B834FBA1F856
:102B2000A5B8D3B835FBA1F8A5B8D3B836FBA1F842
:102B3000A5B8D3B837FBA1F8A5B8D3B864E070E066
:102B400080E391E160FBA1F8A5B8D3B861FBA1F8DF
:102B5000A5B8D3B862FBA1F8A5B8D3B863FBA1F8B8
:102B6000A5B8D3B864FBA1F8A5B8D3B865FBA1F8A4
:102B7000A5B8D3B866FBA1F8A5B8D3B867FBA1F890
:102B8000A5B8D3B870FBA1F8A5B8D3B871FBA1F86C
:102B9000A5B8D3B872FBA1F8A5B8D3B873FBA1F858
:102BA000A5B8D3B874FBA1F8A5B8D3B875FBA1F844
:102BB000A5B8D3B876FBA1F8A5B8D3B877FBA1F830
:102BC000A5B8D3B880FBA1F8A5B8D3B881FBA1F80C
:102BD000A5B8D3B882FBA1F8A5B8D3B883FBA1F8F8
:102BE000A5B8D3B884FBA1F8A5B8D3B885FBA1F8E4
:102BF000A5B8D3B886FBA1F8A5B8D3B887FBA1F8D0
:102C0000A5B8D3B890FBA1F8A5B8D3B891FBA1F8AB
:102C1000A5B8D3B892FBA1F8A5B8D3B893FBA1F897
:102C2000A5B8D3B894FBA1F8A5B8D3B895FBA1F883
:102C3000A5B8D3B896FBA1F8A5B8D3B897FBB1F85F
:102C4000B5B8D3B835B8D3B835B8D3B80E942F0CBF
:102C500025B8D3B845B8D3B825B8D3B825B8D3B8B4
:102C600025B8D3B825B8D3B825B8D3B825B8D3B8C4
:102C700045B8D3B825B8D3B825B8D3B845B8D3B874
:102C800025B8D3B825B8D3B825B8D3B845B8D3B884
:102C900025B8D3B845B8D3B845B8D3B825B8D3B854
:102CA00025B8D3B825B8D3B825B8D3B825B8D3B884
:102CB00025B8D3B825B8D3B825B8D3B825B8D3B874
:102CC00025B8D3B825B8D3B825B8D3B825B8D3B864
:102CD00020FBA1F8A5B8D3B821FBA1F8A5B8D3B8BB
:102CE00022FBA1F8A5B8D3B823FBA1F8A5B8D3B8A7
:102CF00024FBA1F8A5B8D3B825FBA1F8A5B8D3B893
:102D000026FBA1F8A5B8D3B827FBA1F8A5B8D3B87E
:102D100030FBA1F8A5B8D3B831FBA1F8A5B8D3B85A
:102D200032FBA1F8A5B8D3B833FBA1F8A5B8D3B846
:102D300034FBA1F8A5B8D3B835FBA1F8A5B8D3B832
:102D400036FBA1F8A5B8D3B837FBA1F8A5B8D3B81E
:102D500040FBA1F8A5B8D3B841FBA1F8A5B8D3B8FA
:102D600042FBA1F8A5B8D3B843FBA1F8A5B8D3B8E6
:102D700044FBA1F8A5B8D3B845FBA1F8A5B8D3B8D2
:102D800046FBA1F8A5B8D3B847FBA1F8A5B8D3B8BE
:102D900050FBA1F8A5B8D3B851FBA1F8A5B8D3B89A
:102DA00052FBA1F8A5B8D3B853FBA1F8A5B8D3B886
:102DB00054FBA1F8A5B8D3B855FBA1F8A5B8D3B872
:102DC00056FBA1F8A5B8D3B857FBA1F8A5B8D3B85E
:102DD00060E060FBA1F8A5B8D3B861FBA1F8A5B885
:102DE000D3B862FBA1F8A5B8D3B863FBA1F8A5B826
:102DF000D3B864FBA1F8A5B8D3B865FBA1F8A5B812
:102E0000D3B866FBA1F8A5B8D3B867FBA1F8A5B8FD
:102E1000D3B870FBA1F8A5B8D3B871FBA1F8A5B8D9
:102E2000D3B872FBA1F8A5B8D3B873FBA1F8A5B8C5
:102E3000D3B874FBA1F8A5B8D3B875FBA1F8A5B8B1
:102E4000D3B876FBA1F8A5B8D3B877FBA1F8A5B89D
:102E5000D3B880FBA1F8A5B8D3B881FBA1F8A5B879
:102E6000D3B882FBA1F8A5B8D3B883FBA1F8A5B865
:102E7000D3B884FBA1F8A5B8D3B885FBA1F8A5B851
:102E8000D3B886FBA1F8A5B8D3B887FBA1F8A5B83D
:102E9000D3B890FBA1F8A5B8D3B891FBA1F8A5B819
:102EA000D3B892FBA1F8A5B8D3B893FBA1F8A5B805
:102EB000D3B894FBA1F8A5B8D3B895FBA1F8A5B8F1
:102EC000D3B896FBA1F8A5B8D3B897FBB1F8B5B8BD
:102ED000D3B835B8D3B835B8D3B808950E942F0CFD
:102EE00025B8D3B845B8D3B825B8D3B825B8D3B822
:102EF00025B8D3B825B8D3B825B8D3B825B8D3B832
:102F000045B8D3B825B8D3B825B8D3B845B8D3B8E1
:102F100025B8D3B825B8D3B825B8D3B845B8D3B8F1
:102F200025B8D3B845B8D3B845B8D3B825B8D3B8C1
:102F300025B8D3B825B8D3B825B8D3B825B8D3B8F1
:102F400025B8D3B825B8D3B825B8D3B825B8D3B8E1
:102F500025B8D3B825B8D3B825B8D3B825B8D3B8D1
:102F600020FBA1F8A5B8D3B821FBA1F8A5B8D3B828
:102F700022FBA1F8A5B8D3B823FBA1F8A5B8D3B814
:102F800024FBA1F8A5B8D3B825FBA1F8A5B8D3B800
:102F900026FBA1F8A5B8D3B827FBA1F8A5B8D3B8EC
:102FA00030FBA1F8A5B8D3B831FBA1F8A5B8D3B8C8
:102FB00032FBA1F8A5B8D3B833FBA1F8A5B8D3B8B4
:102FC00034FBA1F8A5B8D3B835FBA1F8A5B8D3B8A0
:102FD00036FBA1F8A5B8D3B837FBA1F8A5B8D3B88C
:102FE00064E470E080E098E160FBA1F8A5B8D3B894
:102FF00061FBA1F8A5B8D3B862FBA1F8A5B8D3B816
:1030000063FBA1F8A5B8D3B864FBA1F8A5B8D3B801
:1030100065FBA1F8A5B8D3B866FBA1F8A5B8D3B8ED
:1030200067FBA1F8A5B8D3B870FBA1F8A5B8D3B8D1
:1030300071FBA1F8A5B8D3B872FBA1F8A5B8D3B8B5
:1030400073FBA1F8A5B8D3B874FBA1F8A5B8D3B8A1
:1030500075FBA1F8A5B8D3B876FBA1F8A5B8D3B88D
:1030600077FBA1F8A5B8D3B880FBA1F8A5B8D3B871
:1030700081FBA1F8A5B8D3B882FBA1F8A5B8D3B855
:1030800083FBA1F8A5B8D3B884FBA1F8A5B8D3B841
:1030900085FBA1F8A5B8D3B886FBA1F8A5B8D3B82D
:1030A00087FBA1F8A5B8D3B890FBA1F8A5B8D3B811
:1030B00091FBA1F8A5B8D3B892FBA1F8A5B8D3B8F5
:1030C00093FBA1F8A5B8D3B894FBA1F8A5B8D3B8E1
:1030D00095FBA1F8A5B8D3B896FBA1F8A5B8D3B8CD
:1030E00097FBB1F8B5B8D3B835B8D3B835B8D3B8BD
:1030F0000E942F0C25B8D3B845B8D3B825B8D3B89B
:1031000025B8D3B825B8D3B825B8D3B825B8D3B81F
:1031100025B8D3B845B8D3B825B8D3B825B8D3B8EF
:1031200045B8D3B825B8D3B825B8D3B825B8D3B8DF
:1031300045B8D3B825B8D3B845B8D3B845B8D3B88F
:1031400025B8D3B825B8D3B825B8D3B825B8D3B8DF
:1031500025B8D3B825B8D3B825B8D3B825B8D3B8CF
:1031600025B8D3B825B8D3B825B8D3B825B8D3B8BF
:1031700025B8D3B820FBA1F8A5B8D3B821FBA1F896
:10318000A5B8D3B822FBA1F8A5B8D3B823FBA1F802
:10319000A5B8D3B824FBA1F8A5B8D3B825FBA1F8EE
:1031A000A5B8D3B826FBA1F8A5B8D3B827FBA1F8DA
:1031B000A5B8D3B830FBA1F8A5B8D3B831FBA1F8B6
:1031C000A5B8D3B832FBA1F8A5B8D3B833FBA1F8A2
:1031D000A5B8D3B834FBA1F8A5B8D3B835FBA1F88E
:1031E000A5B8D3B836FBA1F8A5B8D3B837FBA1F87A
:1031F000A5B8D3B840FBA1F8A5B8D3B841FBA1F856
:10320000A5B8D3B842FBA1F8A5B8D3B843FBA1F841
:10321000A5B8D3B844FBA1F8A5B8D3B845FBA1F82D
:10322000A5B8D3B846FBA1F8A5B8D3B847FBA1F819
:10323000A5B8D3B850FBA1F8A5B8D3B851FBA1F8F5
:10324000A5B8D3B852FBA1F8A5B8D3B853FBA1F8E1
:10325000A5B8D3B854FBA1F8A5B8D3B855FBA1F8CD
:10326000A5B8D3B856FBA1F8A5B8D3B857FBA1F8B9
:10327000A5B8D3B860E460FBA1F8A5B8D3B861FBEA
:10328000A1F8A5B8D3B862FBA1F8A5B8D3B863FB81
:10329000A1F8A5B8D3B864FBA1F8A5B8D3B865FB6D
:1032A000A1F8A5B8D3B866FBA1F8A5B8D3B867FB59
:1032B000A1F8A5B8D3B870FBA1F8A5B8D3B871FB35
:1032C000A1F8A5B8D3B872FBA1F8A5B8D3B873FB21
:1032D000A1F8A5B8D3B874FBA1F8A5B8D3B875FB0D
:1032E000A1F8A5B8D3B876FBA1F8A5B8D3B877FBF9
:1032F000A1F8A5B8D3B880FBA1F8A5B8D3B881FBD5
:10330000A1F8A5B8D3B882FBA1F8A5B8D3B883FBC0
:10331000A1F8A5B8D3B884FBA1F8A5B8D3B885FBAC
:10332000A1F8A5B8D3B886FBA1F8A5B8D3B887FB98
:10333000A1F8A5B8D3B890FBA1F8A5B8D3B891FB74
:10334000A1F8A5B8D3B892FBA1F8A5B8D3B893FB60
:10335000A1F8A5B8D3B894FBA1F8A5B8D3B895FB4C
:10336000A1F8A5B8D3B896FBA1F8A5B8D3B897FB38
:10337000B1F8B5B8D3B835B8D3B835B8D3B808951F
:1033800025E031E040E050E80E94CB19003011F018
:103390000E94CB1908950E946E170E94B60C68E433
:1033A00060FBA1F8A5B8D3B861FBA1F8A5B8D3B864
:1033B00062FBA1F8A5B8D3B863FBA1F8A5B8D3B850
:1033C00064FBA1F8A5B8D3B865FBA1F8A5B8D3B83C
:1033D00066FBA1F8A5B8D3B867FBA1F8A5B8D3B828
:1033E00070FBA1F8A5B8D3B871FBA1F8A5B8D3B804
:1033F00072FBA1F8A5B8D3B873FBA1F8A5B8D3B8F0
:1034000074FBA1F8A5B8D3B875FBA1F8A5B8D3B8DB
:1034100076FBA1F8A5B8D3B877FBA1F8A5B8D3B8C7
:1034200080FBA1F8A5B8D3B881FBA1F8A5B8D3B8A3
:1034300082FBA1F8A5B8D3B883FBA1F8A5B8D3B88F
:1034400084FBA1F8A5B8D3B885FBA1F8A5B8D3B87B
:1034500086FBA1F8A5B8D3B887FBA1F8A5B8D3B867
:1034600090FBA1F8A5B8D3B891FBA1F8A5B8D3B843
:1034700092FBA1F8A5B8D3B893FBA1F8A5B8D3B82F
:1034800094FBA1F8A5B8D3B895FBA1F8A5B8D3B81B
:1034900096FBA1F8A5B8D3B897FBB1F8B5B8D3B8E7
:1034A00035B8D3B835B8D3B80E945C0C25B8D3B8BA
:1034B00045B8D3B825B8D3B825B8D3B825B8D3B84C
:1034C00025B8D3B825B8D3B825B8D3B845B8D3B83C
:1034D00045B8D3B825B8D3B845B8D3B825B8D3B80C
:1034E00025B8D3B825B8D3B845B8D3B825B8D3B81C
:1034F00045B8D3B845B8D3B825B8D3B825B8D3B8EC
:1035000025B8D3B825B8D3B825B8D3B825B8D3B81B
:1035100025B8D3B825B8D3B825B8D3B825B8D3B80B
:1035200025B8D3B825B8D3B835B8D3B835B8D3B8DB
:1035300035B8D3B80E94890CA5B80027D3B8A5B870
:103540001A990160D3B8A5B81A990260D3B8A5B882
:103550001A990460D3B8A5B81A990860D3B8A5B869
:103560001A990061D3B8A5B81A990062D3B8A5B862
:103570001A990064D3B8B5B81A990068D3B835B8A9
:10358000D3B835B8D3B8089521E031E041E351E133
:103590000E94CD1A0030E1F708950E941C150E9488
:1035A000B60C68E060FBA1F8A5B8D3B861FBA1F840
:1035B000A5B8D3B862FBA1F8A5B8D3B863FBA1F84E
:1035C000A5B8D3B864FBA1F8A5B8D3B865FBA1F83A
:1035D000A5B8D3B866FBA1F8A5B8D3B867FBA1F826
:1035E000A5B8D3B870FBA1F8A5B8D3B871FBA1F802
:1035F000A5B8D3B872FBA1F8A5B8D3B873FBA1F8EE
:10360000A5B8D3B874FBA1F8A5B8D3B875FBA1F8D9
:10361000A5B8D3B876FBA1F8A5B8D3B877FBA1F8C5
:10362000A5B8D3B880FBA1F8A5B8D3B881FBA1F8A1
:10363000A5B8D3B882FBA1F8A5B8D3B883FBA1F88D
:10364000A5B8D3B884FBA1F8A5B8D3B885FBA1F879
:10365000A5B8D3B886FBA1F8A5B8D3B887FBA1F865
:10366000A5B8D3B890FBA1F8A5B8D3B891FBA1F841
:10367000A5B8D3B892FBA1F8A5B8D3B893FBA1F82D
:10368000A5B8D3B894FBA1F8A5B8D3B895FBA1F819
:10369000A5B8D3B896FBA1F8A5B8D3B897FBB1F8F5
:1036A000B5B8D3B835B8D3B835B8D3B80E945C0C28
:1036B00025B8D3B845B8D3B825B8D3B825B8D3B84A
:1036C00025B8D3B825B8D3B825B8D3B825B8D3B85A
:1036D00045B8D3B845B8D3B825B8D3B845B8D3B8EA
:1036E00025B8D3B825B8D3B825B8D3B845B8D3B81A
:1036F00025B8D3B845B8D3B845B8D3B825B8D3B8EA
:1037000025B8D3B825B8D3B825B8D3B825B8D3B819
:1037100025B8D3B825B8D3B825B8D3B825B8D3B809
:1037200025B8D3B825B8D3B825B8D3B835B8D3B8E9
:1037300035B8D3B835B8D3B80E94890CA5B80027DE
:10374000D3B8A5B81A990160D3B8A5B81A99026080
:10375000D3B8A5B81A990460D3B8A5B81A99086067
:10376000D3B8A5B81A990061D3B8A5B81A99006260
:10377000D3B8A5B81A990064D3B8B5B81A99006837
:10378000D3B835B8D3B835B8D3B808950E94B60CBD
:1037900060FBA1F8A5B8D3B861FBA1F8A5B8D3B870
:1037A00062FBA1F8A5B8D3B863FBA1F8A5B8D3B85C
:1037B00064FBA1F8A5B8D3B865FBA1F8A5B8D3B848
:1037C00066FBA1F8A5B8D3B867FBA1F8A5B8D3B834
:1037D00070FBA1F8A5B8D3B871FBA1F8A5B8D3B810
:1037E00072FBA1F8A5B8D3B873FBA1F8A5B8D3B8FC
:1037F00074FBA1F8A5B8D3B875FBA1F8A5B8D3B8E8
:1038000076FBA1F8A5B8D3B877FBA1F8A5B8D3B8D3
:1038100080FBA1F8A5B8D3B881FBA1F8A5B8D3B8AF
:1038200082FBA1F8A5B8D3B883FBA1F8A5B8D3B89B
:1038300084FBA1F8A5B8D3B885FBA1F8A5B8D3B887
:1038400086FBA1F8A5B8D3B887FBA1F8A5B8D3B873
:1038500090FBA1F8A5B8D3B891FBA1F8A5B8D3B84F
:1038600092FBA1F8A5B8D3B893FBA1F8A5B8D3B83B
:1038700094FBA1F8A5B8D3B895FBA1F8A5B8D3B827
:1038800096FBA1F8A5B8D3B897FBB1F8B5B8D3B8F3
:1038900035B8D3B835B8D3B80E945C0C25B8D3B8C6
:1038A00045B8D3B825B8D3B825B8D3B825B8D3B858
:1038B00025B8D3B825B8D3B825B8D3B845B8D3B848
:1038C00045B8D3B825B8D3B845B8D3B825B8D3B818
:1038D00025B8D3B825B8D3B845B8D3B825B8D3B828
:1038E00045B8D3B845B8D3B825B8D3B825B8D3B8F8
:1038F00025B8D3B825B8D3B825B8D3B825B8D3B828
:1039000025B8D3B825B8D3B825B8D3B825B8D3B817
:1039100025B8D3B825B8D3B835B8D3B835B8D3B8E7
:1039200035B8D3B80E94890CA5B82227D3B8A5B85A
:103930001A992160D3B8A5B81A992260D3B8A5B84E
:103940001A992460D3B8A5B81A992860D3B8A5B835
:103950001A992061D3B8A5B81A992062D3B8A5B82E
:103960001A992064D3B8A5B81A9920683327D3B818
:10397000A5B81A993160D3B8A5B81A993260D3B8EE
:10398000A5B81A993460D3B8A5B81A993860D3B8D5
:10399000A5B81A993061D3B8A5B81A993062D3B8CE
:1039A000A5B81A993064D3B8A5B81A9930684427D5
:1039B000D3B8A5B81A994160D3B8A5B81A9942608E
:1039C000D3B8A5B81A994460D3B8A5B81A99486075
:1039D000D3B8A5B81A994061D3B8A5B81A9940626E
:1039E000D3B8A5B81A994064D3B8A5B81A99406855
:1039F0005527D3B8A5B81A995160D3B8A5B81A9964
:103A00005260D3B8A5B81A995460D3B8A5B81A991A
:103A10005860D3B8A5B81A995061D3B8A5B81A9907
:103A20005062D3B8A5B81A995064D3B8B5B81A99EA
:103A30005068D3B835B8D3B835B8D3B808950E9414
:103A40002F0C25B8D3B845B8D3B825B8D3B825B806
:103A5000D3B825B8D3B825B8D3B825B8D3B825B8C6
:103A6000D3B845B8D3B825B8D3B825B8D3B845B876
:103A7000D3B825B8D3B825B8D3B825B8D3B845B886
:103A8000D3B825B8D3B845B8D3B845B8D3B825B856
:103A9000D3B825B8D3B825B8D3B825B8D3B825B886
:103AA000D3B825B8D3B825B8D3B825B8D3B825B876
:103AB000D3B825B8D3B825B8D3B825B8D3B825B866
:103AC000D3B860E070E080E090E060FBA1F8A5B8BA
:103AD000D3B861FBA1F8A5B8D3B862FBA1F8A5B82B
:103AE000D3B863FBA1F8A5B8D3B864FBA1F8A5B817
:103AF000D3B865FBA1F8A5B8D3B866FBA1F8A5B803
:103B0000D3B867FBA1F8A5B8D3B870FBA1F8A5B8E6
:103B1000D3B871FBA1F8A5B8D3B872FBA1F8A5B8CA
:103B2000D3B873FBA1F8A5B8D3B874FBA1F8A5B8B6
:103B3000D3B875FBA1F8A5B8D3B876FBA1F8A5B8A2
:103B4000D3B877FBA1F8A5B8D3B880FBA1F8A5B886
:103B5000D3B881FBA1F8A5B8D3B882FBA1F8A5B86A
:103B6000D3B883FBA1F8A5B8D3B884FBA1F8A5B856
:103B7000D3B885FBA1F8A5B8D3B886FBA1F8A5B842
:103B8000D3B887FBA1F8A5B8D3B890FBA1F8A5B826
:103B9000D3B891FBA1F8A5B8D3B892FBA1F8A5B80A
:103BA000D3B893FBA1F8A5B8D3B894FBA1F8A5B8F6
:103BB000D3B895FBA1F8A5B8D3B896FBA1F8A5B8E2
:103BC000D3B897FBA1F8A5B8D3B860E470E080E063
:103BD00098E160FBA1F8A5B8D3B861FBA1F8A5B83E
:103BE000D3B862FBA1F8A5B8D3B863FBA1F8A5B818
:103BF000D3B864FBA1F8A5B8D3B865FBA1F8A5B804
:103C0000D3B866FBA1F8A5B8D3B867FBA1F8A5B8EF
:103C1000D3B870FBA1F8A5B8D3B871FBA1F8A5B8CB
:103C2000D3B872FBA1F8A5B8D3B873FBA1F8A5B8B7
:103C3000D3B874FBA1F8A5B8D3B875FBA1F8A5B8A3
:103C4000D3B876FBA1F8A5B8D3B877FBA1F8A5B88F
:103C5000D3B880FBA1F8A5B8D3B881FBA1F8A5B86B
:103C6000D3B882FBA1F8A5B8D3B883FBA1F8A5B857
:103C7000D3B884FBA1F8A5B8D3B885FBA1F8A5B843
:103C8000D3B886FBA1F8A5B8D3B887FBA1F8A5B82F
:103C9000D3B890FBA1F8A5B8D3B891FBA1F8A5B80B
:103CA000D3B892FBA1F8A5B8D3B893FBA1F8A5B8F7
:103CB000D3B894FBA1F8A5B8D3B895FBA1F8A5B8E3
:103CC000D3B896FBA1F8A5B8D3B897FBB1F8B5B8AF
:103CD000D3B835B8D3B835B8D3B80895109100012A
:103CE00000E10A95F1F71A95D9F708950F931F93FC
:103CF000902F990F990F990F9870E92FE160942FE9
:103D0000990F92709E2B95B98823B9F07695679597
:103D1000579547953695279517950795942F990FA1
:103D2000E92FE270902F990F990F990F98709E2BA1
:103D300091602C9A95B9815049F71F910F91089580
:103D4000AB01BC01842F880F8270816085B99FE12F
:103D500001C091507695679557954795913039F404
:103D6000842F880F827089602C9A85B9F2CF842FB6
:103D7000880F827081602C9A85B99111EACF0895DD
:103D80004F925F926F927F928F929F92AF92BF926B
:103D90000F931F93902F990F990F990F9870E92FF8
:103DA000E160942F990F92709E2B95B9882349F169
:103DB000412C512C3201812C912C540183942C9A4A
:103DC0007695679557954795369527951795079555
:103DD000942F990FE92FE270902F990F990F990F57
:103DE00098709E2B916095B91A9B04C04828592859
:103DF0006A287B28880C991CAA1CBB1C8150F9F6E8
:103E000003C0412C512C3201C301B2011F910F910B
:103E1000BF90AF909F908F907F906F905F904F90EA
:103E20000895CF92DF92EF92FF920F931F936B0151
:103E30007C0100911C0110911D0120911E01309107
:103E40001F01369527951795079536952795179550
:103E500007958091200140E450E060E070E0895FC8
:103E60000E94761EC701B6010E94A01E00911C018F
:103E700010911D0120911E0130911F0180912001A0
:103E800040E451E060E070E0875F0E94761E609140
:103E90007802709179027068CB01A0E0B0E0BC01BB
:103EA000CD0162607A6086600E94A01E00911C01B4
:103EB00010911D0120911E0130911F018091200160
:103EC00040E251E060E070E0875F0E94761E109251
:103ED0007C0210927D0210927E0210927F0281E09D
:103EE00085B98FE141E050E060E070E0E1E191E010
:103EF000E5B995B91A9B14C000917C0210917D021E
:103F000020917E0230917F02042B152B262B372B1C
:103F100000937C0210937D0220937E0230937F02F7
:103F2000440F551F661F771F815011F72C9A89E0A7
:103F300085B91A9B14C080917C0290917D02A0915A
:103F40007E02B0917F02482B592B6A2B7B2B40932A
:103F50007C0250937D0260937E0270937F020091F9
:103F60001C0110911D0120911E0130911F018091B3
:103F7000200140E451E060E070E0875F0E94761E1F
:103F800060917802709179027068CB01A0E0B0E096
:103F9000BC01CD0184600E94A01E03E010E020E07F
:103FA00030E040E050E0BA0182E00E94761E1F91AE
:103FB0000F91FF90EF90DF90CF9008958F929F9296
:103FC000AF92BF92CF92DF92EF92FF920F931F9327
:103FD0004B015C0169017A0100911C0110911D01E6
:103FE00020911E0130911F01369527951795079551
:103FF00036952795179507958091200140E450E06C
:1040000060E070E0895F0E94761EC501B4010E94E5
:10401000A01E00911C0110911D0120911E013091E4
:104020001F018091200140E251E060E070E0875F75
:104030000E94761EC701B6010E94A01E00911C01BD
:1040400010911D0120911E0130911F0180912001CE
:1040500040E451E060E070E0875F0E94761E60916E
:104060007802709179027068CB01A0E0B0E0BC01E9
:10407000CD016260786086600E94A01E00911C01E4
:1040800010911D0120911E0130911F01809120018E
:1040900040E451E060E070E0875F0E94761E60912E
:1040A0007802709179027068CB01A0E0B0E0BC01A9
:1040B000CD0184600E94A01E03E010E020E030E00B
:1040C00040E050E0BA0182E00E94761E1F910F91FD
:1040D000FF90EF90DF90CF90BF90AF909F908F9028
:1040E00008958F929F92AF92BF92CF92DF92EF92FC
:1040F000FF920F931F93CF93DF938C01EB015A0133
:104100000E94A422811140C0A114B10439F0F5012C
:1041100080819181C81BD90B080F191F209799F135
:10412000E12CF12C0F2EF8EE8F2E912CF02D0F2E6E
:10413000F1EFCF2ED12CF02DF401808185FD16C03A
:1041400080818E7780830E943E25A114B10449F0BE
:10415000F50180819181E80EF91EF182E08285E00F
:1041600013C00E94A422882351F00EC0F80181914F
:104170008F01F60180832197FFEFEF1AFF0A209746
:10418000D9F680E001C080E0DF91CF911F910F91BF
:10419000FF90EF90DF90CF90BF90AF909F908F9067
:1041A0000895EF92FF921F93CF93DF9320912C01FC
:1041B00030912D012617370758F06115710539F434
:1041C000E8EEF0E020812E7720839B0101C09B0167
:1041D000A82FB92F40E0E8EEF0E062EF70E00F2E7C
:1041E000F1EFEF2EF12CF02D51E010E02BC080917B
:1041F00025018823D9F18530D9F1808183FD3AC02A
:10420000808182FD2CC0808180FF1CC0EB018881F1
:1042100090E02115310579F08032910560F44D91DF
:10422000E70148832150310901962115310519F024
:1042300080329105A1F7452F809709F0412F8081A9
:104240008E7780832115310591F64111D0CF07C0BB
:1042500080912501882381F0853019F40FC0E8EEA4
:10426000F0E0808182FFF4CF80E009C082E007C0E7
:1042700083E005C081E003C082E001C083E0DF91FC
:10428000CF911F91FF90EF900895CF93DF93611529
:10429000710529F4E8EEF0E020812B772083A82F28
:1042A000B92FE8EEF0E042EF50E021EF30E01AC025
:1042B000809125018823A1F18530A1F1808183FDC2
:1042C00033C0808182FFF4CF3BC0E90188818D93A8
:1042D0006150710921F0EA0188818111F6CF808156
:1042E0008B77808361157105A1F08091250188236A
:1042F000E9F08530E9F0808183FD1CC0808182FD7A
:104300001FC0D6CF809125018823B1F0853019F4E4
:1043100015C0E8EEF0E0808180FFF4CF80E015C0AA
:1043200082E013C083E011C081E00FC082E00DC0C5
:1043300083E00BC081E009C082E007C083E005C0D4
:10434000EA0188818111C1CFCACFDF91CF91089551
:10435000EF92FF921F93CF93DF9320912C01309126
:104360002D012617370758F06115710539F4E8EE6D
:10437000F0E020812E7720839B0101C09B01E82F74
:10438000F92F60E0A8EEB0E042EF50E00F2EF1EF21
:10439000EF2EF12CF02D71E010E02EC08091250160
:1043A000882309F43DC0853009F43CC08C9183FD1D
:1043B0003BC08C9182FD2DC08C9180FF1DC0EA0115
:1043C000888190E02115310581F08032910568F4F3
:1043D0006491E701688331962150310901962115D6
:1043E000310519F08032910599F7672F809709F010
:1043F000612F8C918E778C932115310579F661119F
:10440000CDCF07C080912501882381F0853019F434
:104410000FC0E8EEF0E0808182FFF4CF80E009C0B9
:1044200082E007C083E005C081E003C082E001C0F4
:1044300083E0DF91CF911F91FF90EF9008958F92CD
:104440009F92BF92CF92DF92EF92FF920F931F93B2
:10445000CF93DF93853058F124C0E7019883891703
:1044600031F0E80178812081E401588103C0242FD4
:10447000762F5B2D21FF12C03C913E7F3C93308113
:104480003D7F30833C9131603C93E8017883208309
:10449000E4015883E601288122233CF49F5F953094
:1044A000E1F68093E90081E01FC080E01DC08093A9
:1044B000E900982F242F762F50E0ABEEB0E0EDEE20
:1044C000F0E00CEE10E00F2EF0EF8F2E912CF02D7F
:1044D0000F2EFEEECF2ED12CF02D0F2EF9EEEF2E5B
:1044E000F12CF02DB12CC6CFDF91CF911F910F9100
:1044F000FF90EF90DF90CF90BF909F908F900895A6
:1045000080912601882344F0E8EEF0E014C0809109
:104510002501811103C00895E8EEF0E0808182FF5B
:10452000F6CFE8EEF0E080818B778083089580916C
:104530002501882341F0808180FFF9CFE8EEF0E08B
:1045400080818E77808308950F931F93CF93DF939D
:104550002091E4003091E50065E6ACEEB0E0E8EED5
:10456000F0E00BEE10E044EE50E001C09C019C91A5
:10457000892F817090FD1DC020C080912501882366
:1045800081F0853081F0E801888185FD0EC0EA0167
:10459000888199812817390751F3615039F784E0F0
:1045A0000FC082E00DC083E00BC081E009C080E055
:1045B00007C0808180FFE1CFFACF908192FFDDCFED
:1045C000DF91CF911F910F9108950E9426230E94A1
:1045D0002923E8EDF0E080818F77808380818068F7
:1045E000808380818F7D808384E089BD86E089BD62
:1045F00009B400FEFDCF1092250110922101109206
:1046000023011092220142E260E080E00E941F221A
:10461000E1EEF0E080818E7F8083E2EEF0E0808149
:1046200081608083808188608083E0EEF0E080811B
:104630008E7F80830895E3E6F0E080818E7F808323
:1046400081E0809324010E94E52208951092E20007
:1046500008951092E10008951F920F920FB60F92E5
:1046600011242F933F934F935F936F937F938F9377
:104670009F93AF93BF93EF93FF938091E10082FFED
:104680000BC08091E20082FF07C0E1EEF0E0808184
:104690008B7F80830E943D258091E10080FF16C0C2
:1046A0008091E20080FF12C0E2EEF0E080818E7F18
:1046B0008083808180618083E8EDF0E0808180628A
:1046C000808319BC109225010E943D258091E10054
:1046D00084FF30C08091E20084FF2CC084E089BD5B
:1046E00086E089BD09B400FEFDCFE8EDF0E08081F1
:1046F0008F7D8083E1EEF0E080818F7E8083E2EE2B
:10470000F0E080818F7E80838081816080838091D2
:104710002101882321F084E08093250109C0809144
:10472000E300882314F081E001C084E08093250138
:104730000E943D258091E10083FF20C08091E2002E
:1047400083FF1CC0E1EEF0E08081877F808382E000
:10475000809325011092210180818E7F8083E2EE7B
:10476000F0E080818E7F808380818061808342E25F
:1047700060E080E00E941F220E943D25FF91EF91A2
:10478000BF91AF919F918F917F916F915F914F9169
:104790003F912F910F900FBE0F901F9018950F9380
:1047A0001F93CF93DF93CDB7DEB7AA970FB6F894D8
:1047B000DEBF0FBECDBFE6E2F1E02EE231E0A1EFB9
:1047C000B0E08C918193E217F307D9F70E94902F04
:1047D0008091E80083FF2CC1E6E2F1E02081318185
:1047E000832F90E08A30910508F022C1FC01E65C3D
:1047F000FF4F0C94FB30203821F0223809F018C10B
:1048000008C08091220190912301992371F0826068
:104810000CC080912A018770E9EEF0E080838091DE
:10482000EB0085FB882780F91082E8EEF0E09081AC
:10483000977F9083A1EFB0E08C931C9280818E775C
:1048400080830E948022F4C0222309F400C1223018
:1048500009F0EEC001C181E0333009F080E08093BF
:10486000230129C080912A01877009F4E1C0809357
:10487000E9009091EB0090FF1EC0909127019330CA
:1048800031F4EBEEF0E080818062808314C0EBEEC7
:10489000F0E090819061908321E030E0A90102C0B6
:1048A000440F551F8A95E2F7AAEEB0E04C931C9294
:1048B0008081886080831092E900E8EEF0E08081DA
:1048C000877F80830E948022B3C02111B1C01091E4
:1048D00028011F770FB7F894E8EEF0E08081877F1A
:1048E00080830E948022E8EEF0E0808180FFFDCF8F
:1048F000E3EEF0E080818078812B80838068808384
:10490000111102C082E001C083E0809325010FBF36
:104910008FC02058223008F08BC0809128019091E0
:1049200029018C3D53E09507A1F583E08A838AE253
:1049300089835FB7F894DE01139620E03EE041E200
:10494000E32FF0E040935700849120FF03C082954D
:104950008F703F5F8F708A3018F090E0C79602C06A
:1049600090E0C0968D939D932F5F243149F75FBFF0
:1049700008EE10E0F8018081877F80836AE270E0B2
:10498000CE0101960E94D120F80180818B7780832F
:104990004FC0AE014F5F5F4F60912A010E94E0302F
:1049A000BC01892B09F444C008EE10E0F8019081A5
:1049B000977F908389819A810E94A821F801808144
:1049C0008B77808335C0203899F5E8EEF0E0808160
:1049D000877F8083809121018093F10080818E7791
:1049E00080830E94802224C0211122C0809128014E
:1049F0008230F0F4E8EEF0E08081877F8083809160
:104A00002801809321010E94802280912101882326
:104A100021F084E08093250109C08091E300882380
:104A200014F081E001C084E0809325010E94A1255B
:104A30008091E80083FF16C0EBEEF0E08081806299
:104A40008083E8EEF0E08081877F80830BC08091D7
:104A50002801813069F7FFCE80912801882309F46D
:104A600001CF29CFAA960FB6F894DEBF0FBECDBFF7
:104A7000DF91CF911F910F9108950895CF93809169
:104A80002501882361F0E9EEF0E0C081C770108253
:104A90008091E80083FD0E94CF23C093E900CF916D
:104AA000089584E690E09093770180937601909347
:104AB00081028093800290937B0280937A02089512
:104AC00084B7877F84BF0FB6F894A8958091600063
:104AD000886180936000109260000FBE80E890E0D3
:104AE0000FB6F89480936100909361000FBE1CBCD8
:104AF0001092C90080BFE4E6F0E080818C62808380
:104B0000E5E6F0E08081816080830E94512556981F
:104B10005E9A57988AB188618AB98BB188618BB9DE
:104B20008BEF84B981E085B92FEF80E792E02150C7
:104B300080409040E1F700C000005C980E941B2379
:104B4000089542E360E882E00E941F2242E361E8A8
:104B500081E00E941F220895CF9380912501843027
:104B600009F08DC180911701882389F0809132016D
:104B70008F5F809332019091320180917501891786
:104B800030F4109232019BB188E089278BB9809173
:104B90000C018130D9F58091150190911601813475
:104BA000910530F46091150170911601C62F01C076
:104BB000C0E46C2F88E791E00E94510480911501B8
:104BC000909116018C1B9109909316018093150109
:104BD00080912E0190912F01A0913001B09131016F
:104BE0008C0F911DA11DB11D80932E0190932F015B
:104BF000A0933001B093310180911501909116017D
:104C0000892B09F03CC110920C0139C180910C0133
:104C10008230D9F58091150190911601813491056A
:104C200030F46091150170911601C62F01C0C0E4E7
:104C30006C2F88E791E00E948A0580911501909180
:104C400016018C1B91099093160180931501809198
:104C50002E0190912F01A0913001B09131018C0F64
:104C6000911DA11DB11D80932E0190932F01A09342
:104C70003001B09331018091150190911601892B7B
:104C800009F0FDC010920C01FAC080910C01833034
:104C9000D9F580911501909116018134910530F478
:104CA0006091150170911601C62F01C0C0E46C2FF0
:104CB00088E791E00E94E905809115019091160125
:104CC0008C1B9109909316018093150180912E0100
:104CD00090912F01A0913001B09131018C0F911D65
:104CE000A11DB11D80932E0190932F01A09330013F
:104CF000B09331018091150190911601892B09F033
:104D0000BEC010920C01BBC080910C018430D9F55B
:104D100080911501909116018134910530F46091D4
:104D2000150170911601C62F01C0C0E46C2F88E7F1
:104D300091E00E94610680911501909116018C1BF3
:104D40009109909316018093150180912E01909105
:104D50002F01A0913001B09131018C0F911DA11D47
:104D6000B11D80932E0190932F01A0933001B09339
:104D700031018091150190911601892B09F07FC0B6
:104D800010920C017CC080910C018530D9F5809186
:104D90001501909116018134910530F4609115014F
:104DA00070911601C62F01C0C0E46C2F88E791E016
:104DB0000E94D90680911501909116018C1B9109D2
:104DC000909316018093150180912E0190912F01EF
:104DD000A0913001B09131018C0F911DA11DB11D29
:104DE00080932E0190932F01A0933001B093310155
:104DF0008091150190911601892B09F040C0109205
:104E00000C013DC080910C018830C9F580911501DD
:104E1000909116018134910530F4609115017091E3
:104E20001601C62F01C0C0E46C2F88E791E00E94F4
:104E3000E30C80911501909116018C1B91099093C0
:104E400016018093150180912E0190912F01A09160
:104E50003001B09131018C0F911DA11DB11D8093C6
:104E60002E0190932F01A0933001B09331018091D6
:104E7000150190911601892B11F410920C01CF911C
:104E800008950E94602578940E94AC250E943E25DA
:104E9000FBCFCF92DF92EF92FF920F931F936B01A4
:104EA0007C0100E010E0980140E050E0BA0182E0AF
:104EB0000E94761E00E010E020E030E8B701A60175
:104EC00080E20E94C01E6B017C0103E010E020E044
:104ED00030E040E050E0BA0182E00E94761EC70157
:104EE000B6011F910F91FF90EF90DF90CF90089542
:104EF0002F923F924F925F926F927F928F929F92EA
:104F0000AF92BF92CF92DF92EF92FF920F931F93D7
:104F1000CF93DF93CDB7DEB7A6970FB6F894DEBF79
:104F20000FBECDBF9EA38DA3212C312C812C19A2A5
:104F30001AA21BA21CA20F2EF4E19F2EF02D0F2E01
:104F4000F7E0AF2EB12CF02D792C04C07A947720A5
:104F500009F4BBC18091200192E0980F850102C045
:104F6000000F111F9A95E2F70160012E000C220B31
:104F7000330B40E550E060E070E08B5F0E94761EEE
:104F800060E070EC84E090E00E9449276B017C01B6
:104F900082FFDCCF8091200192E0980F850102C052
:104FA000000F111F9A95E2F70160012E000C220BF1
:104FB000330B40E450E060E070E08B5F0E94761EAF
:104FC00060E070E0CB010E9449272B013C01E3FE29
:104FD0009CC08091200192E0980F850102C0000FD3
:104FE000111F9A95E2F70160012E000C220B330B82
:104FF00048E450E060E070E08B5F0E94761E60E065
:1050000070E0CB010E94492769A37AA38BA39CA3DC
:105010008091200192E0980F850102C0000F111FBE
:105020009A95E2F70160012E000C220B330B40E54C
:1050300050E060E070E08B5F0E94761E60E070ECF4
:1050400080E090E00E944927411420E1520620E2CE
:1050500062062FEF720609F477CF44E0441640E170
:10506000540640E264064FEF740669F489A19AA1E0
:10507000ABA1BCA180930D0190930E01A0930F01F1
:10508000B093100161CFD301C2019052A042BF4F33
:105090008D3F2FE09207A105B105C0F4B695A79505
:1050A00097958795B695A79597958795880F991F9A
:1050B000880F991FFC01E858FE4F89A19AA1ABA166
:1050C000BCA180839183A283B3833ECF411490E43B
:1050D000590690E269069FEF790609F035CFE82D71
:1050E000F0E0EE0FFF1FEE0FFF1FA1E0B0E0AC0FEE
:1050F000BD1FEA0FFB1F89A19AA1ABA1BCA18083B0
:105100009183A283B38383941FCF411492E0590605
:1051100090E269069FEF790639F491012F5F3F4FC6
:10512000232809F450C0D1C04114A0E15A06A0E2DE
:105130006A06AFEF7A0669F480911101909112012D
:10514000A0911301B091140189A39AA3ABA3BCA3AE
:105150007FC094E0491690E1590690E269069FEFFE
:10516000790669F480910D0190910E01A0910F01D3
:10517000B091100189A39AA3ABA3BCA369C0D301CA
:10518000C2019052A042BF4F8D3F2FE09207A10570
:10519000B105C0F4B695A79597958795B695A7954F
:1051A00097958795880F991F880F991FFC01E858DC
:1051B000FE4F80819181A281B38189A39AA3ABA381
:1051C000BCA346C09101D301C2019250A042BF4F7F
:1051D000813041E09407A105B105D0F4B695A795BB
:1051E00097958795B695A79597958795880F991F59
:1051F000880F991FEDA1FEA1E80FF91F8081918111
:10520000A281B38189A39AA3ABA3BCA3190120C037
:10521000411490E4590690E269069FEF7906B9F4CB
:105220008A94E82DF0E0EE0FFF1FEE0FFF1FA1E0C4
:10523000B0E0AC0FBD1FEA0FFB1F80819181A281FE
:10524000B38189A39AA3ABA3BCA3190101C019011F
:105250008091200192E0980F850102C0000F111F7C
:105260009A95E2F70160012E000C220B330B48E403
:1052700050E060E070E08B5F0E94761E69A17AA129
:105280008BA19CA10E94492769A37AA38BA39CA30D
:105290008091200192E0980F850102C0000F111F3C
:1052A0009A95E2F70160012E000C220B330B40E5CA
:1052B00050E060E070E08B5F0E94761E60E070EC72
:1052C00080E090E00E9449273FCEA6960FB6F89462
:1052D000DEBF0FBECDBFDF91CF911F910F91FF9029
:1052E000EF90DF90CF90BF90AF909F908F907F9086
:1052F0006F905F904F903F902F9008955B98109221
:105300001701E8EEF0E08081877F80830E94802291
:1053100008955B9A10921701E8EEF0E08081877F94
:1053200080830E948022089581E08093170110926B
:1053300032018091280180937501E8EEF0E08081D0
:10534000877F80830E94802208950F931F93CF93BD
:10535000DF930FEF10E020E030E040E050E0BA01D2
:1053600085E00E94761E06E010E020E030E040E09C
:1053700050E0BA0185E00E94761E00E010E098013E
:1053800040E050E0BA0180E20E94761E8FE19EE488
:105390000197F1F700C0000000E010E0980141E043
:1053A00050E060E070E080E20E94C01E609318014F
:1053B0007093190180931A0190931B016115710577
:1053C0008105910569F0E0E0F0E096958795779585
:1053D000679531966115710581059105B1F702C098
:1053E000E0E0F0E0CF01029701E010E002C0000F22
:1053F000111F8A95E2F7012E000C220B330B41E0BE
:1054000050E060E070E08FEF8E0F0E94761E03E0A8
:1054100010E020E030E040E050E0BA0182E00E947D
:10542000761EC8EED0E08881877F888364E070E0D4
:1054300088E191E00E94D12088818B778883DF9179
:10544000CF911F910F910895DF92EF92FF920F93EA
:105450001F93CF93DF937A01E901FA01D080108284
:1054600000911C0110911D0120911E0130911F011E
:10547000369527951795079536952795179507958E
:10548000AB01BC01440F551F661F771F440F551F0A
:10549000661F771F440F551F661F771F80912001DD
:1054A000895F0E94761E2097B9F190E030E060E0BD
:1054B00070E021E050E041E06F5F7F4F6C177D07A7
:1054C00049F48D2D880F8270896085B92C9A1A99BC
:1054D00009C022C08D2D880F8270816085B92C9AF9
:1054E0001A9B09C0F701E30FF11D8081822B808395
:1054F000C617D70789F09F5F983049F43F5FF701DF
:10550000E30FF11DD0801082952F242F02C0220FAF
:10551000D6946C177D0781F603E010E020E030E0C0
:1055200040E050E0BA0182E00E94761EDF91CF9108
:105530001F910F91FF90EF90DF9008950F931F93AD
:10554000CF93DF93C0912A01D0912B01209799F03E
:1055500080E0E82FF0E0EE0FFF1FEE0FFF1FE8588E
:10556000FE4F10821182128213828F5F282F30E04B
:105570002C173D0770F308EE10E0F8018081877F5B
:105580008083209128013091290148E751E062E0B1
:1055900070E080E090E00E94242ABE0188E791E05C
:1055A0000E94D120F80180818B778083DF91CF9199
:1055B0001F910F9108950F931F93CF93DF9306E2EE
:1055C00011E0F80166817781C8EED0E08881877F9D
:1055D000888388E791E00E944521F8012281338188
:1055E00048E751E062E070E080E090E00E94242A09
:1055F00088818E778883DF91CF911F910F910895D5
:10560000EF92FF920F931F93CF93DF930F2EF6E24B
:10561000EF2EF1E0FF2EF02DF70106811781C8EE85
:10562000D0E08881877F8883B80188E791E00E9475
:105630004521F7012281338148E751E060E070E0C5
:10564000CB010E94242A88818E77888381E0809311
:10565000E90040E050E0B80188E791E00E94712045
:1056600088818E778883DF91CF911F910F91FF9072
:10567000EF9008954F925F927F928F929F92AF9298
:10568000BF92CF92DF92EF92FF920F931F93CF932F
:10569000DF93CDB7DEB7C054D1090FB6F894DEBFA3
:1056A0000FBECDBFE6E2F1E0E280F3800481158118
:1056B000D6800F2EF8EEAF2EB12CF02DD5018C91A7
:1056C000877F8C93B801660F771FCE0101960E94E9
:1056D0004521F50180818E778083DD2009F457C054
:1056E0009E012F5F3F4FA901400F511F6FEF6D0DBE
:1056F00070E06F5F7F4F620F731F6894772473F8B9
:10570000912C88248394F8E0EF16F10410F4AE2C69
:1057100001C0A72CF9012A018081880F982F92706F
:10572000DA018C91880F880F880F8870892B81602F
:1057300085B9AA2011F1DA2CB92CC82C2C9A8081B9
:1057400086958083D2018C9186958C939081990F58
:1057500092709160880F880F880F8870892B85B9A7
:105760001A99BC28CC0CDA94D110E8CFB1E0EB1A2E
:10577000F108AA94EA18F10801C0B92CB0822F5F91
:105780003F4F4F5F5F4F2617370709F0BCCF81E0CF
:105790008093E9000E94A422E8EEF0E0808185FF7A
:1057A000FDCF808180FFFACF40E050E0B801CE010C
:1057B00001960E947120E8EEF0E080818E77808370
:1057C000C05CDF4F0FB6F894DEBF0FBECDBFDF91D8
:1057D000CF911F910F91FF90EF90DF90CF90BF90EE
:1057E000AF909F908F907F905F904F9008950F9310
:1057F0001F93CF93DF93CDB7DEB72C970FB6F894F6
:10580000DEBF0FBECDBF08EE10E0F8018081877FBC
:1058100080836CE070E0CE0101960E944521F80182
:1058200080818E77808309851A852B853C854D8103
:105830005E816F81788589810E94761E2C960FB6D5
:10584000F894DEBF0FBECDBFDF91CF911F910F91B6
:1058500008950F931F93CF93DF9300D000D0CDB75F
:10586000DEB708EE10E0F8018081877F808364E076
:1058700070E0CE0101960E944521F80180818E776B
:10588000808369817A818B819C810E94A01E0F9008
:105890000F900F900F90DF91CF911F910F9108956E
:1058A0000F931F93809128018093200124E0280FFB
:1058B00087E090E002C0880F991F2A95E2F7876081
:1058C000092E000CAA0BBB0B80931C0190931D01A9
:1058D000A0931E01B0931F010FEF10E020E030E015
:1058E00040E050E0BA0185E00E94761E02E010E040
:1058F00020E030E040E050E0BA0182E00E94761EF5
:10590000E8EEF0E08081877F80830E9480221F91F3
:105910000F9108950F931F93E8E1F1E0A6E2B1E043
:1059200012968D919C9113979183808314968D91FB
:105930009C911597938382838091200192E0980F28
:1059400007E010E002C0000F111F9A95E2F7016016
:10595000012E000C220B330B4091180150911901BC
:1059600060911A0170911B01440F551F661F771F2C
:10597000440F551F661F771F440F551F661F771F63
:105980008B5F0E94761EE8EEF0E08081877F808347
:105990000E9480221F910F910895EF92FF920F9322
:1059A0001F93CF93DF9300D000D0CDB7DEB7E8E1EF
:1059B000F1E0A6E2B1E012968D919C91139791834C
:1059C000808314968D919C911597938382830F2EDB
:1059D000F8EEEF2EF12CF02DF7018081877F808388
:1059E00000E010E0980140E050E0BA0182E00E943F
:1059F000761E409118015091190160911A01709121
:105A00001B0100E010E020E030E880E20E94C01EB0
:105A100069837A838B839C8303E010E020E030E08D
:105A200040E050E0BA0182E00E94761E64E070E03F
:105A3000CE0101960E94D120F70180818B7780836F
:105A40000F900F900F900F90DF91CF911F910F91BA
:105A5000FF90EF900895EF92FF920F931F93CF93D3
:105A6000DF9300D000D0CDB7DEB7E8E1F1E0A6E2E9
:105A7000B1E012968D919C91139791838083149637
:105A80008D919C911597938382830F2EF8EEEF2EC4
:105A9000F12CF02DF7018081877F808300E010E0FA
:105AA000980140E050E0BA0182E00E94761E4091E9
:105AB00018015091190160911A0170911B0100E0C9
:105AC00010E020E030E880E20E94C01E69837A8303
:105AD0008B839C83609318017093190180931A0142
