:10000000B9C00000D4C00000D2C00000D0C00000C1
:10001000CEC00000CCC00000CAC00000C8C00000B4
:10002000C6C00000C4C000000C94B51CC0C00000D5
:10003000BEC00000BCC00000BAC00000B8C00000D4
:10004000B6C00000B4C00000B2C00000B0C00000E4
:10005000AEC00000ACC00000AAC00000A8C00000F4
:10006000A6C00000A4C00000A2C00000A0C0000004
:100070009EC000009CC000009AC0000098C0000014
:1000800096C0000094C0000092C0000090C0000024
:100090008EC000008CC00000671E301EA01D301EE8
:1000A000A01D0F1EEA1DA01DD81DBD1DD121C721F9
:1000B000BD21B321DD1FDD1FA321DD1FDD1FDD1FDE
:1000C000DD1FDD1FDD1FDD1FDD1FDD1FDD1FDD1F50
:1000D000DD1FDD1FDD1FDD1FDD1FDD1FDD1FDD1F40
:1000E000DD1FDD1FDD1FDD1FDD1FDD1F99217521D8
:1000F000DD1FDD1FDD1FDD1FDD1F5D2145213621D9
:10010000DD1F26210C21DD1FDD1FDD1F0021CA1F81
:10011000DD1FDD1FE720DD1FDD1FDD1FDD1FDD1FF4
:10012000DD1FDD1FDD1FDD1FDD1FDD1FB82083206C
:1001300054203520DD1F0720B0207B20A220FE1F89
:10014000E61F09022000010100806409040000028A
:100150000000000007050202400000070581024080
:1001600000001201000200000040C016DE05010080
:100170000000000111241FBEC0E0D2E0DEBFCDBFF1
:1001800011E0A0E0B1E0E2EFF5E402C005900D92CD
:10019000A630B107D9F721E0A6E0B1E001C01D9279
:1001A000AB34B207E1F70E945E1F0C94F72228CF10
:1001B0000F931F9361BB072F182F292F332702B9E5
:1001C000AA27BB278BB982E08A95F1F71F910F917F
:1001D0000895CF93DF93E0910B01F0910C01099505
:1001E00081E08093E90004C08091E80080FD11C0A7
:1001F0008091470190914801A0914901B0914A0135
:10020000892B8A2B8B2B81F710924401DF91CF91A0
:1002100008958091470190914801A0914901B091C2
:100220004A0181349105A105B10508F04CC0409107
:100230004701509148016091490170914A01D42FC2
:100240008091470190914801A0914901B0914A01E4
:10025000841B9109A109B10980934701909348013A
:10026000A0934901B0934A01442339F1C0E0609161
:100270003F01709140018091410190914201E091D4
:100280001701F0911801099580913F01909140016B
:10029000A0914101B09142010196A11DB11D809331
:1002A0003F0190934001A0934101B093420183B17B
:1002B0008093F100CF5FCD17D0F28091E8008E7768
:1002C0008093E80095CF8091470190914801A091DB
:1002D0004901B0914A0180549109A109B109809363
:1002E000470190934801A0934901B0934A01D0E49B
:1002F000BDCFCF93DF9380913F0190914001A091BA
:100300004101B0914201B695A79597958795809345
:100310003F0190934001A0934101B0934201E091CD
:100320000B01F0910C01099581E08093E90004C074
:100330008091E80080FD11C08091470190914801B3
:10034000A0914901B0914A01892B8A2B8B2B81F70F
:1003500010924401DF91CF910895809147019091CF
:100360004801A0914901B0914A0181349105A1054C
:10037000B10508F04FC0409147015091480160918C
:10038000490170914A01D42F809147019091480111
:10039000A0914901B0914A01841B9109A109B109B9
:1003A0008093470190934801A0934901B0934A017B
:1003B000442351F1C0E060913F0170914001809170
:1003C000410190914201E0911701F09118010995C6
:1003D00080913F0190914001A0914101B091420173
:1003E0000196A11DB11D80933F0190934001A09300
:1003F0004101B093420183B18093F10086B18093B3
:10040000F100CE5FCD17B8F28091E8008E7780932F
:10041000E80092CF8091470190914801A091490155
:10042000B0914A0180549109A109B1098093470113
:1004300090934801A0934901B0934A01D0E4BACF08
:10044000CF93DF93EC0160913F0170914001809167
:10045000410190914201E0911701F0911801099535
:100460008091F100E0911101F091120190E0099565
:1004700040913F01509140016091410170914201D2
:100480004F5F5F4F6F4F7F4F40933F01509340014D
:10049000609341017093420198819F5F9883DF913F
:1004A000CF910895CF93DF93EA01E0911701F09186
:1004B00018010995E0911101F0911201CE01DF912F
:1004C000CF9109948091000190910101892B71F0E5
:1004D00080E090E025E02A95F1F700000196209158
:1004E00000013091010182179307A0F30895109243
:1004F00009018FEF84B987B9779A82E08A95F1F77D
:100500000895809109018111F2CF0895CF93DF936F
:10051000EC0180913F0190914001A0914101B09187
:100520004201BC01CD019695879577956795E0913D
:100530001701F09118010995809109018111D7DF08
:100540008091F10085B98091F10088B9759840914A
:100550003F015091400160914101709142014E5F15
:100560005F4F6F4F7F4F40933F0150934001609327
:1005700041017093420198819E5F9883759ADF9143
:10058000CF910895CF93DF93D42FC52F969587955C
:1005900077956795E0911701F09118010995809181
:1005A00009018111A4DFD5B9C8B9759881E08A9590
:1005B000F1F7759ADF91CF910895CF93DF9300D033
:1005C000CDB7DEB720910901222329F089839A83D0
:1005D0008EDF9A81898185B998B982E08A95F1F791
:1005E000759881E08A95F1F7759A0F900F90DF91D9
:1005F000CF91089581E0809309019FEF95B914B8D8
:1006000098B917B88A95F1F77798089580910901FC
:10061000811101C0EFCF089580910901811101C0BE
:10062000E9DF23B186B190E0982F8827820F911DD2
:10063000089580910901882329F0109209018FEF14
:1006400084B9779A089581E0809309018FEF85B985
:1006500014B87798089580910901811101C0F3CFF2
:10066000089580910901811101C0EDDF83B190E00F
:10067000089590910901992329F0109209019FEFA3
:1006800094B9779A85B9759881E08A95F1F7759A4A
:1006900008959F92AF92BF92CF92DF92EF92FF9216
:1006A0000F931F93CF93DF9382E08093E900109222
:1006B00008011092070180910601813009F4F8C207
:1006C000409A759885E08A95F1F7000080910901BC
:1006D000882321F0109209018FEF84B980E885B951
:1006E00085E08A95F1F70000759A409860913F0186
:1006F000709140018091410190914201E091170178
:10070000F0911801099585E38A95F1F70000679B40
:10071000FECF85E08A95F1F7000080913701909136
:100720003801892B09F086C18091450190914601DD
:10073000909308018093070120913D0130913E0183
:1007400080913F0190914001A0914101B0914201FF
:10075000820F931FA11DB11D80933F019093400113
:10076000A0934101B093420185E38A95F1F700001F
:1007700010E1D0E899249A9440E5B42E01E0C2E05B
:1007800004C08091E80082FD1AC0809147019091D9
:100790004801A0914901B0914A01892B8A2B8B2BEA
:1007A00081F710924401DF91CF911F910F91FF903B
:1007B000EF90DF90CF90BF90AF909F900895809181
:1007C000070190910801009709F467C14091470122
:1007D000509148016091490170914A01413451059D
:1007E00061057105D8F120E4C22ED12CE12CF12C49
:1007F00030E4A32E2A2D30E02817390708F040C036
:10080000821B930B9093080180930701AA2061F04B
:1008100080E09091F10095B975989C2F9A95F1F729
:10082000759A8F5F8A11F5CF8091470190914801A9
:10083000A0914901B0914A018C199D09AE09BF09E7
:100840008093470190934801A0934901B0934A01D6
:100850008091E8008B778093E80097CFC0904701A4
:10086000D0904801E0904901F0904A01AC2CDD2481
:10087000EE24FF242A2D30E02817390708F4C0CFD2
:10088000A81A892B99F080E09091F10095B975989C
:100890009C2F9A95F1F7759A8F5F482F50E0209121
:1008A0000701309108014217530770F38091470107
:1008B00090914801A0914901B0914A01892B8A2B5E
:1008C0008B2B41F4AA2009F4AFCF809107019091BE
:1008D000080190CF409A759885E08A95F1F700005D
:1008E00080910901882319F01092090194B815B973
:1008F00085E08A95F1F70000759A409885E38A951E
:10090000F1F7000085E38A95F1F70000679BFECFC1
:1009100085E08A95F1F7000080910601813009F4A5
:100920003EC1409A759885E08A95F1F70000809164
:100930000901882319F01092090194B8D5B985E00E
:100940008A95F1F70000759A409860913F01709187
:1009500040018091410190914201E0911701F09195
:100960001801099585E38A95F1F70000679BFECF92
:1009700085E08A95F1F70000809137019091380168
:10098000892B29F5809145019091460190930801AA
:100990008093070120913D0130913E0180913F01FC
:1009A00090914001A0914101B0914201820F931FAB
:1009B000A11DB11D80933F0190934001A09341017F
:1009C000B093420185E38A95F1F700007BCF8091D7
:1009D0004501909146012091370130913801821BE9
:1009E000930B909308018093070180913F019091B0
:1009F0004001A0914101B091420120913701309115
:100A0000380140913D0150913E01840F951FA11D79
:100A1000B11D821B930BA109B10980933F019093F3
:100A20004001A0934101B09342011092380110920D
:100A30003701C8CF8091450190914601209137013F
:100A400030913801821B930B90930801809307012A
:100A500080913F0190914001A0914101B0914201EC
:100A6000209137013091380140913D0150913E0174
:100A7000840F951FA11DB11D821B930BA109B10904
:100A800080933F0190934001A0934101B0934201B4
:100A9000109238011092370167CE409A759885E020
:100AA0008A95F1F7000080910901882319F01092CE
:100AB000090194B815B985E08A95F1F70000759A97
:100AC000409885E38A95F1F7000085E38A95F1F770
:100AD0000000679BFECF85E08A95F1F700008091CA
:100AE0000601813009F464C1409A759885E08A95C1
:100AF000F1F7000080910901882319F01092090193
:100B000094B8D5B985E08A95F1F70000759A4098B8
:100B100060913F01709140018091410190914201AB
:100B2000E0911701F0911801099585E38A95F1F795
:100B30000000679BFECF85E08A95F1F70000809169
:100B4000370190913801892B09F06AC080914501E5
:100B500090914601909308018093070120913D01F7
:100B600030913E0180913F0190914001A09141015F
:100B7000B0914201820F931FA11DB11D80933F01CF
:100B800090934001A0934101B093420185E38A957F
:100B9000F1F70000809107019091080117CE409A6B
:100BA000759885E08A95F1F7000080910901882306
:100BB00019F01092090194B895B885E08A95F1F77B
:100BC0000000759A409885E38A95F1F70000679BCD
:100BD000FECF85E08A95F1F70000809139018111FF
:100BE00052C080913F0190914001A0914101B0918C
:100BF000420190FFA2C0409A759885E08A95F1F76E
:100C0000000080910901882319F01092090194B81D
:100C100005B985E08A95F1F70000759A409881CE74
:100C20008091450190914601209137013091380122
:100C3000821B930B909308018093070180913F01E1
:100C400090914001A0914101B09142012091370162
:100C50003091380140913D0150913E01840F951F24
:100C6000A11DB11D821B930BA109B10980933F0106
:100C700090934001A0934101B0934201109238013A
:100C80001092370183CF409A759885E08A95F1F7E5
:100C9000000080910901882319F01092090194B88D
:100CA000B5B885E08A95F1F70000759A409839CE7D
:100CB000409A759885E08A95F1F7000080910901C6
:100CC000882321F0109209018FEF84B98FEF85B945
:100CD00085E08A95F1F70000759A409885E38A953A
:100CE000F1F70000679BFECF85E08A95F1F70000E1
:100CF0008091390181114CC080913F019091400158
:100D0000A0914101B091420190FF2CC0409A75988A
:100D100085E08A95F1F7000080910901882321F090
:100D2000109209018FEF84B981E085B985E08A9539
:100D3000F1F70000759A4098C3CC409A759885E009
:100D40008A95F1F7000080910901882319F010922B
:100D5000090194B815B885E08A95F1F70000759AF5
:100D60004098DFCD409A759885E08A95F1F70000AC
:100D700080910901882321F0109209018FEF84B935
:100D800015B885E08A95F1F70000759A409898CCDF
:100D9000409A759885E08A95F1F7000080910901E5
:100DA000882321F0109209018FEF84B980E5BDCF2F
:100DB000409A759885E08A95F1F7000080910901C5
:100DC000882319F01092090194B895B885E08A95A6
:100DD000F1F70000759A409885E38A95F1F70000D5
:100DE000679BFECF85E08A95F1F70000809139017D
:100DF000811134C080913F0190914001A091410147
:100E0000B091420190FF15C0409A759885E08A958F
:100E1000F1F7000080910901882319F0109209016F
:100E200094B805B985E08A95F1F70000759A409865
:100E30005BCE409A759885E08A95F1F70000809125
:100E40000901882319F01092090194B815B885E0BA
:100E50008A95F1F70000759A409846CE409A7598A9
:100E600085E08A95F1F7000080910901882319F047
:100E70001092090194B8B5B885E08A95F1F70000A1
:100E8000759A409831CE8FEF80BB81B98AB98BEFCC
:100E90008DB984E08EB974987198769A089580938C
:100EA000250191E0909309011092390110923F01C0
:100EB00010924001109241011092420128ED30E061
:100EC000309318012093170122E632E03093240179
:100ED00020932301813099F1823009F463C083307B
:100EE000E9F48BE78DB984E88EB98FEF87B985B9BE
:100EF00014B8739A83E39AE190931A0180931901CD
:100F000089E493E09093100180930F018AE398E1C4
:100F1000909327018093260141984098759AE0911B
:100F20001701F091180160E070E0CB0109958FE3A3
:100F30009CE90197F1F700C0000087E10895A3DF65
:100F40008FEF87B918B885B914B889E393E0909307
:100F500012018093110181E393E090931401809337
:100F6000130189EE90E090931A018093190189E1B1
:100F700093E090931601809315018BE293E0909398
:100F80000C0180930B0180E292E090932901809301
:100F9000280182E592E090931C0180931B017398D5
:100FA0007798BCCF70DF8FEF85B914B888B917B8C0
:100FB0008DED92E090931201809311018CE093E00B
:100FC000909314018093130189E791E090931A01A3
:100FD0008093190181E892E09093160180931501A6
:100FE00086E093E090930C0180930B0186E892E0F9
:100FF000909329018093280182EC92E090931C0148
:1010000080931B01739A779889CF0F931F9361BBCD
:10101000072F182F292F332702B98C0122273327B6
:101020000BB990FD04C073981F910F910895739AA6
:101030001F910F9108950F931F9361BB072F182FD6
:10104000292F332702B98C01222733270BB990FFB0
:101050000AC0739A91FF0AC0749A92FD0AC07198EF
:101060001F910F910895739891FDF6CF749892FF98
:10107000F6CF719A1F910F9108950F931F9360FD02
:1010800017C018B8DC01CB01B695A7959795879541
:101090008D01222733270BB9092F1A2F2B2F332726
:1010A00002B981BB82E08A95F1F71F910F910895F3
:1010B00020E828B9E7CF0F931F9382FD11C018B81D
:1010C0008C01222733270BB9072F182F292F3327FD
:1010D00002B961BB82E08A95F1F71F910F910895E3
:1010E00021E028B9EDCFE0911701F091180165E5F5
:1010F00075E580E090E00995E0911101F091120111
:101100008AEA90E00995E0911701F09118016AEAE6
:101110007AE280E090E00995E0911101F0911201EE
:1011200085E590E00995E0911701F091180165E5DA
:1011300075E580E090E00995E0911101F0911201D0
:1011400080E890E00995E0911701F091180165E5BC
:1011500075E580E090E00995E0911101F0911201B0
:101160008AEA90E00995E0911701F09118016AEA86
:101170007AE280E090E00995E0911101F09112018E
:1011800085E590E0099560913F0170914001809163
:10119000410190914201E0911B01F0911C0140E35B
:1011A00050E00994E0911701F09118016AEA7AE0A1
:1011B00080E090E00995E0911101F09112018AEA36
:1011C00090E00995E0911701F091180165E575E04F
:1011D00080E090E00995E0911101F091120185E520
:1011E00090E00995E0911701F09118016AEA7AE020
:1011F00080E090E00995E0911101F091120180E802
:1012000090E00995E0911701F09118016AEA7AE0FF
:1012100080E090E00995E0911101F09112018AEAD5
:1012200090E00995E0911701F091180165E575E0EE
:1012300080E090E00995E0911101F091120185E5BF
:1012400090E0099560913F017091400180914101CA
:1012500090914201E0911B01F0911C0140E350E0AC
:101260000994E0911701F091180165E575E080E0BF
:1012700090E00995E0911101F09112018AEA90E065
:101280000995E0911701F09118016AEA72E080E097
:1012900090E00995E0911101F091120185E590E04F
:1012A0000995E0911701F091180165E575E080E07E
:1012B00090E00995E0911101F091120180E890E031
:1012C0000995E0911701F091180165E575E080E05E
:1012D00090E00995E0911101F09112018AEA90E005
:1012E0000995E0911701F09118016AEA72E080E037
:1012F00090E00995E0911101F091120185E590E0EF
:10130000099560913F017091400180914101909158
:101310004201E0911B01F0911C0140E350E009946F
:1013200060913F0170914001809141019091420193
:10133000E0911B01F0911C0140E550E0099560919E
:101340003F01709140018091410190914201E091F3
:101350001B01F0911C0140E650E0099560913F01AE
:10136000709140018091410190914201E0911B01F7
:10137000F0911C0140ED50E00995E0912301F091BE
:101380002401099560913F017091400180914101D4
:1013900090914201E0911B01F0911C0140E250E06C
:1013A000099560913F0170914001809141019091B8
:1013B0004201E0911B01F0911C0140ED50E00995C4
:1013C000E0912301F09124010995E0911701F0913A
:1013D000180160E070E0CB010995E0911101F091F6
:1013E00012018FEF90E00995E0911701F09118013B
:1013F00060E070E0CB010995E0911101F0911201DC
:1014000080EF90E00994E0911701F091180165E5F3
:1014100075E580E090E00995E0911101F0911201ED
:101420008AEA90E00995E0911701F09118016AEAC3
:101430007AE280E090E00995E0911101F0911201CB
:1014400085E590E00995E0911701F091180165E5B7
:1014500075E580E090E00995E0911101F0911201AD
:1014600080E890E00995E0911701F091180165E599
:1014700075E580E090E00995E0911101F09112018D
:101480008AEA90E00995E0911701F09118016AEA63
:101490007AE280E090E00995E0911101F09112016B
:1014A00085E590E00995E0911701F091180165E557
:1014B00075E580E090E00995E0911101F09112014D
:1014C00080E190E00994E0911701F09118016AEA37
:1014D0007AE080E090E00995E0911101F09112012D
:1014E0008AEA90E00995E0911701F091180165E50D
:1014F00075E080E090E00995E0911101F091120112
:1015000085E590E00995E0911701F09118016AEAEC
:101510007AE080E090E00995E0911101F0911201EC
:1015200080E890E00995E0911701F09118016AEACE
:101530007AE080E090E00995E0911101F0911201CC
:101540008AEA90E00995E0911701F091180165E5AC
:1015500075E080E090E00995E0911101F0911201B1
:1015600085E590E00995E0911701F09118016AEA8C
:101570007AE080E090E00995E0911101F09112018C
:1015800080E190E00994E0911701F091180165E580
:1015900075E080E090E00995E0911101F091120171
:1015A0008AEA90E00995E0911701F09118016AEA42
:1015B00072E080E090E00995E0911101F091120154
:1015C00085E590E00995E0911701F091180165E536
:1015D00075E080E090E00995E0911101F091120131
:1015E00080E890E00995E0911701F091180165E518
:1015F00075E080E090E00995E0911101F091120111
:101600008AEA90E00995E0911701F09118016AEAE1
:1016100072E080E090E00995E0911101F0911201F3
:1016200085E590E00995E0911701F091180165E5D5
:1016300075E080E090E00995E0911101F0911201D0
:1016400080E190E00994E0911701F091180160E0C9
:1016500070E0CB010995E0911101F091120180E356
:1016600090E00995E0911701F091180160E070E0B9
:10167000CB010995E0911101F091120180ED90E00C
:1016800009941F93CF93DF931F92CDB7DEB782E00B
:101690008093E90004C08091E80082FD13C080912E
:1016A000470190914801A0914901B0914A01892BCD
:1016B0008A2B8B2B81F7109244010F90DF91CF91F1
:1016C0001F9108958091470190914801A09149018F
:1016D000B0914A0181349105A105B10508F45BC0C0
:1016E0008091470190914801A0914901B0914A0130
:1016F00080549109A109B109809347019093480151
:10170000A0934901B0934A01198210E4E0911701B6
:10171000F091180165E575E580E090E00995E091AC
:101720001101F09112018AEA90E00995E091170108
:10173000F09118016AEA7AE280E090E00995E09180
:101740001101F091120185E590E00995E0911701F2
:10175000F091180165E575E580E090E00995E0916C
:101760001101F091120180EA90E00995E0912801C1
:10177000F0912901CE0101960995E0912301F091A4
:10178000240109958981811708F28091E8008B77FF
:101790008093E80084CF40914701509148016091C7
:1017A000490170914A01142F80914701909148019D
:1017B000A0914901B0914A01841B9109A109B10985
:1017C0008093470190934801A0934901B0934A0147
:1017D000198241119BCFD9CF1F93CF93DF931F92D3
:1017E000CDB7DEB782E08093E90004C08091E800C5
:1017F00082FD13C08091470190914801A091490159
:10180000B0914A01892B8A2B8B2B81F710924401CE
:101810000F90DF91CF911F91089580914701909192
:101820004801A0914901B0914A0181349105A10577
:10183000B10508F45BC08091470190914801A091E7
:101840004901B0914A0180549109A109B1098093DD
:10185000470190934801A0934901B0934A0119822E
:1018600010E4E0911701F09118016AEA7AE080E053
:1018700090E00995E0911101F09112018AEA90E05F
:101880000995E0911701F091180165E575E080E098
:1018900090E00995E0911101F091120185E590E049
:1018A0000995E0911701F09118016AEA7AE080E069
:1018B00090E00995E0911101F091120180EA90E029
:1018C0000995E0912801F0912901CE010196099531
:1018D000E0912301F091240109958981811708F293
:1018E0008091E8008B778093E80084CF4091470196
:1018F000509148016091490170914A01142F8091E3
:10190000470190914801A0914901B0914A01841B7F
:101910009109A109B1098093470190934801A093CF
:101920004901B0934A01198241119BCFD9CF1F932E
:10193000CF93DF931F92CDB7DEB782E08093E900AB
:1019400004C08091E80082FD13C08091470190910E
:101950004801A0914901B0914A01892B8A2B8B2B18
:1019600081F7109244010F90DF91CF911F9108955C
:101970008091470190914801A0914901B0914A019D
:1019800081349105A105B10508F45BC08091470140
:1019900090914801A0914901B0914A018054910968
:1019A000A109B1098093470190934801A09349018F
:1019B000B0934A01198210E4E0911701F0911801E7
:1019C00065E575E080E090E00995E0911101F09106
:1019D00012018AEA90E00995E0911701F09118014F
:1019E0006AEA72E080E090E00995E0911101F091DF
:1019F000120185E590E00995E0911701F091180139
:101A000065E575E080E090E00995E0911101F091C5
:101A1000120180EA90E00995E0912801F0912901F6
:101A2000CE0101960995E0912301F09124010995D9
:101A30008981811708F28091E8008B778093E80014
:101A400084CF4091470150914801609149017091C4
:101A50004A01142F8091470190914801A0914901BA
:101A6000B0914A01841B9109A109B10980934701F2
:101A700090934801A0934901B0934A011982411102
:101A80009BCFD9CF1F93CF93DF931F92CDB7DEB7F4
:101A900082E08093E90004C08091E80082FD31C0BB
:101AA0008091470190914801A0914901B0914A016C
:101AB000892B8A2B8B2B81F7E0911701F09118016C
:101AC00060E070E0CB010995E0911101F091120105
:101AD0008FEF90E00995E0911701F091180160E017
:101AE00070E0CB010995E0911101F091120180EFB6
:101AF00090E00995109244010F90DF91CF911F91D2
:101B000008958091470190914801A0914901B091B9
:101B10004A0181349105A105B105D0F180914701B9
:101B200090914801A0914901B0914A0180549109D6
:101B3000A109B1098093470190934801A0934901FD
:101B4000B0934A01198210E460913F017091400105
:101B50008091410190914201E0911B01F0911C01A3
:101B600040E450E00995E0912801F0912901CE016F
:101B700001960995E0912301F0912401099589814D
:101B8000811710F38091E8008B778093E80088CF6D
:101B900040914701509148016091490170914A017B
:101BA000142F8091470190914801A0914901B09173
:101BB0004A01841B9109A109B109809347019093BF
:101BC0004801A0934901B0934A0119824111BCCF49
:101BD000D9CF1F93CF93DF931F92CDB7DEB782E0AB
:101BE0008093E900E0911701F091180165E575E037
:101BF00080E090E00995E0911101F09112018AEAEC
:101C000090E00995E0911701F09118016AEA72E0FD
:101C100080E090E00995E0911101F091120185E5D5
:101C200090E00995E0911701F091180165E575E0E4
:101C300080E090E00995E0911101F091120180E2BD
:101C400090E0099504C08091E80082FD31C0809148
:101C5000470190914801A0914901B0914A01892B17
:101C60008A2B8B2B81F7E0911701F091180160E02E
:101C700070E0CB010995E0911101F091120180E92A
:101C800090E00995E0911701F091180160E070E093
:101C9000CB010995E0911101F091120180E090E0F3
:101CA0000995109244010F90DF91CF911F910895F3
:101CB0008091470190914801A0914901B0914A015A
:101CC00081349105A105B105D0F180914701909132
:101CD0004801A0914901B0914A0180549109A1099C
:101CE000B1098093470190934801A0934901B093B3
:101CF0004A01198210E4E0911701F091180160E0A7
:101D000070E0CB010995E0911101F091120180EA98
:101D100090E00995E0912801F0912901CE0101960A
:101D20000995E0912301F09124010995898181179A
:101D300010F38091E8008B778093E80088CF409182
:101D40004701509148016091490170914A01142F57
:101D50008091470190914801A0914901B0914A01B9
:101D6000841B9109A109B10980934701909348010F
:101D7000A0934901B0934A0119824111BCCFD9CF38
:101D80000F931F93CF93DF931F92CDB7DEB782E0FF
:101D90008093E90000E004C08091E80082FD14C057
:101DA0008091470190914801A0914901B0914A0169
:101DB000892B8A2B8B2B81F7109244010F90DF9196
:101DC000CF911F910F910895809147019091480103
:101DD000A0914901B0914A0181349105A105B10555
:101DE00008F47BC040E450E060E070E010E48091D3
:101DF000470190914801A0914901B0914A01841B8B
:101E0000950BA60BB70B8093470190934801A093C5
:101E10004901B0934A01002309F46CC019821123CF
:101E200051F0E0912801F0912901CE010196099528
:101E300089818117B0F38091E8008B778093E80067
:101E4000010F80913D0190913E01202F30E0281735
:101E5000390709F0A5CFE0912301F09124010995FC
:101E6000E0911701F091180165E575E580E090E0DB
:101E70000995E0911101F09112018AEA90E009952B
:101E8000E0911701F09118016AEA7AE280E090E0AF
:101E90000995E0911101F091120185E590E0099515
:101EA000E0911701F091180165E575E580E090E09B
:101EB0000995E0911101F091120180E790E00995F8
:101EC00002C01F9908C0809109018111FACF0E94B8
:101ED00023031F9BF8CF00E063CF4091470150914F
:101EE00048016091490170914A01142F55276627D6
:101EF00077277DCFE0911701F091180165E575E531
:101F000080E090E00995E0911101F09112018AEAD8
:101F100090E00995E0911701F09118016AEA7AE2E0
:101F200080E090E00995E0911101F091120185E5C2
:101F300090E00995E0911701F091180165E575E5CC
:101F400080E090E00995E0911101F091120180EAA2
:101F500090E0099563CFCF92DF92EF92FF921F93AB
:101F6000CF93DF931F92CDB7DEB782E08093E90075
:101F700004C08091E80082FD17C0809147019091D4
:101F80004801A0914901B0914A01892B8A2B8B2BE2
:101F900081F7109244010F90DF91CF911F91FF9034
:101FA000EF90DF90CF90089580913D0190913E0198
:101FB00040914701509148016091490170914A0157
:101FC000A0E0B0E084179507A607B70708F477C02C
:101FD0008091470190914801A0914901B0914A0137
:101FE000182F8091470190914801A0914901B0912B
:101FF0004A01811B9109A109B1098093470190937E
:102000004801A0934901B0934A01C0903F01D0908C
:102010004001E0904101F090420102C01F9918C0B8
:10202000E0911B01F0911C0148EE50E0C701B601A0
:102030000995E0911101F091120180E790E0099576
:10204000809109018111EACF0E9423031F9BE8CFF1
:1020500080912501412F813009F0469550E0415093
:102060005109E0911B01F0911C01C701B6010995CE
:102070001982112351F0E0912801F0912901CE013C
:102080000196099589818117B0F3E0911B01F091C8
:102090001C0140ED50E0C701B60109958091F200A6
:1020A0009091F300811105C08091E8008B778093B7
:1020B000E800E0912301F091240109955ECF809121
:1020C0003D0190913E01182F8CCF8F929F92AF923D
:1020D000BF92CF92DF92EF92FF920F931F93CF9315
:1020E000DF931F92CDB7DEB782E08093E900812CA9
:1020F000912C5401E12CF12C8091470190914801E1
:10210000A0914901B0914A01892B8A2B8B2B09F4AC
:1021100024C18091470190914801A0914901B0915B
:102120004A0181349105A105B10508F014C100915F
:102130004701109148012091490130914A01E11471
:10214000F10409F05FC080912501813009F4E1C0FC
:1021500080913D0190913E0140914701509148018D
:102160006091490170914A01A0E0B0E084179507A1
:10217000A607B70708F0BFC040913D0150913E014E
:102180006A01D694C794E0903D01F0903E018090A2
:102190003F0190904001A0904101B0904201E09138
:1021A0001701F091180165E575E080E090E0099570
:1021B000E0911101F09112018AEA90E00995E09115
:1021C0001701F09118016AEA72E080E090E0099549
:1021D000E0911101F091120185E590E00995E091FF
:1021E0001B01F0911C0145E250E0C501B4010995C5
:1021F000A60141505109E0911B01F0911C01C5015C
:10220000B4010995802F90E097018E159F0508F481
:102210009C01122F021B8091470190914801A091CF
:102220004901B0914A01821B930BA109B109809326
:10223000470190934801A0934901B0934A01E21AE3
:10224000F30A19828091E80082FFFCCF232B51F022
:10225000E0912801F0912901CE010196099589812B
:102260008117B0F3011121C08091E8008B77809332
:10227000E8008091470190914801A0914901B091F7
:102280004A01E114F10469F5E0911B01F0911C0190
:1022900049E250E0C501B4010995E0912301F091B4
:1022A00024010995E12CF12C27CF809147019091D1
:1022B0004801A0914901B0914A01E114F104B1F43F
:1022C000E0911B01F0911C0149E250E0C501B4010D
:1022D0000995E0912301F09124010995E12CF12C5D
:1022E0002ECF892B8A2B8B2B79F206CF892B8A2B29
:1022F0008B2B31F324CF40914701509148016091DD
:10230000490170914A0176956795579547956A01FD
:102310003ACF80913D0190913E014091470150910B
:1023200048016091490170914A01A0E0B0E0841732
:102330009507A607B70750F0409147015091480113
:102340006091490170914A016A011DCFC0903D0121
:10235000D0903E0118CF00E4F2CE109244010F90CD
:10236000DF91CF911F910F91FF90EF90DF90CF9071
:10237000BF90AF909F908F900895CF93DF9382E0AE
:102380008093E90004C08091E80082FD11C0809133
:10239000470190914801A0914901B0914A01892BD0
:1023A0008A2B8B2B81F710924401DF91CF910895F6
:1023B0008091470190914801A0914901B0914A0153
:1023C00081349105A105B10508F085C04091470110
:1023D000509148016091490170914A01D42F809138
:1023E000470190914801A0914901B0914A01841B95
:1023F0009109A109B1098093470190934801A093E5
:102400004901B0934A01442309F45FC0C0E0E09160
:102410001701F091180165E575E080E090E00995FD
:102420008AEA90E00E94DD02E0911701F091180124
:102430006AEA72E080E090E0099585E590E00E940C
:10244000DD02E0911701F091180165E575E080E08B
:1024500090E0099580EA90E00E94DD0280913F01C2
:1024600090914001A0914101B0914201BC01CD0188
:102470009695879577956795E0911701F0911801EA
:1024800009958091F10085B98091F10088B975981E
:1024900080913F0190914001A0914101B091420192
:1024A0000296A11DB11D80933F0190934001A0931E
:1024B0004101B0934201CE5F759AE0912301F09102
:1024C00024010995CD1708F4A2CF8091E8008B77FD
:1024D0008093E8005CCF8091470190914801A091E2
:1024E0004901B0914A0180549109A109B109809331
:1024F000470190934801A0934901B0934A01D0E469
:1025000085CF08958091000190910101892B81F080
:1025100080E090E0EFE9FFE03197F1F700C00000C4
:10252000019620910001309101018217930790F3E9
:102530000895E0911701F091180165E575E080E0DC
:1025400090E0099502C01F990FC0E0911101F09130
:10255000120180E790E00995809109018111F3CF84
:102560000E9423031F9BF1CFE0911101F091120112
:1025700080EF90E0099585E08A95F1F700000895D5
:102580008FE99FE00197F1F700C00000E09117018B
:10259000F091180165E575E580E090E00995E0911E
:1025A0001101F09112018AEA90E00995E09117017A
:1025B000F09118016AEA7AE280E090E00995E091F2
:1025C0001101F091120185E590E00995E091170164
:1025D000F091180165E575E580E090E00995E091DE
:1025E0001101F091120180E790E0099502C01F9956
:1025F00008C0809109018111FACF0E9423031F9B1B
:10260000F8CF0895E0911701F091180165E575E59F
:1026100080E090E00995E0911101F09112018AEAC1
:1026200090E00995E0911701F09118016AEA7AE2C9
:1026300080E090E00995E0911101F091120185E5AB
:1026400090E00995E0911701F091180165E575E5B5
:1026500080E090E00995E0911101F091120180EF86
:1026600090E00995E0911701F091180160E070E0A9
:10267000CB010995E0911101F09112018FEF90E0EB
:102680000994CF93DF93EC01BDDF8FE891E00197D0
:10269000F1F700C00000E0911701F091180160E02F
:1026A00070E0CB01099580910901882309F4A8C045
:1026B00083B18D83E0911701F091180161E070E022
:1026C00080E090E009951C8280910901882309F43B
:1026D00094C083B18B831A821982E0911701F09123
:1026E000180162E070E080E090E0099580910901B6
:1026F000882309F47FC083B188838FE39CE9019725
:10270000F1F700C00000E0911701F091180165E5B4
:1027100075E580E090E00995E0911101F0911201DA
:102720008AEA90E00995E0911701F09118016AEAB0
:102730007AE280E090E00995E0911101F0911201B8
:1027400085E590E00995E0911701F091180165E5A4
:1027500075E580E090E00995E0911101F09112019A
:1027600080E990E009958FE99FE00197F1F700C0BB
:102770000000E0911701F091180160E070E0CB01DA
:10278000099580910901882391F183B18B87E091AC
:102790001701F091180161E070E080E090E0099588
:1027A0001A86809109018823F9F083B189871886F8
:1027B0001F82E0911701F091180162E070E080E063
:1027C00090E0099580910901811102C00E942303C4
:1027D00083B18E8317DF8FE891E00197F1F700C096
:1027E0000000DF91CF9108950E942303DECF0E9465
:1027F0002303CBCF0E9423037ECF0E94230369CF04
:102800000E94230355CFCF93DF93EC01FBDE8FE8CB
:1028100091E00197F1F700C00000E0911701F091FD
:10282000180160E070E0CB0109950E940C038D83D4
:10283000E0911701F091180161E070E080E090E014
:1028400009950E940C039C838B83E0911701F09102
:1028500018016EE070E080E090E009950E940C03A2
:102860008A83E0911701F09118016FE070E080E039
:1028700090E009950E940C038983E0911701F09183
:10288000180163E070E080E090E009950E940C037D
:1028900088838FE39CE90197F1F700C00000E09185
:1028A0001701F091180165E575E080E090E0099569
:1028B000E0911101F09112018AEA90E00995E0910E
:1028C0001701F09118016AEA72E080E090E0099542
:1028D000E0911101F091120185E590E00995E091F8
:1028E0001701F091180165E575E080E090E0099529
:1028F000E0911101F091120180E990E009958FE3D8
:102900009CE90197F1F700C00000E0911701F091F8
:10291000180160E070E0CB0109950E940C038B87E1
:10292000E0911701F091180161E070E080E090E023
:1029300009950E940C039A878987E0911701F0910D
:1029400018016EE070E080E090E009950E940C03B1
:102950008887E0911701F09118016FE070E080E046
:1029600090E009950E940C038F83E0911701F0918C
:10297000180163E070E080E090E009950E940C038C
:102980008E8340DE8FE891E00197F1F700C00000F0
:10299000DF91CF910895CF93DF93EC0133DE8FE881
:1029A00091E00197F1F700C00000E0911701F0916C
:1029B000180160E070E0CB0109958091090188233E
:1029C00009F4A8C083B18D83E0911701F09118013B
:1029D00061E070E080E090E009951C82809109013F
:1029E000882309F494C083B18B831A821982E09101
:1029F0001701F091180163E070E080E090E0099524
:102A000080910901882309F47FC083B188838FE313
:102A10009CE90197F1F700C00000E0911701F091E7
:102A200018016AEA7AE080E090E00995E0911101EE
:102A3000F09112018AEA90E00995E0911701F09176
:102A4000180165E575E080E090E00995E0911101DD
:102A5000F091120185E590E00995E0911701F09160
:102A600018016AEA7AE080E090E00995E0911101AE
:102A7000F091120180E990E009958FE99FE00197BC
:102A8000F1F700C00000E0911701F091180160E03B
:102A900070E0CB01099580910901882391F183B100
:102AA0008B87E0911701F091180161E070E080E000
:102AB00090E009951A86809109018823F9F083B185
:102AC000898718861F82E0911701F091180163E051
:102AD00070E080E090E0099580910901811102C0C9
:102AE0000E94230383B18E838DDD8FE891E00197EF
:102AF000F1F700C00000DF91CF9108950E942303F9
:102B0000DECF0E942303CBCF0E9423037ECF0E94FF
:102B1000230369CF0E94230355CF409A759825E07F
:102B20002A95F1F7000080910901882321F0109285
:102B300009018FEF84B980E685B985E08A95F1F7C0
:102B40000000759A4098419A80913F019091400110
:102B5000A0914101B091420149E0B695A7959795A2
:102B600087954A95D1F7759825E02A95F1F70000E9
:102B700020910901222321F0109209012FEF24B99D
:102B800085B985E08A95F1F70000759A82E08A950B
:102B9000F1F780913F0190914001A0914101B091E6
:102BA000420131E1B695A795979587953A95D1F76A
:102BB000759825E02A95F1F700002091090122235C
:102BC00021F0109209012FEF24B985B985E08A958B
:102BD000F1F70000759A82E08A95F1F78091430140
:102BE0008430E1F04198409A759825E02A95F1F7F4
:102BF000000080910901882321F0109209018FEFD4
:102C000084B980ED85B985E08A95F1F70000759A61
:102C1000409825E32A95F1F70000089580913F013F
:102C200090914001A0914101B091420129E1B695F6
:102C3000A795979587952A95D1F7759825E02A95B8
:102C4000F1F7000020910901222321F010920901DF
:102C50002FEF24B985B985E08A95F1F70000759AC0
:102C600082E08A95F1F7BECF80913F0190914001BB
:102C7000A0914101B091420100901F0104C0B6959E
:102C8000A795979587950A94D2F7409A759825E06D
:102C90002A95F1F7000020910901222321F01092DA
:102CA00009012FEF24B920E625B935E03A95F1F76F
:102CB0000000759A4098419A282F207C759835E03D
:102CC0003A95F1F7000030910901332321F0109279
:102CD00009013FEF34B925B925E02A95F1F7000045
:102CE000759A22E02A95F1F7492F5A2F6B2F7727F3
:102CF000759835E03A95F1F70000209109012223FB
:102D000021F0109209012FEF24B945B925E02A9549
:102D1000F1F70000759A22E02A95F1F7209143011E
:102D20002530C1F04198409A759825E02A95F1F731
:102D3000000080910901882321F0109209018FEF92
:102D400084B980ED85B935E03A95F1F70000759AC0
:102D500040980895CD01AA27BB27759835E03A958C
:102D6000F1F7000020910901222321F010920901BE
:102D70002FEF24B985B985E08A95F1F70000759A9F
:102D800082E08A95F1F7CECF0F931F93419A759801
:102D900025E02A95F1F7000020910901222321F076
:102DA000109209012FEF24B965B945E04A95F1F772
:102DB0000000759A22E02A95F1F7DC01CB0149E089
:102DC000B695A795979587954A95D1F7759825E07B
:102DD0002A95F1F7000020910901222321F0109299
:102DE00009012FEF24B985B945E04A95F1F70000B4
:102DF000759A22E02A95F1F7092F1A2F2B2F3327E6
:102E0000759845E04A95F1F7000040910901442387
:102E100021F0109209014FEF44B905B925E02A9538
:102E2000F1F70000759A22E02A95F1F7209143010D
:102E3000243041F041982AE12A95F1F700C01F9112
:102E40000F910895CD01AA27BB27759845E04A95B3
:102E5000F1F7000020910901222321F010920901CD
:102E60002FEF24B985B985E08A95F1F70000759AAE
:102E700082E08A95F1F741982AE12A95F1F700C09E
:102E80001F910F910895CF92DF92EF92FF920F93CF
:102E90001F93419AC0901F01D0902001E090210122
:102EA000F090220121E030E0C114D104E104F104EA
:102EB00011F420E030E0319521953109A901462334
:102EC0005723E0E2F0E0EC19FD090FEF1FEF980146
:102ED00004C03695279517950795EA95D2F74023B4
:102EE00051238B019C010C2C04C036952795179516
:102EF00007950A94D2F780913901813009F46EC0A8
:102F0000842F759895E09A95F1F70000909109014A
:102F1000992321F0109209019FEF94B985B985E0BA
:102F20008A95F1F70000759A82E08A95F1F7852F6E
:102F3000759895E09A95F1F7000090910901992311
:102F400021F0109209019FEF94B985B945E04A95A7
:102F5000F1F70000759A82E08A95F1F7759885E09F
:102F60008A95F1F7000080910901882321F01092E1
:102F700009018FEF84B905B995E09A95F1F7000042
:102F8000759A82E08A95F1F7BB27A32F922F812FA4
:102F9000759845E04A95F1F70000409109014423F6
:102FA00021F0109209014FEF44B985B985E08A9567
:102FB000F1F70000759A82E08A95F1F7809143015C
:102FC0008530B1F041988AE18A95F1F700C01F91F0
:102FD0000F91FF90EF90DF90CF90089581E090E007
:102FE00002C0880F991FCA94E2F7482B592B88CF4B
:102FF000890122273327759895E09A95F1F700000B
:1030000080910901882321F0109209018FEF84B982
:1030100005B945E04A95F1F70000759A82E08A9576
:10302000F1F7D0CF409A759895E09A95F1F70000A6
:1030300090910901992321F0109209019FEF94B911
:1030400085B985E08A95F1F70000759A4098089552
:1030500080910901811106C081E0809309018FEF01
:1030600085B914B8739885E08A95F1F7000083B1AB
:10307000739A0895CF93DF93EC01409A759885E099
:103080008A95F1F7000080910901882321F01092C0
:1030900009018FEF84B915B895E09A95F1F7000012
:1030A000759A4098419A759885E08A95F1F70000E5
:1030B00080910901882321F0109209018FEF84B9D2
:1030C00015B895E09A95F1F70000759A82E08A9517
:1030D000F1F7759885E08A95F1F700008091090174
:1030E000882321F0109209018FEF84B915B895E07B
:1030F0009A95F1F70000759A82E08A95F1F7759834
:1031000085E08A95F1F7000080910901882321F07C
:10311000109209018FEF84B915B895E09A95F1F7EF
:103120000000759A82E08A95F1F7759885E08A9596
:10313000F1F7000080910901882321F01092090124
:103140008FEF84B915B895E09A95F1F70000759A5C
:1031500082E08A95F1F74198409A759885E08A95C2
:10316000F1F7000080910901882321F010920901F4
:103170008FEF84B980E385B995E09A95F1F7000067
:10318000759A40988FE99FE00197F1F700C0000021
:103190005FDF409A759895E09A95F1F7000080916D
:1031A0000901882321F0109209018FEF84B980E989
:1031B00085B985E08A95F1F70000759A4098419AA3
:1031C000759895E09A95F1F70000809109018823A0
:1031D00021F0109209018FEF84B915B885E08A9526
:1031E000F1F70000759A82E08A95F1F741988FE92E
:1031F0009FE00197F1F700C000002ADF8B871A8655
:1032000027DF898725DF888723DF8F8321DF8E8370
:10321000DF91CF91089585E38A95F1F70000679BD0
:10322000FECF85E08A95F1F70000089580910601B0
:10323000409A7598813009F4A0C085E08A95F1F72D
:10324000000080910901882321F0109209018FEF7D
:1032500084B915B885E08A95F1F70000759A409811
:1032600060913F0170914001809141019091420134
:10327000E0911701F09118010995409A759885E041
:103280008A95F1F7000080910901882321F01092BE
:1032900009018FEF84B980E385B985E08A95F1F75C
:1032A0000000759A409881E0809309018FEF85B9FD
:1032B00014B88091370190913801892BE9F1809100
:1032C0004501909146012091370130913801821BD0
:1032D000930B909308018093070180913F01909197
:1032E0004001A0914101B0914201209137013091FC
:1032F000380140913D0150913E01840F951FA11D61
:10330000B11D821B930BA109B10980933F019093DA
:103310004001A0934101B0934201109238011092F4
:10332000370185E38A95F1F70000679BFECF85E0C2
:103330008A95F1F70000089580914501909146012A
:10334000909308018093070120913D0130913E0147
:1033500080913F0190914001A0914101B0914201C3
:10336000820F931FA11DB11D80933F0190934001D7
:10337000A0934101B0934201D4CF85E08A95F1F743
:10338000000080910901882321F0109209018FEF3C
:1033900084B98FEF85B985E08A95F1F70000759AB9
:1033A000409885E38A95F1F70000679BFECF85E0A2
:1033B0008A95F1F700008091390181112EC080912A
:1033C0003F0190914001A0914101B091420190FFD5
:1033D00034C0409A759885E08A95F1F70000809195
:1033E0000901882321F0109209018FEF84B981E04F
:1033F00085B985E08A95F1F70000759A409860914B
:103400003F01709140018091410190914201E09112
:103410001701F0911801099546CF409A759885E0FB
:103420008A95F1F7000080910901882321F010921C
:1034300009018FEF84B980E5DBCF409A759885E06C
:103440008A95F1F7000080910901882321F01092FC
:1034500009018FEF84B915B885E08A95F1F700006E
:10346000759A4098CCCFCF92DF92EF92FF92CF9394
:10347000DF93109208011092070181E08093E90028
:10348000C2E004C08091E80080FD15C08091470132
:1034900090914801A0914901B0914A01892B8A2B52
:1034A0008B2B81F710924401DF91CF91FF90EF9029
:1034B000DF90CF90089580910701909108010097C7
:1034C00009F48EC040914701509148016091490133
:1034D00070914A01413451056105710508F43EC0FF
:1034E00020E4C22ED12CE12CF12CD0E42D2F30E0A1
:1034F0002817390708F044C0821B930B90930801EA
:1035000080930701DD2381F080E0739895E09A9520
:10351000F1F7000023B1739A9C2F9A95F1F720934D
:10352000F1008F5F8D13F1CF809147019091480199
:10353000A0914901B0914A018C199D09AE09BF09BA
:103540008093470190934801A0934901B0934A01A9
:103550008091E8008E778093E80098CFC090470173
:10356000D0904801E0904901F0904A01DC2DDD2423
:10357000EE24FF242D2F30E02817390708F4BCCFA4
:10358000D81B892BB9F080E0739895E09A95F1F7F4
:10359000000023B1739A9C2F9A95F1F72093F100C4
:1035A0008F5F482F50E020910701309108014217AA
:1035B000530750F38091470190914801A091490130
:1035C000B0914A01892B8A2B8B2B41F4DD2309F41E
:1035D000ABCF809107019091080188CF27DEF6CF0D
:1035E00025DE80910701909108016CCF2091350173
:1035F000309136012617370750F06115710579F5BE
:103600002091E8002E772093E80020E030E0FC01D4
:1036100090E00EC0853029F18091E80083FD23C041
:103620008091E80082FD15C08091E80080FD1DC0FA
:103630002115310511F4992361F080912E0181113A
:10364000E9CF82E0089580912E018823D1F385305F
:1036500041F08091E80082FFF6CF80E008959B0161
:10366000D6CF83E0089581E008954091F200509113
:10367000F3002115310519F04034510570F091E047
:103680004034510509F090E08091E8008E778093F6
:10369000E800CECF4034510591F381918093F10041
:1036A000215031094F5F5F4F2115310599F7E7CF61
:1036B0006115710529F42091E8002B772093E8002B
:1036C000FC016115710559F416C0853061F18091D6
:1036D000E80083FD2AC08091E80082FD12C080913D
:1036E0002E018111F2CF82E0089580912E0188236E
:1036F000D1F38530C1F08091E80080FFF6CF80E003
:1037000008958091F2009091F300892B31F080911F
:10371000F100819361507109A1F78091E8008B77E6
:103720008093E800CECF83E0089581E00895209152
:103730003501309136012617370750F061157105B4
:1037400079F52091E8002E772093E80020E030E022
:10375000FC0190E00EC0853029F18091E80083FDE6
:1037600023C08091E80082FD15C08091E80080FDB3
:103770001DC02115310511F4992361F080912E01AE
:103780008111E9CF82E0089580912E018823D1F341
:10379000853041F08091E80082FFF6CF80E0089507
:1037A0009B01D6CF83E0089581E008954091F20017
:1037B0005091F3002115310519F04034510570F096
:1037C00091E04034510509F090E08091E8008E7757
:1037D0008093E800CECF4034510591F384918093DB
:1037E000F1003196215031094F5F5F4F21153105AE
:1037F00091F7E6CF873098F58093E900982F242F32
:10380000762F50E021FF19C03091EB003E7F3093BE
:10381000EB003091ED003D7F3093ED003091EB00F7
:1038200031603093EB007093EC002093ED005093E7
:10383000F0002091EE0027FF1AC09F5F973079F0CB
:103840009093E900891779F07091EC002091ED00D8
:103850005091F00021FDD8CF9F5F973089F780937A
:10386000E90081E00895242F762F50E0CBCF80E04F
:10387000089580912F0187FF05C012C080912E010D
:10388000882349F08091E80080FFF8CF8091E8001C
:103890008E778093E800089580912E018823D9F3D4
:1038A0008091E80082FFF8CF8091E8008B778093C9
:1038B000E80008950F931F93CF93DF9349D050D022
:1038C000C8EDD0E088818F7788838881806888837D
:1038D00088818F7D8883E7EDF0E080818068808338
:1038E00019BC10922E0110922A0110922C011092F4
:1038F0002B0100EE10E0F80180818B7F80838881AE
:103900008160888342E360E080E074DFE1EEF0E014
:1039100080818E7F8083E2EEF0E080818160808311
:10392000808188608083F80180818E7F8083888198
:1039300080618883DF91CF911F910F910895E7ED0A
:10394000F0E080818160808381E080932D01B2CF9F
:10395000E8EDF0E080818C7F80831092E200089592
:103960001092DA001092E10008951F920F920FB6A4
:103970000F9211242F933F934F935F936F937F93F5
:103980008F939F93AF93BF93EF93FF938091E10049
:1039900082FF04C08091E20082FD88C08091DA003D
:1039A00080FF04C08091D80080FD6BC08091E10051
:1039B00080FF04C08091E20080FD7FC08091E10023
:1039C00084FF28C08091E20084FF24C088E189BD83
:1039D0008AE189BD09B400FEFDCF8091D8008F7DBA
:1039E0008093D8008091E1008F7E8093E1008091E8
:1039F000E2008F7E8093E2008091E20081608093FC
:103A0000E20080912A01882309F46CC084E080934D
:103A10002E01D0D18091E10083FF22C08091E2008D
:103A200083FF1EC08091E100877F8093E10082E0E8
:103A300080932E0110922A018091E1008E7F809365
:103A4000E1008091E2008E7F8093E2008091E200AD
:103A500080618093E20042E360E080E0CBDEAAD1A7
:103A6000FF91EF91BF91AF919F918F917F916F9156
:103A70005F914F913F912F910F900FBE0F901F902C
:103A800018958091DA008E7F8093DA008091D900BA
:103A900080FF2EC088E189BD8AE189BD09B400FE9E
:103AA000FDCF81E080932E0185D180CF8091E10010
:103AB0008B7F8093E100D8D171CF8091E2008E7F1F
:103AC0008093E2008091E20080618093E200809127
:103AD000D80080628093D80019BC85E080932E01C5
:103AE00069D16CCF8091E30087FD90CF81E08FCFCB
:103AF00019BC10922E015ED159CF0F931F93CF9313
:103B0000DF93CDB7DEB7AA970FB6F894DEBF0FBE2E
:103B1000CDBFEFE2F1E08091F100819321E0E73346
:103B2000F207C9F720D28091E80083FF09C02091F5
:103B30002F0130913001832F90E08A309105C8F039
:103B40008091E80083FF0AC08091EB00806280933F
:103B5000EB008091E800877F8093E800AA960FB67B
:103B6000F894DEBF0FBECDBFDF91CF911F910F91B3
:103B70000895FC01E45BFF4F34C52111E1CF809132
:103B800031018230E8F69091E800977F9093E80049
:103B900080932A016EDE80912A01811103C18091F8
:103BA000E30087FDFFC081E080932E0147D1C8CF9D
:103BB000203831F68091E800877F8093E80080917B
:103BC0002A018093F1008091E8008E778093E800CD
:103BD00050DEB6CF2058223008F0B2CF80913101AC
:103BE000909132018C3D53E0950709F4A7C0AE01D6
:103BF0004F5F5F4F60913301D4D4BC01892B09F42E
:103C00009FCF9091E800977F9093E80089819A81F7
:103C10008EDD8091E8008B778093E80091CF2111B1
:103C20008FCF109131011F770FB7F8948091E80082
:103C3000877F8093E8001DDE8091E80080FFFCCF45
:103C40008091E3008078812B8093E30080688093EB
:103C5000E300111171C082E080932E010FBF70CF7D
:103C6000222309F455C0223009F06ACF8091310136
:103C7000811124C080913301877009F461CF809352
:103C8000E9009091EB0090FF19C0333009F48CC02B
:103C90009091EB0090619093EB0021E030E0A9015E
:103CA00002C0440F551F8A95E2F74093EA00109234
:103CB000EA008091EB0088608093EB001092E900AD
:103CC0008091E800877F8093E800D3DD39CF2038EA
:103CD00059F1223809F034CF8091330187708093F5
:103CE000E9008091EB0085FB882780F91092E900BC
:103CF0009091E800977F9093E8008093F1001092F4
:103D0000F1008091E8008E778093E800B2DD18CF53
:103D100080913101813009F013CF81E0333009F017
:103D200080E080932C01CACF80912B0190912C01CF
:103D30009923F1F28260DCCF83E08ECF83E08A8327
:103D40008AE289835FB7F894DE01139620E03EE0B3
:103D500041E207C090E0C7968D939D932F5F243179
:103D600081F0E32FF0E040935700849120FF03C0DF
:103D700082958F703F5F8F708A3060F790E0C096B9
:103D8000EBCF5FBF8091E800877F8093E8006AE215
:103D900070E0CE0101962ADC8091E8008B77809359
:103DA000E800CECE84E000CF8091EB00806280936B
:103DB000EB0084CF0895CF9380912E01882359F092
:103DC000C091E900C7701092E9008091E80083FD7E
:103DD00004C0C093E900CF9108958FDEFACF84B775
:103DE000877F84BF0FB6F894A895809160008861A2
:103DF00080936000109260000FBE90E080E80FB6E4
:103E0000F89480936100909361000FBE52985A9A83
:103E10008DB183608DB98EB183608EB92FEF80E74D
:103E200092E0215080409040E1F700C0000080E81F
:103E30000FB6F89485BF0FBE85BF81CD42E360E821
:103E400082E0D8DC42E361E881E0D4DCE2EEF0E03D
:103E50008081846080831092470110924801109203
:103E6000490110924A01089580913C01882371F024
:103E700080910A0191E0980F90930A01883C30F0FC
:103E800010920A019EB181E089278EB90895809130
:103E90002E01843009F00895809144018A3049F060
:103EA000809144018B30B9F7E0910F01F09110013E
:103EB0000994E0911901F0911A01099490DF789426
:103EC000E6DF79DFFDCFFC012381828190E0A0E075
:103ED000B0E0DC0199278827B22B2081822B218139
:103EE000922B80933F0190934001A0934101B093A6
:103EF00042012781868190E0A0E0B0E0DC019927B3
:103F00008827B22B2481822B2581922B8093470115
:103F100090934801A0934901B0934A01818590E0B4
:103F2000982F88272085822B909346018093450106
:103F3000838590E0982F88272285822B90933E01DD
:103F400080933D0184858093390185858093430169
:103F5000878590E0982F88272685822B90933801BB
:103F6000809337010895CF93DF93CDB7DEB7609785
:103F70000FB6F894DEBF0FBECDBFE09130018E2F9B
:103F800090E0FC01E058F109EB34F105B0F4EA5A95
:103F9000FF4F27C38091E800877F8093E80080E788
:103FA00041D856D8898361E070E0CE0101961EDBCE
:103FB0008091E8008B778093E80060960FB6F894C4
:103FC000DEBF0FBECDBFDF91CF9108958091E80095
:103FD000877F8093E80080913301909134010097AE
:103FE00009F0EFC181E892E19093240180932301CD
:103FF0008091E8008E778093E800DFCF0E94021363
:104000008091E800877F8093E80033DCD6CF8091F1
:10401000E800877F8093E80080913301909134011C
:104020008130910509F4EBC18230910509F421C278
:104030008330910509F43AC28430910509F457C2DE
:104040008530910509F468C28630910509F483C270
:104050008730910509F49EC2089751F685E690E1F4
:104060009093100180930F01C3CF8091E800877F68
:104070008093E80080913301909134018130910563
:1040800009F4D2C18230910509F4D5C1833091057C
:1040900009F418C2049709F0ABCF83E29BE0909338
:1040A0000E0180930D01A4CF8091E800877F80935B
:1040B000E80080913301909134018130910509F439
:1040C000ACC18230910509F4CDC18330910509F46A
:1040D000D7C18430910509F411C28530910509F4E6
:1040E00022C2069709F084CF84E396E190931E01E3
:1040F00080931D017DCF73988091E800877F809326
:10410000E800B7DB5ACF8091E800877F8093E80012
:1041100080913301909134018130910509F476C189
:104120008230910509F497C18330910509F4AFC13C
:10413000049709F05DCF8AE398E19093270180937B
:10414000260156CF8091E800877F8093E800809118
:10415000310190913201909301018093000148CF89
:10416000739A8091E800877F8093E80082DB25CFF7
:104170008091E800877F8093E800809133019091DF
:1041800034018130910509F432C18230910509F47E
:1041900059C18330910509F481C18430910509F436
:1041A0009FC18530910509F4C5C18630910509F498
:1041B000D9C18730910509F4E6C1089709F018CFF5
:1041C0008BE198E0909318018093170111CF8091B3
:1041D000E800877F8093E80080913301909134015B
:1041E000A0E0B0E080931F0190932001A0932101F3
:1041F000B09322018091E8008E778093E800DDCEB5
:104200008091E800877F8093E80005D88091E800DE
:104210008E778093E800D1CE8091E800877F8093ED
:10422000E8006091350170913601CE01019640DAC7
:10423000CE01019648DEE0911D01F0911E01099525
:104240008091E8008E778093E800B7CE8091E800F7
:10425000877F8093E8008091E8008E778093E80064
:10426000E0910D01F0910E010995A7CE8091E80033
:10427000877F8093E800E0912601F0912701CE012D
:10428000019609956CE070E090CE8091E800877F00
:104290008093E8006091350170913601CE0101965E
:1042A00007DACE0101960FDE8091E8008E778093C9
:1042B000E8008AE08093440180CE8091E800877F07
:1042C0008093E8006091350170913601CE0101962E
:1042D000EFD9CE010196F7DD8091E8008E778093CB
:1042E000E8008BE08093440168CE8091E800877FEE
:1042F0008093E8006091310170913201CB01A0E020
:10430000B0E0DC01992788272091330130913401F6
:10431000BC01CD01620F731F811D911DE09117013A
:10432000F091180109958091E8008E778093E8005C
:1043300044CE8091E800877F8093E800809131012E
:104340000E944F072FCE8091E800877F8093E8007E
:1043500064E070E082E091E049D98091E8008B77D9
:104360008093E8002ACE8091E800877F8093E80060
:1043700080DA81E080933C0120CE8091E800877F45
:104380008093E80076DA10923C01709A16CE809104
:10439000E800877F8093E8006CDA10923C01709807
:1043A0000CCE8091E800877F8093E80068E070E0A1
:1043B0008FE291E01BD98091E8008B778093E80031
:1043C000FCCD8130910509F484C08230910509F457
:1043D0009CC08330910509F4B7C0049709F008CE5A
:1043E00080EC92E1909324018093230101CE18B8D0
:1043F00088ED90E09093180180931701F9CD81E446
:104400009BE09093100180930F01F2CD81E493E142
:104410009093270180932601EBCD83E798E090935A
:104420001E0180931D01E4CD83E09AE090930E017C
:1044300080930D01DDCD83E69AE090930E01809389
:104440000D01D6CD88ED90E090931801809317016F
:1044500081E088B9CDCD83E094E1909327018093EA
:104460002601C6CD82ED98E090931E0180931D0138
:10447000BFCD8CEE9BE09093100180930F01B8CDDF
:1044800081E399E090931E0180931D01B1CD8BECE7
:1044900094E19093270180932601AACD18B88BE56B
:1044A00098E09093180180931701A2CD8091250187
:1044B000823009F461C087E99CE0909310018093F9
:1044C0000F0196CD83EC9AE090930E0180930D013D
:1044D0008FCD82E692E0909324018093230188CDD2
:1044E0008DE398E0909318018093170181CD82E4C9
:1044F0009DE09093100180930F017ACD80E999E0BF
:1045000090931E0180931D0173CD82E892E19093F8
:104510002401809323016CCD89EE9DE090931001DE
:1045200080930F0165CD8DE895E190931E018093F6
:104530001D015ECD84EC96E19093180180931701E4
:1045400081E08093060154CD89E992E190932401A2
:10455000809323014DCD80EC9EE0909310018093D9
:104560000F0146CD83E497E19093180180931701E2
:1045700082E0809306013CCD8DEB91E19093100198
:1045800080930F0135CD85E098E0909318018093DA
:1045900017012ECD8BEA9FE09093100180930F01BD
:1045A00027CD292F30E02130310599F02230310517
:1045B00041F080E090E020E030E0FA013183208398
:1045C000089580E290E022E431E0FA013183208313
:1045D000089582E190E022E631E0FA013183208300
:1045E0000895EE0FFF1F0590F491E02D0994F894C3
:0245F000FFCFFB
:0645F2000A0045343237D7
:00000001FF
